{"abi":[{"type":"constructor","inputs":[{"name":"protocolBps_","type":"uint256","internalType":"uint256"},{"name":"creatorBps_","type":"uint256","internalType":"uint256"},{"name":"oracleBps_","type":"uint256","internalType":"uint256"},{"name":"oracle_","type":"address","internalType":"address"}],"stateMutability":"nonpayable"},{"type":"function","name":"DEFAULT_ADMIN_ROLE","inputs":[],"outputs":[{"name":"","type":"bytes32","internalType":"bytes32"}],"stateMutability":"view"},{"type":"function","name":"MARKET_MANAGER_ROLE","inputs":[],"outputs":[{"name":"","type":"bytes32","internalType":"bytes32"}],"stateMutability":"view"},{"type":"function","name":"PROTOCOL_ROLE","inputs":[],"outputs":[{"name":"","type":"bytes32","internalType":"bytes32"}],"stateMutability":"view"},{"type":"function","name":"collect","inputs":[{"name":"marketId","type":"uint256","internalType":"uint256"},{"name":"token","type":"address","internalType":"address"},{"name":"amount","type":"uint256","internalType":"uint256"}],"outputs":[],"stateMutability":"nonpayable"},{"type":"function","name":"creatorBalances","inputs":[{"name":"","type":"uint256","internalType":"uint256"},{"name":"","type":"address","internalType":"address"}],"outputs":[{"name":"","type":"uint256","internalType":"uint256"}],"stateMutability":"view"},{"type":"function","name":"creatorFeeBps","inputs":[],"outputs":[{"name":"","type":"uint256","internalType":"uint256"}],"stateMutability":"view"},{"type":"function","name":"getCreatorBalance","inputs":[{"name":"marketId","type":"uint256","internalType":"uint256"},{"name":"token","type":"address","internalType":"address"}],"outputs":[{"name":"","type":"uint256","internalType":"uint256"}],"stateMutability":"view"},{"type":"function","name":"getMarketCreator","inputs":[{"name":"marketId","type":"uint256","internalType":"uint256"}],"outputs":[{"name":"","type":"address","internalType":"address"}],"stateMutability":"view"},{"type":"function","name":"getMarketTotalFees","inputs":[{"name":"marketId","type":"uint256","internalType":"uint256"},{"name":"token","type":"address","internalType":"address"}],"outputs":[{"name":"","type":"uint256","internalType":"uint256"}],"stateMutability":"view"},{"type":"function","name":"getOracleBalance","inputs":[{"name":"token","type":"address","internalType":"address"}],"outputs":[{"name":"","type":"uint256","internalType":"uint256"}],"stateMutability":"view"},{"type":"function","name":"getProtocolBalance","inputs":[{"name":"token","type":"address","internalType":"address"}],"outputs":[{"name":"","type":"uint256","internalType":"uint256"}],"stateMutability":"view"},{"type":"function","name":"getRoleAdmin","inputs":[{"name":"role","type":"bytes32","internalType":"bytes32"}],"outputs":[{"name":"","type":"bytes32","internalType":"bytes32"}],"stateMutability":"view"},{"type":"function","name":"grantRole","inputs":[{"name":"role","type":"bytes32","internalType":"bytes32"},{"name":"account","type":"address","internalType":"address"}],"outputs":[],"stateMutability":"nonpayable"},{"type":"function","name":"hasRole","inputs":[{"name":"role","type":"bytes32","internalType":"bytes32"},{"name":"account","type":"address","internalType":"address"}],"outputs":[{"name":"","type":"bool","internalType":"bool"}],"stateMutability":"view"},{"type":"function","name":"isMarketRegistered","inputs":[{"name":"marketId","type":"uint256","internalType":"uint256"}],"outputs":[{"name":"","type":"bool","internalType":"bool"}],"stateMutability":"view"},{"type":"function","name":"marketTotalFees","inputs":[{"name":"","type":"uint256","internalType":"uint256"},{"name":"","type":"address","internalType":"address"}],"outputs":[{"name":"","type":"uint256","internalType":"uint256"}],"stateMutability":"view"},{"type":"function","name":"markets","inputs":[{"name":"","type":"uint256","internalType":"uint256"}],"outputs":[{"name":"marketAddress","type":"address","internalType":"address"},{"name":"creator","type":"address","internalType":"address"},{"name":"registered","type":"bool","internalType":"bool"}],"stateMutability":"view"},{"type":"function","name":"oracle","inputs":[],"outputs":[{"name":"","type":"address","internalType":"address"}],"stateMutability":"view"},{"type":"function","name":"oracleBalances","inputs":[{"name":"","type":"address","internalType":"address"}],"outputs":[{"name":"","type":"uint256","internalType":"uint256"}],"stateMutability":"view"},{"type":"function","name":"oracleFeeBps","inputs":[],"outputs":[{"name":"","type":"uint256","internalType":"uint256"}],"stateMutability":"view"},{"type":"function","name":"protocolBalances","inputs":[{"name":"","type":"address","internalType":"address"}],"outputs":[{"name":"","type":"uint256","internalType":"uint256"}],"stateMutability":"view"},{"type":"function","name":"protocolFeeBps","inputs":[],"outputs":[{"name":"","type":"uint256","internalType":"uint256"}],"stateMutability":"view"},{"type":"function","name":"registerMarket","inputs":[{"name":"marketId","type":"uint256","internalType":"uint256"},{"name":"marketAddress","type":"address","internalType":"address"},{"name":"creator","type":"address","internalType":"address"}],"outputs":[],"stateMutability":"nonpayable"},{"type":"function","name":"renounceRole","inputs":[{"name":"role","type":"bytes32","internalType":"bytes32"},{"name":"callerConfirmation","type":"address","internalType":"address"}],"outputs":[],"stateMutability":"nonpayable"},{"type":"function","name":"revokeRole","inputs":[{"name":"role","type":"bytes32","internalType":"bytes32"},{"name":"account","type":"address","internalType":"address"}],"outputs":[],"stateMutability":"nonpayable"},{"type":"function","name":"setOracle","inputs":[{"name":"newOracle","type":"address","internalType":"address"}],"outputs":[],"stateMutability":"nonpayable"},{"type":"function","name":"supportsInterface","inputs":[{"name":"interfaceId","type":"bytes4","internalType":"bytes4"}],"outputs":[{"name":"","type":"bool","internalType":"bool"}],"stateMutability":"view"},{"type":"function","name":"updateFeeSplit","inputs":[{"name":"protocolBps_","type":"uint256","internalType":"uint256"},{"name":"creatorBps_","type":"uint256","internalType":"uint256"},{"name":"oracleBps_","type":"uint256","internalType":"uint256"}],"outputs":[],"stateMutability":"nonpayable"},{"type":"function","name":"withdrawCreator","inputs":[{"name":"marketId","type":"uint256","internalType":"uint256"},{"name":"token","type":"address","internalType":"address"},{"name":"amount","type":"uint256","internalType":"uint256"}],"outputs":[],"stateMutability":"nonpayable"},{"type":"function","name":"withdrawOracle","inputs":[{"name":"token","type":"address","internalType":"address"},{"name":"amount","type":"uint256","internalType":"uint256"}],"outputs":[],"stateMutability":"nonpayable"},{"type":"function","name":"withdrawProtocol","inputs":[{"name":"token","type":"address","internalType":"address"},{"name":"to","type":"address","internalType":"address"},{"name":"amount","type":"uint256","internalType":"uint256"}],"outputs":[],"stateMutability":"nonpayable"},{"type":"event","name":"CreatorWithdrawal","inputs":[{"name":"marketId","type":"uint256","indexed":true,"internalType":"uint256"},{"name":"creator","type":"address","indexed":true,"internalType":"address"},{"name":"token","type":"address","indexed":true,"internalType":"address"},{"name":"amount","type":"uint256","indexed":false,"internalType":"uint256"}],"anonymous":false},{"type":"event","name":"FeeSplitUpdated","inputs":[{"name":"protocolBps","type":"uint256","indexed":false,"internalType":"uint256"},{"name":"creatorBps","type":"uint256","indexed":false,"internalType":"uint256"},{"name":"oracleBps","type":"uint256","indexed":false,"internalType":"uint256"}],"anonymous":false},{"type":"event","name":"FeesCollected","inputs":[{"name":"marketId","type":"uint256","indexed":true,"internalType":"uint256"},{"name":"market","type":"address","indexed":true,"internalType":"address"},{"name":"token","type":"address","indexed":true,"internalType":"address"},{"name":"protocolAmount","type":"uint256","indexed":false,"internalType":"uint256"},{"name":"creatorAmount","type":"uint256","indexed":false,"internalType":"uint256"},{"name":"oracleAmount","type":"uint256","indexed":false,"internalType":"uint256"},{"name":"totalAmount","type":"uint256","indexed":false,"internalType":"uint256"}],"anonymous":false},{"type":"event","name":"MarketRegistered","inputs":[{"name":"marketId","type":"uint256","indexed":true,"internalType":"uint256"},{"name":"market","type":"address","indexed":true,"internalType":"address"},{"name":"creator","type":"address","indexed":true,"internalType":"address"}],"anonymous":false},{"type":"event","name":"OracleWithdrawal","inputs":[{"name":"oracle","type":"address","indexed":true,"internalType":"address"},{"name":"token","type":"address","indexed":true,"internalType":"address"},{"name":"amount","type":"uint256","indexed":false,"internalType":"uint256"}],"anonymous":false},{"type":"event","name":"ProtocolWithdrawal","inputs":[{"name":"token","type":"address","indexed":true,"internalType":"address"},{"name":"to","type":"address","indexed":true,"internalType":"address"},{"name":"amount","type":"uint256","indexed":false,"internalType":"uint256"}],"anonymous":false},{"type":"event","name":"RoleAdminChanged","inputs":[{"name":"role","type":"bytes32","indexed":true,"internalType":"bytes32"},{"name":"previousAdminRole","type":"bytes32","indexed":true,"internalType":"bytes32"},{"name":"newAdminRole","type":"bytes32","indexed":true,"internalType":"bytes32"}],"anonymous":false},{"type":"event","name":"RoleGranted","inputs":[{"name":"role","type":"bytes32","indexed":true,"internalType":"bytes32"},{"name":"account","type":"address","indexed":true,"internalType":"address"},{"name":"sender","type":"address","indexed":true,"internalType":"address"}],"anonymous":false},{"type":"event","name":"RoleRevoked","inputs":[{"name":"role","type":"bytes32","indexed":true,"internalType":"bytes32"},{"name":"account","type":"address","indexed":true,"internalType":"address"},{"name":"sender","type":"address","indexed":true,"internalType":"address"}],"anonymous":false},{"type":"error","name":"AccessControlBadConfirmation","inputs":[]},{"type":"error","name":"AccessControlUnauthorizedAccount","inputs":[{"name":"account","type":"address","internalType":"address"},{"name":"neededRole","type":"bytes32","internalType":"bytes32"}]},{"type":"error","name":"ReentrancyGuardReentrantCall","inputs":[]},{"type":"error","name":"SafeERC20FailedOperation","inputs":[{"name":"token","type":"address","internalType":"address"}]},{"type":"error","name":"Treasury_InsufficientBalance","inputs":[]},{"type":"error","name":"Treasury_InvalidAddress","inputs":[]},{"type":"error","name":"Treasury_InvalidAmount","inputs":[]},{"type":"error","name":"Treasury_InvalidBps","inputs":[]},{"type":"error","name":"Treasury_MarketAlreadyRegistered","inputs":[]},{"type":"error","name":"Treasury_MarketNotRegistered","inputs":[]},{"type":"error","name":"Treasury_Unauthorized","inputs":[]}],"bytecode":{"object":"0x6080346100f157601f6113e638819003918201601f19168301916001600160401b038311848410176100f5578084926080946040528339810103126100f1578051602082015160408301516060909301516001600160a01b0381169392908490036100f1576001805583156100e2576127106100848461007f8585610109565b610109565b036100d357600255600355600455600580546001600160a01b0319169190911790556100af3361012a565b506100b9336101a0565b506100c333610233565b5060405161109f90816102c78239f35b6310ecdaa560e21b5f5260045ffd5b63fd0140ad60e01b5f5260045ffd5b5f80fd5b634e487b7160e01b5f52604160045260245ffd5b9190820180921161011657565b634e487b7160e01b5f52601160045260245ffd5b6001600160a01b0381165f9081525f5160206113c65f395f51905f52602052604090205460ff1661019b576001600160a01b03165f8181525f5160206113c65f395f51905f5260205260408120805460ff191660011790553391905f5160206113665f395f51905f528180a4600190565b505f90565b6001600160a01b0381165f9081525f5160206113a65f395f51905f52602052604090205460ff1661019b576001600160a01b03165f8181525f5160206113a65f395f51905f5260205260408120805460ff191660011790553391907fba279271fb7bbf76a6f3df3cc57bf80647fcafdea60ec3383d90f459de74e7c0905f5160206113665f395f51905f529080a4600190565b6001600160a01b0381165f9081525f5160206113865f395f51905f52602052604090205460ff1661019b576001600160a01b03165f8181525f5160206113865f395f51905f5260205260408120805460ff191660011790553391907f959ec338079b71742207829b3534c23a2ddd8bcc180652a0ea6677af748b5fed905f5160206113665f395f51905f529080a460019056fe6080806040526004361015610012575f80fd5b5f3560e01c90816301ffc9a714610d095750806302768de414610ccf57806317773ebb14610cb2578063248a9ca314610c80578063287c99991461069d5780632f2ff15d14610c4357806335659fb814610c2657806336568abe14610be257806336ad8a7a14610b9257806337fba9c0146107585780633ade20db14610b585780633f84568914610acd57806346d881a714610a98578063513de581146109645780635538adb7146107b95780635c76fda71461079c57806367dc049a146102d2578063734bdc0b1461025657806378e3d3ea146107585780637adbf973146106fd5780637dc0d1d0146106d55780638cda1e321461069d57806391d14854146106555780639e82124e14610489578063a217fddf1461046f578063a2a75f0614610368578063b1283e7714610316578063b25f3bde146102d2578063d547741f1461028e578063e65946a2146102565763fc9034ac14610171575f80fd5b346102525760403660031901126102525761018a610d5c565b60243590610196610fa4565b6005546001600160a01b031633036102435781158015610223575b6102145760018060a01b031690815f52600960205260405f206101d5828254610dd3565b90556101e2813384610fc4565b6040519081527fdec722e3cc68c72b88144e26475719f79bda73204a0499f49319e6555a76e91560203392a360018055005b6305cc987560e31b5f5260045ffd5b506001600160a01b0381165f9081526009602052604090205482116101b1565b632a461a3760e11b5f5260045ffd5b5f80fd5b34610252576020366003190112610252576001600160a01b03610277610d5c565b165f526009602052602060405f2054604051908152f35b34610252576040366003190112610252576102d06004356102ad610d72565b906102cb6102c6825f525f602052600160405f20015490565b610e64565b610f24565b005b34610252576040366003190112610252576102eb610d72565b6004355f52600a60205260405f209060018060a01b03165f52602052602060405f2054604051908152f35b34610252576020366003190112610252576004355f526006602052606060405f2060ff6001808060a01b0383541692015460405192835260018060a01b038116602084015260a01c1615156040820152f35b346102525761037636610d88565b9061037f610fa4565b825f52600660205260ff600160405f20015460a01c1615610460575f838152600660205260409020600101546001600160a01b031633036102435781158015610439575b61021457825f52600860205260405f2060018060a01b0382165f5260205260405f206103f0838254610dd3565b90556001600160a01b031691610407823385610fc4565b6040519182527f2c5e9062958bd5d5f61072b979c579e0818096e4f3fb369e032aaccb5311c60b60203393a460018055005b50825f52600860205260405f2060018060a01b0382165f5260205260405f205482116103c3565b63362208a360e01b5f5260045ffd5b34610252575f3660031901126102525760206040515f8152f35b346102525761049736610d88565b90916104a1610fa4565b805f52600660205260ff600160405f20015460a01c1615610460575f818152600660205260409020546001600160a01b03163303610243578115610646576127106104ee60025484610e02565b04916127106104ff60035483610e02565b049361271061051060045484610e02565b0490610525826105208888610db2565b610db2565b83811061062a575b5060018060a01b0316946105716040516323b872dd60e01b60208201523360248201523060448201528460648201526064815261056b608482610de0565b87611006565b855f52600760205260405f20610588868254610db2565b9055835f52600860205260405f20865f5260205260405f206105ab828254610db2565b9055855f52600960205260405f206105c4838254610db2565b9055835f52600a60205260405f20865f5260205260405f206105e7848254610db2565b90556040519485526020850152604084015260608301527fbfc5c8cface3bdf550dfe2ae172c96c0fa54ae06202a4db51f1cfea857acd32660803393a460018055005b9461063961063f929685610dd3565b90610db2565b938661052d565b638887ec4960e01b5f5260045ffd5b346102525760403660031901126102525761066e610d72565b6004355f525f60205260405f209060018060a01b03165f52602052602060ff60405f2054166040519015158152f35b34610252576020366003190112610252576001600160a01b036106be610d5c565b165f526007602052602060405f2054604051908152f35b34610252575f366003190112610252576005546040516001600160a01b039091168152602090f35b3461025257602036600319011261025257610716610d5c565b61071e610e15565b6001600160a01b03168015610749576bffffffffffffffffffffffff60a01b60055416176005555f80f35b63fd0140ad60e01b5f5260045ffd5b3461025257604036600319011261025257610771610d72565b6004355f52600860205260405f209060018060a01b03165f52602052602060405f2054604051908152f35b34610252575f366003190112610252576020600454604051908152f35b34610252576060366003190112610252576004356107d5610d72565b6044356001600160a01b03811692919083900361025257335f9081527f3ce6b0df9de277ed98176c6c4b2171c647c4ed1aa972db3882392c5551761d87602052604090205460ff161561092d576001600160a01b03169081158015610925575b61074957805f52600660205260ff600160405f20015460a01c16610916576040516060810181811067ffffffffffffffff821117610902576040908152838252602080830186815260018484018181525f8781526006909452938320945185546001600160a01b0319166001600160a01b0391821617865591519401805493516001600160a81b0319909416949091169390931791151560a01b60ff60a01b16919091179091557f30e1415553627aaa36f9117b16307cc661ccbe74d89fbb40942907190b58a37e9080a4005b634e487b7160e01b5f52604160045260245ffd5b63160e631560e11b5f5260045ffd5b508215610835565b63e2517d3f60e01b5f52336004527f959ec338079b71742207829b3534c23a2ddd8bcc180652a0ea6677af748b5fed60245260445ffd5b346102525760603660031901126102525761097d610d5c565b610985610d72565b604435610990610fa4565b335f9081527fbb186cc6582165753931a58fdaac99b9482f9d63c76229808bd3afc382e98215602052604090205460ff1615610a61576001600160a01b0382169283156107495781158015610a41575b6102145781610a347f5124c8c76b0a0a279507d3203a2d70c3a342210c77ca0860372c0d4ad3670c9a9360209360018060a01b031695865f526007855260405f20610a2c838254610dd3565b905586610fc4565b604051908152a360018055005b506001600160a01b0381165f9081526007602052604090205482116109e0565b63e2517d3f60e01b5f52336004527fba279271fb7bbf76a6f3df3cc57bf80647fcafdea60ec3383d90f459de74e7c060245260445ffd5b34610252576020366003190112610252576004355f526006602052602060ff600160405f20015460a01c166040519015158152f35b3461025257606036600319011261025257604435602435600435610aef610e15565b612710610b00846105208585610db2565b03610b49577f7a91e3265b1469f01a44971ff760e073f1d8a3c0d9459bb619329319114c7a3e9260609282600255806003558160045560405192835260208301526040820152a1005b6310ecdaa560e21b5f5260045ffd5b34610252575f3660031901126102525760206040517f959ec338079b71742207829b3534c23a2ddd8bcc180652a0ea6677af748b5fed8152f35b3461025257602036600319011261025257600435805f52600660205260ff600160405f20015460a01c1615610460575f526006602052602060018060a01b03600160405f20015416604051908152f35b3461025257604036600319011261025257610bfb610d72565b336001600160a01b03821603610c17576102d090600435610f24565b63334bd91960e11b5f5260045ffd5b34610252575f366003190112610252576020600254604051908152f35b34610252576040366003190112610252576102d0600435610c62610d72565b90610c7b6102c6825f525f602052600160405f20015490565b610e9c565b34610252576020366003190112610252576020610caa6004355f525f602052600160405f20015490565b604051908152f35b34610252575f366003190112610252576020600354604051908152f35b34610252575f3660031901126102525760206040517fba279271fb7bbf76a6f3df3cc57bf80647fcafdea60ec3383d90f459de74e7c08152f35b34610252576020366003190112610252576004359063ffffffff60e01b821680920361025257602091637965db0b60e01b8114908115610d4b575b5015158152f35b6301ffc9a760e01b14905083610d44565b600435906001600160a01b038216820361025257565b602435906001600160a01b038216820361025257565b606090600319011261025257600435906024356001600160a01b0381168103610252579060443590565b91908201809211610dbf57565b634e487b7160e01b5f52601160045260245ffd5b91908203918211610dbf57565b90601f8019910116810190811067ffffffffffffffff82111761090257604052565b81810292918115918404141715610dbf57565b335f9081527fad3228b676f7d3cd4284a5443f17f1962b36e491b30a40b2405849e597ba5fb5602052604090205460ff1615610e4d57565b63e2517d3f60e01b5f52336004525f60245260445ffd5b5f8181526020818152604080832033845290915290205460ff1615610e865750565b63e2517d3f60e01b5f523360045260245260445ffd5b5f818152602081815260408083206001600160a01b038616845290915290205460ff16610f1e575f818152602081815260408083206001600160a01b0395909516808452949091528120805460ff19166001179055339291907f2f8788117e7eff1d82e926ec794901d17c78024a50270940304540a733656f0d9080a4600190565b50505f90565b5f818152602081815260408083206001600160a01b038616845290915290205460ff1615610f1e575f818152602081815260408083206001600160a01b0395909516808452949091528120805460ff19169055339291907ff6391f5c32d9c69d2a47ea670b442974b53935d1edc7fd64eb21e047a839171b9080a4600190565b600260015414610fb5576002600155565b633ee5aeb560e01b5f5260045ffd5b60405163a9059cbb60e01b60208201526001600160a01b03909216602483015260448083019390935291815261100491610fff606483610de0565b611006565b565b905f602091828151910182855af11561105e575f513d61105557506001600160a01b0381163b155b6110355750565b635274afe760e01b5f9081526001600160a01b0391909116600452602490fd5b6001141561102e565b6040513d5f823e3d90fdfea2646970667358221220e149d45cd6d8486a8c1beaafde2ba5df25b8e744c2a6ebd3de6cb90e22bc935264736f6c634300081e00332f8788117e7eff1d82e926ec794901d17c78024a50270940304540a733656f0d3ce6b0df9de277ed98176c6c4b2171c647c4ed1aa972db3882392c5551761d87bb186cc6582165753931a58fdaac99b9482f9d63c76229808bd3afc382e98215ad3228b676f7d3cd4284a5443f17f1962b36e491b30a40b2405849e597ba5fb5","linkReferences":{}},"methodIdentifiers":{"DEFAULT_ADMIN_ROLE()":"a217fddf","MARKET_MANAGER_ROLE()":"3ade20db","PROTOCOL_ROLE()":"02768de4","collect(uint256,address,uint256)":"9e82124e","creatorBalances(uint256,address)":"78e3d3ea","creatorFeeBps()":"17773ebb","getCreatorBalance(uint256,address)":"37fba9c0","getMarketCreator(uint256)":"36ad8a7a","getMarketTotalFees(uint256,address)":"67dc049a","getOracleBalance(address)":"734bdc0b","getProtocolBalance(address)":"287c9999","getRoleAdmin(bytes32)":"248a9ca3","grantRole(bytes32,address)":"2f2ff15d","hasRole(bytes32,address)":"91d14854","isMarketRegistered(uint256)":"46d881a7","marketTotalFees(uint256,address)":"b25f3bde","markets(uint256)":"b1283e77","oracle()":"7dc0d1d0","oracleBalances(address)":"e65946a2","oracleFeeBps()":"5c76fda7","protocolBalances(address)":"8cda1e32","protocolFeeBps()":"35659fb8","registerMarket(uint256,address,address)":"5538adb7","renounceRole(bytes32,address)":"36568abe","revokeRole(bytes32,address)":"d547741f","setOracle(address)":"7adbf973","supportsInterface(bytes4)":"01ffc9a7","updateFeeSplit(uint256,uint256,uint256)":"3f845689","withdrawCreator(uint256,address,uint256)":"a2a75f06","withdrawOracle(address,uint256)":"fc9034ac","withdrawProtocol(address,address,uint256)":"513de581"},"id":6}