{"abi":[{"type":"constructor","inputs":[{"name":"marketId_","type":"uint256","internalType":"uint256"},{"name":"outcomeCount_","type":"uint8","internalType":"uint8"},{"name":"liquidityBRaw","type":"uint256","internalType":"uint256"},{"name":"feeRaw","type":"uint256","internalType":"uint256"},{"name":"collateral_","type":"address","internalType":"address"},{"name":"outcomeToken_","type":"address","internalType":"address"},{"name":"tradingEndsAt_","type":"uint64","internalType":"uint64"},{"name":"oracle_","type":"address","internalType":"address"},{"name":"treasury_","type":"address","internalType":"address"}],"stateMutability":"nonpayable"},{"type":"function","name":"DEFAULT_ADMIN_ROLE","inputs":[],"outputs":[{"name":"","type":"bytes32","internalType":"bytes32"}],"stateMutability":"view"},{"type":"function","name":"TREASURY_ROLE","inputs":[],"outputs":[{"name":"","type":"bytes32","internalType":"bytes32"}],"stateMutability":"view"},{"type":"function","name":"availableCollateral","inputs":[],"outputs":[{"name":"","type":"uint256","internalType":"uint256"}],"stateMutability":"view"},{"type":"function","name":"availableCollateralAtFinalization","inputs":[],"outputs":[{"name":"","type":"uint256","internalType":"uint256"}],"stateMutability":"view"},{"type":"function","name":"buy","inputs":[{"name":"outcomeId","type":"uint8","internalType":"uint8"},{"name":"deltaSharesRaw","type":"uint256","internalType":"uint256"}],"outputs":[{"name":"totalPaid","type":"uint256","internalType":"uint256"}],"stateMutability":"nonpayable"},{"type":"function","name":"collateral","inputs":[],"outputs":[{"name":"","type":"address","internalType":"contract IERC20"}],"stateMutability":"view"},{"type":"function","name":"collateralDecimals","inputs":[],"outputs":[{"name":"","type":"uint8","internalType":"uint8"}],"stateMutability":"view"},{"type":"function","name":"feeReserve","inputs":[],"outputs":[{"name":"","type":"uint256","internalType":"uint256"}],"stateMutability":"view"},{"type":"function","name":"finalize","inputs":[{"name":"winning","type":"uint8","internalType":"uint8"},{"name":"invalid_","type":"bool","internalType":"bool"}],"outputs":[],"stateMutability":"nonpayable"},{"type":"function","name":"fundMarket","inputs":[{"name":"amount","type":"uint256","internalType":"uint256"}],"outputs":[],"stateMutability":"nonpayable"},{"type":"function","name":"getCostFunction","inputs":[],"outputs":[{"name":"","type":"uint256","internalType":"uint256"}],"stateMutability":"view"},{"type":"function","name":"getPrice","inputs":[{"name":"outcomeId","type":"uint8","internalType":"uint8"}],"outputs":[{"name":"","type":"uint256","internalType":"uint256"}],"stateMutability":"view"},{"type":"function","name":"getRoleAdmin","inputs":[{"name":"role","type":"bytes32","internalType":"bytes32"}],"outputs":[{"name":"","type":"bytes32","internalType":"bytes32"}],"stateMutability":"view"},{"type":"function","name":"getTotalVolume","inputs":[],"outputs":[{"name":"","type":"uint256","internalType":"uint256"}],"stateMutability":"view"},{"type":"function","name":"grantRole","inputs":[{"name":"role","type":"bytes32","internalType":"bytes32"},{"name":"account","type":"address","internalType":"address"}],"outputs":[],"stateMutability":"nonpayable"},{"type":"function","name":"hasRole","inputs":[{"name":"role","type":"bytes32","internalType":"bytes32"},{"name":"account","type":"address","internalType":"address"}],"outputs":[{"name":"","type":"bool","internalType":"bool"}],"stateMutability":"view"},{"type":"function","name":"invalid","inputs":[],"outputs":[{"name":"","type":"bool","internalType":"bool"}],"stateMutability":"view"},{"type":"function","name":"liquidityB","inputs":[],"outputs":[{"name":"","type":"uint256","internalType":"UD60x18"}],"stateMutability":"view"},{"type":"function","name":"marketId","inputs":[],"outputs":[{"name":"","type":"uint256","internalType":"uint256"}],"stateMutability":"view"},{"type":"function","name":"oracle","inputs":[],"outputs":[{"name":"","type":"address","internalType":"address"}],"stateMutability":"view"},{"type":"function","name":"outcomeCount","inputs":[],"outputs":[{"name":"","type":"uint8","internalType":"uint8"}],"stateMutability":"view"},{"type":"function","name":"outcomeToken","inputs":[],"outputs":[{"name":"","type":"address","internalType":"contract Outcome1155"}],"stateMutability":"view"},{"type":"function","name":"outstandingShares","inputs":[{"name":"outcomeId","type":"uint8","internalType":"uint8"}],"outputs":[{"name":"","type":"uint256","internalType":"uint256"}],"stateMutability":"view"},{"type":"function","name":"pauseTrading","inputs":[{"name":"pause","type":"bool","internalType":"bool"}],"outputs":[],"stateMutability":"nonpayable"},{"type":"function","name":"previewBuy","inputs":[{"name":"outcomeId","type":"uint8","internalType":"uint8"},{"name":"deltaSharesRaw","type":"uint256","internalType":"uint256"}],"outputs":[{"name":"costRaw","type":"uint256","internalType":"uint256"},{"name":"feeRaw","type":"uint256","internalType":"uint256"},{"name":"totalRaw","type":"uint256","internalType":"uint256"}],"stateMutability":"view"},{"type":"function","name":"previewSell","inputs":[{"name":"outcomeId","type":"uint8","internalType":"uint8"},{"name":"deltaSharesRaw","type":"uint256","internalType":"uint256"}],"outputs":[{"name":"grossRaw","type":"uint256","internalType":"uint256"},{"name":"feeRaw","type":"uint256","internalType":"uint256"},{"name":"netRaw","type":"uint256","internalType":"uint256"}],"stateMutability":"view"},{"type":"function","name":"redeem","inputs":[{"name":"outcomeId","type":"uint8","internalType":"uint8"},{"name":"amount","type":"uint256","internalType":"uint256"}],"outputs":[{"name":"payout","type":"uint256","internalType":"uint256"}],"stateMutability":"nonpayable"},{"type":"function","name":"renounceRole","inputs":[{"name":"role","type":"bytes32","internalType":"bytes32"},{"name":"callerConfirmation","type":"address","internalType":"address"}],"outputs":[],"stateMutability":"nonpayable"},{"type":"function","name":"requestResolve","inputs":[],"outputs":[],"stateMutability":"nonpayable"},{"type":"function","name":"revokeRole","inputs":[{"name":"role","type":"bytes32","internalType":"bytes32"},{"name":"account","type":"address","internalType":"address"}],"outputs":[],"stateMutability":"nonpayable"},{"type":"function","name":"sell","inputs":[{"name":"outcomeId","type":"uint8","internalType":"uint8"},{"name":"deltaSharesRaw","type":"uint256","internalType":"uint256"}],"outputs":[{"name":"netPayout","type":"uint256","internalType":"uint256"}],"stateMutability":"nonpayable"},{"type":"function","name":"setFee","inputs":[{"name":"newFeeRaw","type":"uint256","internalType":"uint256"}],"outputs":[],"stateMutability":"nonpayable"},{"type":"function","name":"state","inputs":[],"outputs":[{"name":"","type":"uint8","internalType":"enum LMSRMarket.MarketState"}],"stateMutability":"view"},{"type":"function","name":"supportsInterface","inputs":[{"name":"interfaceId","type":"bytes4","internalType":"bytes4"}],"outputs":[{"name":"","type":"bool","internalType":"bool"}],"stateMutability":"view"},{"type":"function","name":"sweepFeesToTreasury","inputs":[{"name":"amount","type":"uint256","internalType":"uint256"}],"outputs":[],"stateMutability":"nonpayable"},{"type":"function","name":"totalSharesAtFinalization","inputs":[],"outputs":[{"name":"","type":"uint256","internalType":"uint256"}],"stateMutability":"view"},{"type":"function","name":"totalVolume","inputs":[],"outputs":[{"name":"","type":"uint256","internalType":"uint256"}],"stateMutability":"view"},{"type":"function","name":"tradeFee","inputs":[],"outputs":[{"name":"","type":"uint256","internalType":"UD60x18"}],"stateMutability":"view"},{"type":"function","name":"tradingEndsAt","inputs":[],"outputs":[{"name":"","type":"uint64","internalType":"uint64"}],"stateMutability":"view"},{"type":"function","name":"tradingPaused","inputs":[],"outputs":[{"name":"","type":"bool","internalType":"bool"}],"stateMutability":"view"},{"type":"function","name":"treasury","inputs":[],"outputs":[{"name":"","type":"address","internalType":"address"}],"stateMutability":"view"},{"type":"function","name":"winningOutcome","inputs":[],"outputs":[{"name":"","type":"uint8","internalType":"uint8"}],"stateMutability":"view"},{"type":"function","name":"withdrawFees","inputs":[{"name":"receiver","type":"address","internalType":"address"},{"name":"amount","type":"uint256","internalType":"uint256"}],"outputs":[],"stateMutability":"nonpayable"},{"type":"event","name":"Buy","inputs":[{"name":"trader","type":"address","indexed":true,"internalType":"address"},{"name":"outcome","type":"uint8","indexed":true,"internalType":"uint8"},{"name":"shares","type":"uint256","indexed":false,"internalType":"uint256"},{"name":"cost","type":"uint256","indexed":false,"internalType":"uint256"},{"name":"fee","type":"uint256","indexed":false,"internalType":"uint256"}],"anonymous":false},{"type":"event","name":"FeeSwept","inputs":[{"name":"marketId","type":"uint256","indexed":true,"internalType":"uint256"},{"name":"amount","type":"uint256","indexed":false,"internalType":"uint256"},{"name":"treasury","type":"address","indexed":true,"internalType":"address"}],"anonymous":false},{"type":"event","name":"FeeUpdated","inputs":[{"name":"previousFee","type":"uint256","indexed":false,"internalType":"uint256"},{"name":"newFee","type":"uint256","indexed":false,"internalType":"uint256"}],"anonymous":false},{"type":"event","name":"FeeWithdrawn","inputs":[{"name":"receiver","type":"address","indexed":true,"internalType":"address"},{"name":"amount","type":"uint256","indexed":false,"internalType":"uint256"}],"anonymous":false},{"type":"event","name":"MarketFinalized","inputs":[{"name":"marketId","type":"uint256","indexed":true,"internalType":"uint256"},{"name":"winningOutcome","type":"uint8","indexed":false,"internalType":"uint8"},{"name":"invalid","type":"bool","indexed":false,"internalType":"bool"}],"anonymous":false},{"type":"event","name":"MarketFunded","inputs":[{"name":"funder","type":"address","indexed":true,"internalType":"address"},{"name":"amount","type":"uint256","indexed":false,"internalType":"uint256"}],"anonymous":false},{"type":"event","name":"Redeemed","inputs":[{"name":"user","type":"address","indexed":true,"internalType":"address"},{"name":"outcome","type":"uint8","indexed":true,"internalType":"uint8"},{"name":"shares","type":"uint256","indexed":false,"internalType":"uint256"},{"name":"payout","type":"uint256","indexed":false,"internalType":"uint256"}],"anonymous":false},{"type":"event","name":"ResolutionRequested","inputs":[{"name":"marketId","type":"uint256","indexed":true,"internalType":"uint256"},{"name":"timestamp","type":"uint64","indexed":false,"internalType":"uint64"}],"anonymous":false},{"type":"event","name":"Resolved","inputs":[{"name":"winningOutcome","type":"uint8","indexed":true,"internalType":"uint8"},{"name":"invalid","type":"bool","indexed":false,"internalType":"bool"}],"anonymous":false},{"type":"event","name":"RoleAdminChanged","inputs":[{"name":"role","type":"bytes32","indexed":true,"internalType":"bytes32"},{"name":"previousAdminRole","type":"bytes32","indexed":true,"internalType":"bytes32"},{"name":"newAdminRole","type":"bytes32","indexed":true,"internalType":"bytes32"}],"anonymous":false},{"type":"event","name":"RoleGranted","inputs":[{"name":"role","type":"bytes32","indexed":true,"internalType":"bytes32"},{"name":"account","type":"address","indexed":true,"internalType":"address"},{"name":"sender","type":"address","indexed":true,"internalType":"address"}],"anonymous":false},{"type":"event","name":"RoleRevoked","inputs":[{"name":"role","type":"bytes32","indexed":true,"internalType":"bytes32"},{"name":"account","type":"address","indexed":true,"internalType":"address"},{"name":"sender","type":"address","indexed":true,"internalType":"address"}],"anonymous":false},{"type":"event","name":"Sell","inputs":[{"name":"trader","type":"address","indexed":true,"internalType":"address"},{"name":"outcome","type":"uint8","indexed":true,"internalType":"uint8"},{"name":"shares","type":"uint256","indexed":false,"internalType":"uint256"},{"name":"payout","type":"uint256","indexed":false,"internalType":"uint256"},{"name":"fee","type":"uint256","indexed":false,"internalType":"uint256"}],"anonymous":false},{"type":"event","name":"TradingPaused","inputs":[{"name":"status","type":"bool","indexed":false,"internalType":"bool"}],"anonymous":false},{"type":"error","name":"AccessControlBadConfirmation","inputs":[]},{"type":"error","name":"AccessControlUnauthorizedAccount","inputs":[{"name":"account","type":"address","internalType":"address"},{"name":"neededRole","type":"bytes32","internalType":"bytes32"}]},{"type":"error","name":"LMSR_ExponentialInputTooLarge","inputs":[]},{"type":"error","name":"LMSR_FeeTooHigh","inputs":[{"name":"feeRaw","type":"uint256","internalType":"uint256"}]},{"type":"error","name":"LMSR_InsufficientCollateral","inputs":[{"name":"available","type":"uint256","internalType":"uint256"},{"name":"required","type":"uint256","internalType":"uint256"}]},{"type":"error","name":"LMSR_InsufficientFees","inputs":[]},{"type":"error","name":"LMSR_InsufficientMarketShares","inputs":[{"name":"available","type":"uint256","internalType":"uint256"},{"name":"requested","type":"uint256","internalType":"uint256"}]},{"type":"error","name":"LMSR_InsufficientUserShares","inputs":[{"name":"balance","type":"uint256","internalType":"uint256"},{"name":"requested","type":"uint256","internalType":"uint256"}]},{"type":"error","name":"LMSR_InvalidAddress","inputs":[]},{"type":"error","name":"LMSR_InvalidAmount","inputs":[]},{"type":"error","name":"LMSR_InvalidOutcome","inputs":[{"name":"outcomeId","type":"uint8","internalType":"uint8"}]},{"type":"error","name":"LMSR_InvalidOutcomeCount","inputs":[{"name":"count","type":"uint8","internalType":"uint8"}]},{"type":"error","name":"LMSR_InvariantCostDecrease","inputs":[]},{"type":"error","name":"LMSR_InvariantCostIncrease","inputs":[]},{"type":"error","name":"LMSR_LiquidityParameterZero","inputs":[]},{"type":"error","name":"LMSR_MarketNotFinalized","inputs":[]},{"type":"error","name":"LMSR_NetPayoutZero","inputs":[]},{"type":"error","name":"LMSR_NoShares","inputs":[]},{"type":"error","name":"LMSR_NotWinner","inputs":[]},{"type":"error","name":"LMSR_OnlyOracle","inputs":[]},{"type":"error","name":"LMSR_TradeCostZero","inputs":[]},{"type":"error","name":"LMSR_TradingEnded","inputs":[]},{"type":"error","name":"LMSR_TradingNotEndedYet","inputs":[]},{"type":"error","name":"LMSR_TradingPaused","inputs":[]},{"type":"error","name":"LMSR_WrongState","inputs":[]},{"type":"error","name":"PRBMath_MulDiv18_Overflow","inputs":[{"name":"x","type":"uint256","internalType":"uint256"},{"name":"y","type":"uint256","internalType":"uint256"}]},{"type":"error","name":"PRBMath_MulDiv_Overflow","inputs":[{"name":"x","type":"uint256","internalType":"uint256"},{"name":"y","type":"uint256","internalType":"uint256"},{"name":"denominator","type":"uint256","internalType":"uint256"}]},{"type":"error","name":"PRBMath_UD60x18_Exp2_InputTooBig","inputs":[{"name":"x","type":"uint256","internalType":"UD60x18"}]},{"type":"error","name":"PRBMath_UD60x18_Exp_InputTooBig","inputs":[{"name":"x","type":"uint256","internalType":"UD60x18"}]},{"type":"error","name":"PRBMath_UD60x18_Log_InputTooSmall","inputs":[{"name":"x","type":"uint256","internalType":"UD60x18"}]},{"type":"error","name":"ReentrancyGuardReentrantCall","inputs":[]},{"type":"error","name":"SafeERC20FailedOperation","inputs":[{"name":"token","type":"address","internalType":"address"}]}],"bytecode":{"object":"0x6101a080604052346103b857610120816133b880380380916100218285610450565b8339810103126103b85780519061003a60208201610473565b90604081015192606082015161005260808401610481565b9461005f60a08501610481565b60c0850151909590936001600160401b03851685036103b85761009161010061008a60e08901610481565b9701610481565b966001805560ff83169860028a108015610446575b610433578415610424576001600160a01b031680158015610413575b8015610402575b80156103f1575b6103e25767016345785d8a000086116103cf5760206004916100f1336104ac565b506100fb33610522565b50806080526040519283809263313ce56760e01b82525afa9081156103c4575f91610386575b5060a0526001600160a01b031660c05260e05261010052610120526006556101405261016052610180526003805460ff1916905561017761016182610495565b9161016f6040519384610450565b808352610495565b602082019190601f190136833751906001600160401b03821161037257680100000000000000008211610372576009548260095580831061032e575b509060095f5260205f20915f5b82811061031a57604051612da290816105b68239608051818181610719015281816108cf01528181610cb601528181610f0301528181611013015281816113b0015281816116060152611ca8015260a05181818161043101526128e8015260c05181818161058f01528181610ba101528181611160015261166f015260e0518181816103030152818161055401528181610b68015281816110560152818161124a0152818161148d01526116b3015261010051818181610331015281816103b5015281816104c90152818161092101528181610a2101528181610b14015281816115540152818161187e015281816118fd0152611a59015261012051818181611af801528181611f7401526129620152610140518181816104760152818161050e015281816111e2015261159901526101605181818161022a0152818161126e0152611428015261018051818181610fdb01526117e70152f35b6001906020835193019281860155016101c0565b60095f527f6e1540171b6c0c960b71a7020d9f60077f6af931a8bbf590da0223dacf75c7af9081019083015b81811061036757506101b3565b5f815560010161035a565b634e487b7160e01b5f52604160045260245ffd5b90506020813d6020116103bc575b816103a160209383610450565b810103126103b8576103b290610473565b5f610121565b5f80fd5b3d9150610394565b6040513d5f823e3d90fd5b8563a4e4d77160e01b5f5260045260245ffd5b63d072110560e01b5f5260045ffd5b506001600160a01b038916156100d0565b506001600160a01b038816156100c9565b506001600160a01b038216156100c2565b638e0697d360e01b5f5260045ffd5b89633087512f60e21b5f5260045260245ffd5b50600a8a116100a6565b601f909101601f19168101906001600160401b0382119082101761037257604052565b519060ff821682036103b857565b51906001600160a01b03821682036103b857565b6001600160401b0381116103725760051b60200190565b6001600160a01b0381165f9081525f5160206133985f395f51905f52602052604090205460ff1661051d576001600160a01b03165f8181525f5160206133985f395f51905f5260205260408120805460ff191660011790553391905f5160206133585f395f51905f528180a4600190565b505f90565b6001600160a01b0381165f9081525f5160206133785f395f51905f52602052604090205460ff1661051d576001600160a01b03165f8181525f5160206133785f395f51905f5260205260408120805460ff191660011790553391907fe1dcbdb91df27212a29bc27177c840cf2f819ecf2187432e1fac86c2dd5dfca9905f5160206133585f395f51905f529080a460019056fe6080806040526004361015610012575f80fd5b5f905f3560e01c90816301ffc9a714611b525750806306de930e14611b355780630b9d98e9146118405780631a63dfe014611b1b57806324731cff14611ae1578063248a9ca314611ab757806324bcdfbd14611a9a578063288b212f14611a385780632f2ff15d146119fb57806336568abe146119b5578063365ec5e51461195357806337f1e7f2146118dd57806353e23e2e146118bb5780635e5738041461185d5780635f81a57c146118405780635fe054e61461181657806361d027b3146117d257806362f791c01461152857806369fe0e2d146114b05780636ed71ede14611475578063789ff0e1146114575780637dc0d1d01461141257806390a4ccf71461138557806391d148541461133c5780639b34ae0314611318578063a0dfb902146111ab578063a217fddf1461118f578063a998d6d81461114a578063ab45370714610f91578063ad3b1b4714610e4b578063bb482f9614610ae6578063bde9e40e14610ac0578063c19d93fb14610a80578063d11a57ec14610a45578063d300cb3114610a07578063d43f8cca146109e9578063d547741f146109a2578063d72e818d146108fe578063d8dfeb45146108b9578063d9515e0b1461049a578063dc4bac2014610455578063ec9c6c30146104175763fdf21f84146101f7575f80fd5b3461041457604036600319011261041457610210611ba5565b60243580159081159182820361041257610228612986565b7f00000000000000000000000000000000000000000000000000000000000000006001600160a01b031633036104035760ff6003541660038110156103ef576001036103e057806103b0575b61039a576003805462ffffff1916600885901b61ff001617601084901b62ff00001617600217905560ff929092169161032b575b817fbade5c284f0a38a7780a6182d21070659f59e04dc0cbef2c49767c0647df4ef16020604051848152a260405191825260208201527f85b170884be76a0add832e558e917cd38e321c9a134222ca90c62e5d25e8051360407f000000000000000000000000000000000000000000000000000000000000000092a26001805580f35b828360ff7f0000000000000000000000000000000000000000000000000000000000000000165b8060ff831610610371575050600455610369611c8d565b6005556102a8565b9091600161039160ff9261038486611bcb565b90549060031b1c90611c0b565b93011690610352565b636c05cdb160e01b845260ff8316600452602484fd5b5060ff7f00000000000000000000000000000000000000000000000000000000000000001660ff84161015610274565b6352ed47f960e01b8552600485fd5b634e487b7160e01b86526021600452602486fd5b6374fe2f6b60e01b8552600485fd5b845b80fd5b5034610414578060031936011261041457602060405160ff7f0000000000000000000000000000000000000000000000000000000000000000168152f35b5034610414578060031936011261041457602060405167ffffffffffffffff7f0000000000000000000000000000000000000000000000000000000000000000168152f35b5034610414576040366003190112610414576104b4611ba5565b906024356104c0612986565b60ff83169060ff7f0000000000000000000000000000000000000000000000000000000000000000168210156108a55760ff600354166003811015610891576108825767ffffffffffffffff7f0000000000000000000000000000000000000000000000000000000000000000164210156108735760ff600854166108645780156108555760405163713bb33960e11b81527f00000000000000000000000000000000000000000000000000000000000000006004820181905260ff8616602483015293906001600160a01b037f00000000000000000000000000000000000000000000000000000000000000001690602081604481855afa908115610817578391610822575b50604051627eeac760e11b81523360048201526024810191909152602081604481855afa9081156108175783916107e1575b508381106107ca575061060b86611bcb565b90549060031b1c8084116107b357506106248387612a2d565b80989250156107a45761063961063f916128e4565b976128e4565b95610648611c8d565b87811061078d575061065c88600754611c0b565b60075561069c61067b8661066f85611bcb565b90549060031b1c611c62565b61068484611bcb565b90919082549060031b91821b915f19901b1916179055565b823b156107895760405163766f3cd360e11b8152336004820152602481019190915260ff919091166044820152606481018490529082908290608490829084905af1801561077e57610769575b50507fbccc64d1e1249878358bdb2025e5d01726533249b0c0c0add15ee627fd6a536361075a60209561073d86337f00000000000000000000000000000000000000000000000000000000000000006129f1565b604080519485526020850187905284015233929081906060820190565b0390a360018055604051908152f35b610774828092611c2c565b61041457806106e9565b6040513d84823e3d90fd5b8380fd5b6329c1c9e760e21b85526004526024879052604484fd5b632144a5c360e11b8452600484fd5b6044939150632a761add60e21b8352600452602452fd5b6044939150630a0825c160e11b8352600452602452fd5b90506020813d60201161080f575b816107fc60209383611c2c565b8101031261080b57515f6105f9565b5f80fd5b3d91506107ef565b6040513d85823e3d90fd5b90506020813d60201161084d575b8161083d60209383611c2c565b8101031261080b575160206105c7565b3d9150610830565b632395cb2960e11b8352600483fd5b63125b80a560e31b8352600483fd5b632393526360e21b8352600483fd5b6352ed47f960e01b8352600483fd5b634e487b7160e01b84526021600452602484fd5b636c05cdb160e01b83526004829052602483fd5b50346104145780600319360112610414576040517f00000000000000000000000000000000000000000000000000000000000000006001600160a01b03168152602090f35b503461041457604036600319011261041457610918611ba5565b9060ff821660ff7f00000000000000000000000000000000000000000000000000000000000000001681101561098f576109688061098b61096e61095e60243588612a2d565b95919490946128e4565b936128e4565b604051938493846040919493926060820195825260208201520152565b0390f35b636c05cdb160e01b825260045260249150fd5b5034610414576040366003190112610414576109e56004356109c2611bb5565b906109e06109db825f525f602052600160405f20015490565b611d7f565b611e39565b5080f35b50346104145780600319360112610414576020600454604051908152f35b5034610414578060031936011261041457602060405160ff7f0000000000000000000000000000000000000000000000000000000000000000168152f35b503461041457806003193601126104145760206040517fe1dcbdb91df27212a29bc27177c840cf2f819ecf2187432e1fac86c2dd5dfca98152f35b503461041457806003193601126104145760ff60035416604051906003811015610aac57602092508152f35b634e487b7160e01b83526021600452602483fd5b5034610414578060031936011261041457602060ff60035460101c166040519015158152f35b503461041457604036600319011261041457610b00611ba5565b602435610b0b612986565b60ff82169060ff7f000000000000000000000000000000000000000000000000000000000000000016821015610e37576003549260ff841660038110156103ef57600203610e28578115610e195760405163713bb33960e11b81527f00000000000000000000000000000000000000000000000000000000000000006004820181905260ff831660248301526001600160a01b037f0000000000000000000000000000000000000000000000000000000000000000169590916020816044818a5afa908115610ddb578891610de6575b50604051627eeac760e11b815233600482015260248101919091526020816044818a5afa8015610ddb5785918991610da6575b5010610d755760ff8160101c165f14610d8457506004548015610d75576005548085029085820403610d615790610c4491611c6f565b945b8515610d5257610c54611c8d565b868110610d3b5750908187923b15610d375760405163766f3cd360e11b8152336004820152602481019290925260ff93909316604482015260648101849052918290608490829084905af18015610d2c57610d17575b5060209350610cda83337f00000000000000000000000000000000000000000000000000000000000000006129f1565b60405190815282848201527ff8b564b1b7f5bb9fea632ddf0036474f68d8cec99f4b2e96a29be779871e059a60403392a360018055604051908152f35b610d22858092611c2c565b6107895783610caa565b6040513d87823e3d90fd5b8280fd5b6329c1c9e760e21b88526004526024869052604487fd5b632395cb2960e11b8752600487fd5b634e487b7160e01b88526011600452602488fd5b633f8edfd360e01b8752600487fd5b60081c60ff168403610d97578294610c46565b631d56808760e21b8652600486fd5b9150506020813d602011610dd3575b81610dc260209383611c2c565b8101031261080b578490515f610c0e565b3d9150610db5565b6040513d8a823e3d90fd5b90506020813d602011610e11575b81610e0160209383611c2c565b8101031261080b57516020610bdb565b3d9150610df4565b632395cb2960e11b8552600485fd5b6364c0652f60e01b8552600485fd5b636c05cdb160e01b84526004829052602484fd5b5034610414576040366003190112610414576004356001600160a01b03811690818103610d37577fe1dcbdb91df27212a29bc27177c840cf2f819ecf2187432e1fac86c2dd5dfca9835260208381526040808520335f9081529252902054602435919060ff1615610f5a578215610f4b5781158015610f40575b610f315781610f2781602093610efe7f78473f3f373f7673597f4f0fa5873cb4d375fea6d4339ad6b56dbd411513cb3f96600754611c62565b6007557f00000000000000000000000000000000000000000000000000000000000000006129f1565b604051908152a280f35b632395cb2960e11b8452600484fd5b506007548211610ec5565b63d072110560e01b8452600484fd5b63e2517d3f60e01b8452336004527fe1dcbdb91df27212a29bc27177c840cf2f819ecf2187432e1fac86c2dd5dfca9602452604484fd5b503461041457602036600319011261041457600435610fae611d30565b8015611141575b6007548082116111325781610fc991611c62565b60075560405163095ea7b360e01b81527f00000000000000000000000000000000000000000000000000000000000000006001600160a01b038181166004840152602483018490527f0000000000000000000000000000000000000000000000000000000000000000169160208160448188875af18015610d2c576110fb575b506001600160a01b0316917f0000000000000000000000000000000000000000000000000000000000000000918490843b156110f75760405190634f41092760e11b82528460048301526024820152826044820152818160648183895af1801561077e576110e2575b505060207fa31f8ec32c1fbd0d52594b1216f997678defc4b51c70662f7d0b605a4163c6d691604051908152a380f35b816110ec91611c2c565b61078957835f6110b2565b5080fd5b6020813d60201161112a575b8161111460209383611c2c565b8101031261041257518015158114611049578480fd5b3d9150611107565b639c94decd60e01b8352600483fd5b50600754610fb5565b50346104145780600319360112610414576040517f00000000000000000000000000000000000000000000000000000000000000006001600160a01b03168152602090f35b5034610414578060031936011261041457602090604051908152f35b50346104145780600319360112610414576111c4612986565b60ff600354166003811015611304576112f55767ffffffffffffffff7f00000000000000000000000000000000000000000000000000000000000000001642106112e657600160ff19600354161760035560405167ffffffffffffffff421681527f2a259b403798b7a9a5b137fc7686b23e7f611ba04b089c58a1f876f03f43b92a60207f000000000000000000000000000000000000000000000000000000000000000092a2807f00000000000000000000000000000000000000000000000000000000000000006001600160a01b0316803b156112e35781809160246040518094819363f5ec303b60e01b83523060048401525af1801561077e576112ce575b506001805580f35b816112d891611c2c565b61041457805f6112c6565b50fd5b63229803d960e01b8152600490fd5b6352ed47f960e01b8152600490fd5b634e487b7160e01b82526021600452602482fd5b5034610414578060031936011261041457602060ff60035460081c16604051908152f35b5034610414576040366003190112610414576040611358611bb5565b91600435815280602052209060018060a01b03165f52602052602060ff60405f2054166040519015158152f35b5034610414576020366003190112610414576004356113a2611d30565b8015611403576113d48130337f00000000000000000000000000000000000000000000000000000000000000006129a6565b6040519081527fedaf24f11c26659e1b8b626d6a5e8f72aa1935fa8e9f69fe207d0f7477b1353560203392a280f35b632395cb2960e11b8252600482fd5b50346104145780600319360112610414576040517f00000000000000000000000000000000000000000000000000000000000000006001600160a01b03168152602090f35b50346104145780600319360112610414576020600754604051908152f35b503461041457806003193601126104145760206040517f00000000000000000000000000000000000000000000000000000000000000008152f35b5034610414576020366003190112610414576004356114cd611d30565b67016345785d8a000081116115165760407f528d9479e9f9889a87a3c30c7f7ba537e5e59c4c85a37733b16e57c62df6130291600654908060065582519182526020820152a180f35b63a4e4d77160e01b8252600452602490fd5b3461080b57604036600319011261080b57611541611ba5565b60243561154c612986565b60ff821660ff7f0000000000000000000000000000000000000000000000000000000000000000168110156117c05760ff6003541660038110156117ac5761179d5767ffffffffffffffff7f00000000000000000000000000000000000000000000000000000000000000001642101561178e5760ff6008541661177f578115611770576115da828461286d565b93918015611761576115f76115f16115fd926128e4565b926128e4565b946128e4565b9361162a8530337f00000000000000000000000000000000000000000000000000000000000000006129a6565b61163681600754611c0b565b60075561164585600254611c0b565b60025561166d6116648461165889611bcb565b90549060031b1c611c0b565b61068488611bcb565b7f00000000000000000000000000000000000000000000000000000000000000006001600160a01b0316803b1561080b576040516328dc770160e01b81523360048201527f0000000000000000000000000000000000000000000000000000000000000000602482015260ff979097166044880152606487018490525f908790608490829084905af1918215611756576020967fe8f58e3faf4cfb9e9f5bb8a5bb97dc5c362e97b4665aec0f218f17c3c44a5b6e93611746575b506040805194855260208501919091528301523391806060810161075a565b5f61175091611c2c565b5f611727565b6040513d5f823e3d90fd5b630e29256760e41b5f5260045ffd5b632395cb2960e11b5f5260045ffd5b63125b80a560e31b5f5260045ffd5b632393526360e21b5f5260045ffd5b6352ed47f960e01b5f5260045ffd5b634e487b7160e01b5f52602160045260245ffd5b636c05cdb160e01b5f5260045260245ffd5b3461080b575f36600319011261080b576040517f00000000000000000000000000000000000000000000000000000000000000006001600160a01b03168152602090f35b3461080b575f36600319011261080b576020611838611833611ed1565b612938565b604051908152f35b3461080b575f36600319011261080b576020600254604051908152f35b3461080b57604036600319011261080b57611876611ba5565b60ff811660ff7f0000000000000000000000000000000000000000000000000000000000000000168110156117c0576109688061098b61096e61095e6024358761286d565b3461080b575f36600319011261080b57602060ff600854166040519015158152f35b3461080b57602036600319011261080b5760ff6118f8611ba5565b1660ff7f0000000000000000000000000000000000000000000000000000000000000000168110156117c05761183860209161194e611948611938611ed1565b9261194284611f35565b93611bf7565b51611f6e565b612abf565b3461080b57602036600319011261080b5760043580151580910361080b5760207f64891834b8201e4fdeda37096a5f1c16360f209047b1e9a93839cc5bbbb763bd9161199d611d30565b60ff196008541660ff821617600855604051908152a1005b3461080b57604036600319011261080b576119ce611bb5565b336001600160a01b038216036119ec576119ea90600435611e39565b005b63334bd91960e11b5f5260045ffd5b3461080b57604036600319011261080b576119ea600435611a1a611bb5565b90611a336109db825f525f602052600160405f20015490565b611db7565b3461080b57602036600319011261080b57611a51611ba5565b60ff811660ff7f0000000000000000000000000000000000000000000000000000000000000000168110156117c0576020611a8b83611bcb565b90549060031b1c604051908152f35b3461080b575f36600319011261080b576020600654604051908152f35b3461080b57602036600319011261080b5760206118386004355f525f602052600160405f20015490565b3461080b575f36600319011261080b5760206040517f00000000000000000000000000000000000000000000000000000000000000008152f35b3461080b575f36600319011261080b576020611838611c8d565b3461080b575f36600319011261080b576020600554604051908152f35b3461080b57602036600319011261080b576004359063ffffffff60e01b821680920361080b57602091637965db0b60e01b8114908115611b94575b5015158152f35b6301ffc9a760e01b14905083611b8d565b6004359060ff8216820361080b57565b602435906001600160a01b038216820361080b57565b600954811015611be35760095f5260205f2001905f90565b634e487b7160e01b5f52603260045260245ffd5b8051821015611be35760209160051b010190565b91908201809211611c1857565b634e487b7160e01b5f52601160045260245ffd5b90601f8019910116810190811067ffffffffffffffff821117611c4e57604052565b634e487b7160e01b5f52604160045260245ffd5b91908203918211611c1857565b8115611c79570490565b634e487b7160e01b5f52601260045260245ffd5b6040516370a0823160e01b81523060048201526020816024817f00000000000000000000000000000000000000000000000000000000000000006001600160a01b03165afa908115611756575f91611cfe575b5060075480821115611cf857611cf591611c62565b90565b50505f90565b90506020813d602011611d28575b81611d1960209383611c2c565b8101031261080b57515f611ce0565b3d9150611d0c565b335f9081527fad3228b676f7d3cd4284a5443f17f1962b36e491b30a40b2405849e597ba5fb5602052604090205460ff1615611d6857565b63e2517d3f60e01b5f52336004525f60245260445ffd5b5f8181526020818152604080832033845290915290205460ff1615611da15750565b63e2517d3f60e01b5f523360045260245260445ffd5b5f818152602081815260408083206001600160a01b038616845290915290205460ff16611cf8575f818152602081815260408083206001600160a01b0395909516808452949091528120805460ff19166001179055339291907f2f8788117e7eff1d82e926ec794901d17c78024a50270940304540a733656f0d9080a4600190565b5f818152602081815260408083206001600160a01b038616845290915290205460ff1615611cf8575f818152602081815260408083206001600160a01b0395909516808452949091528120805460ff19169055339291907ff6391f5c32d9c69d2a47ea670b442974b53935d1edc7fd64eb21e047a839171b9080a4600190565b67ffffffffffffffff8111611c4e5760051b60200190565b60095490611ede82611eb9565b91611eec6040519384611c2c565b808352601f19611efb82611eb9565b01366020850137825f5b828110611f1157505050565b80611f1d600192611bcb565b90549060031b1c611f2e8285611bf7565b5201611f05565b905f9180515f915b818310611f4957505050565b909193611f65600191611f5f6119488886611bf7565b90611c0b565b94019190611f3d565b611f99907f000000000000000000000000000000000000000000000000000000000000000090612abf565b680736ea4425c11ac630811161285e576714057b7ef767814f670de0b6b3a7640000910204680a688906bd8affffff811161284c57670de0b6b3a76400009060401b04600160bf1b67ff000000000000008216612723575b670de0b6b3a76400009066ff0000000000008316612613575b65ff0000000000831661250b575b64ff00000000831661240b575b63ff0000008316612313575b62ff00008316612223575b61ff00831661213b575b60ff831661205b575b029060401c60bf031c90565b60808316612128575b60408316612115575b60208316612102575b601083166120ef575b600883166120dc575b600483166120c9575b600283166120b6575b600183161561204f57680100000000000000010260401c61204f565b680100000000000000010260401c61209a565b680100000000000000030260401c612091565b680100000000000000060260401c612088565b6801000000000000000b0260401c61207f565b680100000000000000160260401c612076565b6801000000000000002c0260401c61206d565b680100000000000000590260401c612064565b6180008316612210575b61400083166121fd575b61200083166121ea575b61100083166121d7575b61080083166121c4575b61040083166121b1575b610200831661219e575b61010083161561204657680100000000000000b10260401c612046565b680100000000000001630260401c612181565b680100000000000002c60260401c612177565b6801000000000000058c0260401c61216d565b68010000000000000b170260401c612163565b6801000000000000162e0260401c612159565b68010000000000002c5d0260401c61214f565b680100000000000058b90260401c612145565b628000008316612300575b6240000083166122ed575b6220000083166122da575b6210000083166122c7575b6208000083166122b4575b6204000083166122a1575b62020000831661228e575b6201000083161561203c576801000000000000b1720260401c61203c565b680100000000000162e40260401c612270565b6801000000000002c5c80260401c612265565b68010000000000058b910260401c61225a565b680100000000000b17210260401c61224f565b68010000000000162e430260401c612244565b680100000000002c5c860260401c612239565b6801000000000058b90c0260401c61222e565b638000000083166123f8575b634000000083166123e5575b632000000083166123d2575b631000000083166123bf575b630800000083166123ac575b63040000008316612399575b63020000008316612386575b63010000008316156120315768010000000000b172180260401c612031565b6801000000000162e4300260401c612367565b68010000000002c5c8600260401c61235b565b680100000000058b90c00260401c61234f565b6801000000000b17217f0260401c612343565b680100000000162e42ff0260401c612337565b6801000000002c5c85fe0260401c61232b565b68010000000058b90bfc0260401c61231f565b64800000000083166124f8575b64400000000083166124e5575b64200000000083166124d2575b64100000000083166124bf575b64080000000083166124ac575b6404000000008316612499575b6402000000008316612486575b64010000000083161561202557680100000000b17217f80260401c612025565b68010000000162e42ff10260401c612466565b680100000002c5c85fe30260401c612459565b6801000000058b90bfce0260401c61244c565b68010000000b17217fbb0260401c61243f565b6801000000162e42fff00260401c612432565b68010000002c5c8601cc0260401c612425565b680100000058b90c0b490260401c612418565b658000000000008316612600575b6540000000000083166125ed575b6520000000000083166125da575b6510000000000083166125c7575b6508000000000083166125b4575b6504000000000083166125a1575b65020000000000831661258e575b65010000000000831615612018576801000000b1721835510260401c612018565b680100000162e430e5a20260401c61256d565b6801000002c5c863b73f0260401c61255f565b68010000058b90cf1e6e0260401c612551565b680100000b1721bcfc9a0260401c612543565b68010000162e43f4f8310260401c612535565b680100002c5c89d5ec6d0260401c612527565b6801000058b91b5bc9ae0260401c612519565b66800000000000008316612710575b664000000000000083166126fd575b662000000000000083166126ea575b661000000000000083166126d7575b660800000000000083166126c4575b660400000000000083166126b1575b6602000000000000831661269e575b660100000000000083161561200a5768010000b17255775c040260401c61200a565b6801000162e525ee05470260401c61267c565b68010002c5cc37da94920260401c61266d565b680100058ba01fb9f96d0260401c61265e565b6801000b175effdc76ba0260401c61264f565b680100162f3904051fa10260401c612640565b6801002c605e2e8cec500260401c612631565b68010058c86da1c09ea20260401c612622565b6780000000000000008216612839575b670de0b6b3a7640000906740000000000000008316612826575b6720000000000000008316612813575b6710000000000000008316612800575b67080000000000000083166127ed575b67040000000000000083166127da575b67020000000000000083166127c7575b67010000000000000083166127b4575b9050611ff1565b680100b1afa5abcbed610260401c6127ad565b68010163da9fb33356d80260401c61279d565b680102c9a3e778060ee70260401c61278d565b6801059b0d31585743ae0260401c61277d565b68010b5586cf9890f62a0260401c61276d565b6801172b83c7d517adce0260401c61275d565b6801306fe0a31b7152df0260401c61274d565b5068016a09e667f3bcc909607f1b612733565b63b3b6ba1f60e01b5f5260045260245ffd5b630bd2f11160e11b5f5260045ffd5b906128ac9061287a611ed1565b906128a661289f60ff61288c85612938565b9616926128998486611bf7565b51611c0b565b9183611bf7565b52612938565b908082106128d5576128bd91611c62565b906128ca60065483612bd5565b90611cf58284611c0b565b6346c20a6160e01b5f5260045ffd5b60ff7f000000000000000000000000000000000000000000000000000000000000000016601281146129345760120360ff8111611c185760ff1690604d8211611c1857611cf591600a0a90611c6f565b5090565b6714057b7ef767814f670de0b6b3a764000061295e612959611cf594611f35565b612c6a565b02047f0000000000000000000000000000000000000000000000000000000000000000612bd5565b600260015414612997576002600155565b633ee5aeb560e01b5f5260045ffd5b6040516323b872dd60e01b60208201526001600160a01b0392831660248201529290911660448301526064808301939093529181526129ef916129ea608483611c2c565b612b7d565b565b60405163a9059cbb60e01b60208201526001600160a01b039290921660248301526044808301939093529181526129ef916129ea606483611c2c565b60ff612a37611ed1565b9116612a438183611bf7565b51808411612aa8575090612a71916128a661289f612a6084612938565b95612a6b8486611bf7565b51611c62565b818111612a9957612a8191611c62565b90612a8e60065483612bd5565b90611cf58284611c62565b634296ead760e01b5f5260045ffd5b8390632a761add60e21b5f5260045260245260445ffd5b5f19670de0b6b3a7640000820991670de0b6b3a7640000820291828085109403938085039414612b715781841015612b5057670de0b6b3a7640000829109600182190182168092046002816003021880820260020302808202600203028082026002030280820260020302808202600203028091026002030293600183805f03040190848311900302920304170290565b630c740aef60e31b5f52600452670de0b6b3a764000060245260445260645ffd5b5090611cf59250611c6f565b905f602091828151910182855af115611756575f513d612bcc57506001600160a01b0381163b155b612bac5750565b635274afe760e01b5f9081526001600160a01b0391909116600452602490fd5b60011415612ba5565b9091905f1983820983820291828083109203918083039214612c5957670de0b6b3a7640000821015612c42577faccb18165bd6fe31ae1cf318dc5b51eee0e1ba569b88cd74c1773b91fac106699394670de0b6b3a7640000910990828211900360ee1b910360121c170290565b8490635173648d60e01b5f5260045260245260445ffd5b5050670de0b6b3a764000090049150565b670de0b6b3a76400008110612d5a57670de0b6b3a764000081046fffffffffffffffffffffffffffffffff811160071b90811c67ffffffffffffffff811160061b90811c63ffffffff811160051b90811c61ffff811160041b90811c9060ff821160031b91821c92600f841160021b93841c94600160038711811b96871c11961717171717171790670de0b6b3a76400008202911c670de0b6b3a76400008114612934576706f05b59d3b2000090815b612d2357505090565b80670de0b6b3a764000091020490671bc16d674ec80000821015612d4c575b60011c9081612d1a565b809192019160011c90612d42565b63036d32ef60e41b5f5260045260245ffdfea2646970667358221220a263016d824c082193bc619c3d8c3f8982597802d82ccf76b81876e71f1353f564736f6c634300081e00332f8788117e7eff1d82e926ec794901d17c78024a50270940304540a733656f0d9e5c930214a7bc8a78d251e617445bcdba028aed2ede5828cc6cd6c8261656f5ad3228b676f7d3cd4284a5443f17f1962b36e491b30a40b2405849e597ba5fb5","linkReferences":{}},"methodIdentifiers":{"DEFAULT_ADMIN_ROLE()":"a217fddf","TREASURY_ROLE()":"d11a57ec","availableCollateral()":"1a63dfe0","availableCollateralAtFinalization()":"06de930e","buy(uint8,uint256)":"62f791c0","collateral()":"d8dfeb45","collateralDecimals()":"ec9c6c30","feeReserve()":"789ff0e1","finalize(uint8,bool)":"fdf21f84","fundMarket(uint256)":"90a4ccf7","getCostFunction()":"5fe054e6","getPrice(uint8)":"37f1e7f2","getRoleAdmin(bytes32)":"248a9ca3","getTotalVolume()":"0b9d98e9","grantRole(bytes32,address)":"2f2ff15d","hasRole(bytes32,address)":"91d14854","invalid()":"bde9e40e","liquidityB()":"24731cff","marketId()":"6ed71ede","oracle()":"7dc0d1d0","outcomeCount()":"d300cb31","outcomeToken()":"a998d6d8","outstandingShares(uint8)":"288b212f","pauseTrading(bool)":"365ec5e5","previewBuy(uint8,uint256)":"5e573804","previewSell(uint8,uint256)":"d72e818d","redeem(uint8,uint256)":"bb482f96","renounceRole(bytes32,address)":"36568abe","requestResolve()":"a0dfb902","revokeRole(bytes32,address)":"d547741f","sell(uint8,uint256)":"d9515e0b","setFee(uint256)":"69fe0e2d","state()":"c19d93fb","supportsInterface(bytes4)":"01ffc9a7","sweepFeesToTreasury(uint256)":"ab453707","totalSharesAtFinalization()":"d43f8cca","totalVolume()":"5f81a57c","tradeFee()":"24bcdfbd","tradingEndsAt()":"dc4bac20","tradingPaused()":"53e23e2e","treasury()":"61d027b3","winningOutcome()":"9b34ae03","withdrawFees(address,uint256)":"ad3b1b47"},"id":0}