{"abi":[{"type":"constructor","inputs":[{"name":"marketId_","type":"uint256","internalType":"uint256"},{"name":"outcomeCount_","type":"uint8","internalType":"uint8"},{"name":"liquidityBRaw","type":"uint256","internalType":"uint256"},{"name":"feeRaw","type":"uint256","internalType":"uint256"},{"name":"collateral_","type":"address","internalType":"address"},{"name":"outcomeToken_","type":"address","internalType":"address"},{"name":"tradingEndsAt_","type":"uint64","internalType":"uint64"},{"name":"oracle_","type":"address","internalType":"address"}],"stateMutability":"nonpayable"},{"type":"function","name":"DEFAULT_ADMIN_ROLE","inputs":[],"outputs":[{"name":"","type":"bytes32","internalType":"bytes32"}],"stateMutability":"view"},{"type":"function","name":"TREASURY_ROLE","inputs":[],"outputs":[{"name":"","type":"bytes32","internalType":"bytes32"}],"stateMutability":"view"},{"type":"function","name":"availableCollateral","inputs":[],"outputs":[{"name":"","type":"uint256","internalType":"uint256"}],"stateMutability":"view"},{"type":"function","name":"availableCollateralAtFinalization","inputs":[],"outputs":[{"name":"","type":"uint256","internalType":"uint256"}],"stateMutability":"view"},{"type":"function","name":"buy","inputs":[{"name":"outcomeId","type":"uint8","internalType":"uint8"},{"name":"deltaSharesRaw","type":"uint256","internalType":"uint256"}],"outputs":[{"name":"totalPaid","type":"uint256","internalType":"uint256"}],"stateMutability":"nonpayable"},{"type":"function","name":"collateral","inputs":[],"outputs":[{"name":"","type":"address","internalType":"contract IERC20"}],"stateMutability":"view"},{"type":"function","name":"feeReserve","inputs":[],"outputs":[{"name":"","type":"uint256","internalType":"uint256"}],"stateMutability":"view"},{"type":"function","name":"finalize","inputs":[{"name":"winning","type":"uint8","internalType":"uint8"},{"name":"invalid_","type":"bool","internalType":"bool"}],"outputs":[],"stateMutability":"nonpayable"},{"type":"function","name":"fundMarket","inputs":[{"name":"amount","type":"uint256","internalType":"uint256"}],"outputs":[],"stateMutability":"nonpayable"},{"type":"function","name":"getCostFunction","inputs":[],"outputs":[{"name":"","type":"uint256","internalType":"uint256"}],"stateMutability":"view"},{"type":"function","name":"getPrice","inputs":[{"name":"outcomeId","type":"uint8","internalType":"uint8"}],"outputs":[{"name":"","type":"uint256","internalType":"uint256"}],"stateMutability":"view"},{"type":"function","name":"getRoleAdmin","inputs":[{"name":"role","type":"bytes32","internalType":"bytes32"}],"outputs":[{"name":"","type":"bytes32","internalType":"bytes32"}],"stateMutability":"view"},{"type":"function","name":"grantRole","inputs":[{"name":"role","type":"bytes32","internalType":"bytes32"},{"name":"account","type":"address","internalType":"address"}],"outputs":[],"stateMutability":"nonpayable"},{"type":"function","name":"hasRole","inputs":[{"name":"role","type":"bytes32","internalType":"bytes32"},{"name":"account","type":"address","internalType":"address"}],"outputs":[{"name":"","type":"bool","internalType":"bool"}],"stateMutability":"view"},{"type":"function","name":"invalid","inputs":[],"outputs":[{"name":"","type":"bool","internalType":"bool"}],"stateMutability":"view"},{"type":"function","name":"liquidityB","inputs":[],"outputs":[{"name":"","type":"uint256","internalType":"UD60x18"}],"stateMutability":"view"},{"type":"function","name":"marketId","inputs":[],"outputs":[{"name":"","type":"uint256","internalType":"uint256"}],"stateMutability":"view"},{"type":"function","name":"oracle","inputs":[],"outputs":[{"name":"","type":"address","internalType":"address"}],"stateMutability":"view"},{"type":"function","name":"outcomeCount","inputs":[],"outputs":[{"name":"","type":"uint8","internalType":"uint8"}],"stateMutability":"view"},{"type":"function","name":"outcomeToken","inputs":[],"outputs":[{"name":"","type":"address","internalType":"contract Outcome1155"}],"stateMutability":"view"},{"type":"function","name":"outstandingShares","inputs":[{"name":"outcomeId","type":"uint8","internalType":"uint8"}],"outputs":[{"name":"","type":"uint256","internalType":"uint256"}],"stateMutability":"view"},{"type":"function","name":"pauseTrading","inputs":[{"name":"pause","type":"bool","internalType":"bool"}],"outputs":[],"stateMutability":"nonpayable"},{"type":"function","name":"previewBuy","inputs":[{"name":"outcomeId","type":"uint8","internalType":"uint8"},{"name":"deltaSharesRaw","type":"uint256","internalType":"uint256"}],"outputs":[{"name":"costRaw","type":"uint256","internalType":"uint256"},{"name":"feeRaw","type":"uint256","internalType":"uint256"},{"name":"totalRaw","type":"uint256","internalType":"uint256"}],"stateMutability":"view"},{"type":"function","name":"previewSell","inputs":[{"name":"outcomeId","type":"uint8","internalType":"uint8"},{"name":"deltaSharesRaw","type":"uint256","internalType":"uint256"}],"outputs":[{"name":"grossRaw","type":"uint256","internalType":"uint256"},{"name":"feeRaw","type":"uint256","internalType":"uint256"},{"name":"netRaw","type":"uint256","internalType":"uint256"}],"stateMutability":"view"},{"type":"function","name":"redeem","inputs":[{"name":"outcomeId","type":"uint8","internalType":"uint8"},{"name":"amount","type":"uint256","internalType":"uint256"}],"outputs":[{"name":"payout","type":"uint256","internalType":"uint256"}],"stateMutability":"nonpayable"},{"type":"function","name":"renounceRole","inputs":[{"name":"role","type":"bytes32","internalType":"bytes32"},{"name":"callerConfirmation","type":"address","internalType":"address"}],"outputs":[],"stateMutability":"nonpayable"},{"type":"function","name":"requestResolve","inputs":[],"outputs":[],"stateMutability":"nonpayable"},{"type":"function","name":"revokeRole","inputs":[{"name":"role","type":"bytes32","internalType":"bytes32"},{"name":"account","type":"address","internalType":"address"}],"outputs":[],"stateMutability":"nonpayable"},{"type":"function","name":"sell","inputs":[{"name":"outcomeId","type":"uint8","internalType":"uint8"},{"name":"deltaSharesRaw","type":"uint256","internalType":"uint256"}],"outputs":[{"name":"netPayout","type":"uint256","internalType":"uint256"}],"stateMutability":"nonpayable"},{"type":"function","name":"setFee","inputs":[{"name":"newFeeRaw","type":"uint256","internalType":"uint256"}],"outputs":[],"stateMutability":"nonpayable"},{"type":"function","name":"state","inputs":[],"outputs":[{"name":"","type":"uint8","internalType":"enum LMSRMarket.MarketState"}],"stateMutability":"view"},{"type":"function","name":"supportsInterface","inputs":[{"name":"interfaceId","type":"bytes4","internalType":"bytes4"}],"outputs":[{"name":"","type":"bool","internalType":"bool"}],"stateMutability":"view"},{"type":"function","name":"totalSharesAtFinalization","inputs":[],"outputs":[{"name":"","type":"uint256","internalType":"uint256"}],"stateMutability":"view"},{"type":"function","name":"totalVolume","inputs":[],"outputs":[{"name":"","type":"uint256","internalType":"uint256"}],"stateMutability":"view"},{"type":"function","name":"tradeFee","inputs":[],"outputs":[{"name":"","type":"uint256","internalType":"UD60x18"}],"stateMutability":"view"},{"type":"function","name":"tradingEndsAt","inputs":[],"outputs":[{"name":"","type":"uint64","internalType":"uint64"}],"stateMutability":"view"},{"type":"function","name":"tradingPaused","inputs":[],"outputs":[{"name":"","type":"bool","internalType":"bool"}],"stateMutability":"view"},{"type":"function","name":"winningOutcome","inputs":[],"outputs":[{"name":"","type":"uint8","internalType":"uint8"}],"stateMutability":"view"},{"type":"function","name":"withdrawFees","inputs":[{"name":"receiver","type":"address","internalType":"address"},{"name":"amount","type":"uint256","internalType":"uint256"}],"outputs":[],"stateMutability":"nonpayable"},{"type":"event","name":"Buy","inputs":[{"name":"trader","type":"address","indexed":true,"internalType":"address"},{"name":"outcome","type":"uint8","indexed":true,"internalType":"uint8"},{"name":"shares","type":"uint256","indexed":false,"internalType":"uint256"},{"name":"cost","type":"uint256","indexed":false,"internalType":"uint256"},{"name":"fee","type":"uint256","indexed":false,"internalType":"uint256"}],"anonymous":false},{"type":"event","name":"FeeUpdated","inputs":[{"name":"previousFee","type":"uint256","indexed":false,"internalType":"uint256"},{"name":"newFee","type":"uint256","indexed":false,"internalType":"uint256"}],"anonymous":false},{"type":"event","name":"FeeWithdrawn","inputs":[{"name":"receiver","type":"address","indexed":true,"internalType":"address"},{"name":"amount","type":"uint256","indexed":false,"internalType":"uint256"}],"anonymous":false},{"type":"event","name":"MarketFunded","inputs":[{"name":"funder","type":"address","indexed":true,"internalType":"address"},{"name":"amount","type":"uint256","indexed":false,"internalType":"uint256"}],"anonymous":false},{"type":"event","name":"Redeemed","inputs":[{"name":"user","type":"address","indexed":true,"internalType":"address"},{"name":"outcome","type":"uint8","indexed":true,"internalType":"uint8"},{"name":"shares","type":"uint256","indexed":false,"internalType":"uint256"},{"name":"payout","type":"uint256","indexed":false,"internalType":"uint256"}],"anonymous":false},{"type":"event","name":"Resolved","inputs":[{"name":"winningOutcome","type":"uint8","indexed":true,"internalType":"uint8"},{"name":"invalid","type":"bool","indexed":false,"internalType":"bool"}],"anonymous":false},{"type":"event","name":"RoleAdminChanged","inputs":[{"name":"role","type":"bytes32","indexed":true,"internalType":"bytes32"},{"name":"previousAdminRole","type":"bytes32","indexed":true,"internalType":"bytes32"},{"name":"newAdminRole","type":"bytes32","indexed":true,"internalType":"bytes32"}],"anonymous":false},{"type":"event","name":"RoleGranted","inputs":[{"name":"role","type":"bytes32","indexed":true,"internalType":"bytes32"},{"name":"account","type":"address","indexed":true,"internalType":"address"},{"name":"sender","type":"address","indexed":true,"internalType":"address"}],"anonymous":false},{"type":"event","name":"RoleRevoked","inputs":[{"name":"role","type":"bytes32","indexed":true,"internalType":"bytes32"},{"name":"account","type":"address","indexed":true,"internalType":"address"},{"name":"sender","type":"address","indexed":true,"internalType":"address"}],"anonymous":false},{"type":"event","name":"Sell","inputs":[{"name":"trader","type":"address","indexed":true,"internalType":"address"},{"name":"outcome","type":"uint8","indexed":true,"internalType":"uint8"},{"name":"shares","type":"uint256","indexed":false,"internalType":"uint256"},{"name":"payout","type":"uint256","indexed":false,"internalType":"uint256"},{"name":"fee","type":"uint256","indexed":false,"internalType":"uint256"}],"anonymous":false},{"type":"event","name":"TradingPaused","inputs":[{"name":"status","type":"bool","indexed":false,"internalType":"bool"}],"anonymous":false},{"type":"error","name":"AccessControlBadConfirmation","inputs":[]},{"type":"error","name":"AccessControlUnauthorizedAccount","inputs":[{"name":"account","type":"address","internalType":"address"},{"name":"neededRole","type":"bytes32","internalType":"bytes32"}]},{"type":"error","name":"LMSR_ExponentialInputTooLarge","inputs":[]},{"type":"error","name":"LMSR_FeeTooHigh","inputs":[{"name":"feeRaw","type":"uint256","internalType":"uint256"}]},{"type":"error","name":"LMSR_InsufficientCollateral","inputs":[{"name":"available","type":"uint256","internalType":"uint256"},{"name":"required","type":"uint256","internalType":"uint256"}]},{"type":"error","name":"LMSR_InsufficientMarketShares","inputs":[{"name":"available","type":"uint256","internalType":"uint256"},{"name":"requested","type":"uint256","internalType":"uint256"}]},{"type":"error","name":"LMSR_InsufficientUserShares","inputs":[{"name":"balance","type":"uint256","internalType":"uint256"},{"name":"requested","type":"uint256","internalType":"uint256"}]},{"type":"error","name":"LMSR_InvalidAddress","inputs":[]},{"type":"error","name":"LMSR_InvalidAmount","inputs":[]},{"type":"error","name":"LMSR_InvalidOutcome","inputs":[{"name":"outcomeId","type":"uint8","internalType":"uint8"}]},{"type":"error","name":"LMSR_InvalidOutcomeCount","inputs":[{"name":"count","type":"uint8","internalType":"uint8"}]},{"type":"error","name":"LMSR_InvariantCostDecrease","inputs":[]},{"type":"error","name":"LMSR_InvariantCostIncrease","inputs":[]},{"type":"error","name":"LMSR_LiquidityParameterZero","inputs":[]},{"type":"error","name":"LMSR_MarketNotFinalized","inputs":[]},{"type":"error","name":"LMSR_NetPayoutZero","inputs":[]},{"type":"error","name":"LMSR_NoShares","inputs":[]},{"type":"error","name":"LMSR_NotWinner","inputs":[]},{"type":"error","name":"LMSR_OnlyOracle","inputs":[]},{"type":"error","name":"LMSR_TradeCostZero","inputs":[]},{"type":"error","name":"LMSR_TradingEnded","inputs":[]},{"type":"error","name":"LMSR_TradingPaused","inputs":[]},{"type":"error","name":"LMSR_WrongState","inputs":[]},{"type":"error","name":"PRBMath_MulDiv18_Overflow","inputs":[{"name":"x","type":"uint256","internalType":"uint256"},{"name":"y","type":"uint256","internalType":"uint256"}]},{"type":"error","name":"PRBMath_MulDiv_Overflow","inputs":[{"name":"x","type":"uint256","internalType":"uint256"},{"name":"y","type":"uint256","internalType":"uint256"},{"name":"denominator","type":"uint256","internalType":"uint256"}]},{"type":"error","name":"PRBMath_UD60x18_Exp2_InputTooBig","inputs":[{"name":"x","type":"uint256","internalType":"UD60x18"}]},{"type":"error","name":"PRBMath_UD60x18_Exp_InputTooBig","inputs":[{"name":"x","type":"uint256","internalType":"UD60x18"}]},{"type":"error","name":"PRBMath_UD60x18_Log_InputTooSmall","inputs":[{"name":"x","type":"uint256","internalType":"UD60x18"}]},{"type":"error","name":"ReentrancyGuardReentrantCall","inputs":[]},{"type":"error","name":"SafeERC20FailedOperation","inputs":[{"name":"token","type":"address","internalType":"address"}]}],"bytecode":{"object":"0x6101606040523461036b57612f49610100813803918261001e8161036f565b93849283398101031261036b57805160208201519160ff83169283810361036b57604082015160608301519161005660808501610394565b9461006360a08601610394565b60c0860151956001600160401b038716870361036b5760e06100859101610394565b9660018055600289108015610361575b61034e57841561033f576001600160a01b03168015801561032e575b801561031d575b61030e5767016345785d8a000086116102fb576100d4336103bf565b506100de33610435565b506080526001600160a01b031660a05260c05260e0526101005260065561012052610140526003805460ff1916905561012a61012161011c836103a8565b61036f565b918083526103a8565b602082019190601f190136833751906001600160401b0382116102e7576801000000000000000082116102e757600954826009558083106102a3575b509060095f5260205f20915f5b82811061028f57604051612a2090816104c982396080518181816106760152818161082c01528181610c1301528181610e4c015281816110db015281816113160152611976015260a0518181816104fc01528181610afe01528181610ee1015261137f015260c0518181816104c101528181610ac5015281816111b801526113c3015260e0518181816102b20152818161036101528181610436015281816108810152818161097e01528181610a710152818161127f0152818161154e015281816115cb01526117270152610100518181816117c601528181611c4201526125dc0152610120518181816103e40152818161047b01528181610f6301526112c40152610140518181816101ff01528181610f9901526111530152f35b600190602083519301928186015501610173565b60095f527f6e1540171b6c0c960b71a7020d9f60077f6af931a8bbf590da0223dacf75c7af9081019083015b8181106102dc5750610166565b5f81556001016102cf565b634e487b7160e01b5f52604160045260245ffd5b8563a4e4d77160e01b5f5260045260245ffd5b63d072110560e01b5f5260045ffd5b506001600160a01b038816156100b8565b506001600160a01b038216156100b1565b638e0697d360e01b5f5260045ffd5b88633087512f60e21b5f5260045260245ffd5b50600a8911610095565b5f80fd5b6040519190601f01601f191682016001600160401b038111838210176102e757604052565b51906001600160a01b038216820361036b57565b6001600160401b0381116102e75760051b60200190565b6001600160a01b0381165f9081525f516020612f295f395f51905f52602052604090205460ff16610430576001600160a01b03165f8181525f516020612f295f395f51905f5260205260408120805460ff191660011790553391905f516020612ee95f395f51905f528180a4600190565b505f90565b6001600160a01b0381165f9081525f516020612f095f395f51905f52602052604090205460ff16610430576001600160a01b03165f8181525f516020612f095f395f51905f5260205260408120805460ff191660011790553391907fe1dcbdb91df27212a29bc27177c840cf2f819ecf2187432e1fac86c2dd5dfca9905f516020612ee95f395f51905f529080a460019056fe6080806040526004361015610012575f80fd5b5f905f3560e01c90816301ffc9a7146118205750806306de930e146118035780631a63dfe0146117e957806324731cff146117af578063248a9ca31461178557806324bcdfbd14611768578063288b212f146117065780632f2ff15d146116c957806336568abe14611683578063365ec5e51461162157806337f1e7f2146115ab57806353e23e2e146115895780635e573804146115295780635f81a57c1461150c5780635fe054e6146114e257806362f791c01461125357806369fe0e2d146111db5780636ed71ede146111a0578063789ff0e1146111825780637dc0d1d01461113d57806390a4ccf7146110b057806391d14854146110675780639b34ae0314611043578063a0dfb90214610f2c578063a217fddf14610f10578063a998d6d814610ecb578063ad3b1b4714610d94578063bb482f9614610a43578063bde9e40e14610a1d578063c19d93fb146109dd578063d11a57ec146109a2578063d300cb3114610964578063d43f8cca14610946578063d547741f146108ff578063d72e818d1461085b578063d8dfeb4514610816578063d9515e0b14610408578063dc4bac20146103c35763fdf21f84146101cb575f80fd5b346103c05760403660031901126103c0576101e4611873565b602435908115918215928382036103be576101fd612600565b7f00000000000000000000000000000000000000000000000000000000000000006001600160a01b031633036103af5760ff60035416600381101561039b5760010361038c578061035c575b610346576003805462ffffff1916600884901b61ff001617601085901b62ff0000161760021790556102ac575b602060ff7fbade5c284f0a38a7780a6182d21070659f59e04dc0cbef2c49767c0647df4ef1926040519485521692a26001805580f35b828360ff7f0000000000000000000000000000000000000000000000000000000000000000165b8060ff83161061031d57505060ff7fbade5c284f0a38a7780a6182d21070659f59e04dc0cbef2c49767c0647df4ef19260209260045561031161195b565b60055592505050610276565b9091600161033d60ff9261033086611899565b90549060031b1c906118d9565b930116906102d3565b636c05cdb160e01b845260ff8216600452602484fd5b5060ff7f00000000000000000000000000000000000000000000000000000000000000001660ff83161015610249565b6352ed47f960e01b8552600485fd5b634e487b7160e01b86526021600452602486fd5b6374fe2f6b60e01b8552600485fd5b845b80fd5b50346103c057806003193601126103c057602060405167ffffffffffffffff7f0000000000000000000000000000000000000000000000000000000000000000168152f35b50346103c05760403660031901126103c057610422611873565b60243561042d612600565b60ff82169060ff7f0000000000000000000000000000000000000000000000000000000000000000168210156108025760ff6003541660038110156107ee576107df5767ffffffffffffffff7f0000000000000000000000000000000000000000000000000000000000000000164210156107d05760ff600854166107c15780156107b25760405163713bb33960e11b81527f00000000000000000000000000000000000000000000000000000000000000006004820181905260ff8516602483015294906001600160a01b037f00000000000000000000000000000000000000000000000000000000000000001690602081604481855afa90811561077457839161077f575b50604051627eeac760e11b81523360048201526024810191909152602081604481855afa90811561077457839161073e575b50838110610727575061057885611899565b90549060031b1c808411610710575061059183866126a7565b8097925097909715610701576105a561195b565b8781106106ea57506105b9886007546118d9565b6007556105f96105d8866105cc85611899565b90549060031b1c611930565b6105e184611899565b90919082549060031b91821b915f19901b1916179055565b823b156106e65760405163766f3cd360e11b8152336004820152602481019190915260ff919091166044820152606481018490529082908290608490829084905af180156106db576106c6575b50507fbccc64d1e1249878358bdb2025e5d01726533249b0c0c0add15ee627fd6a53636106b760209561069a86337f000000000000000000000000000000000000000000000000000000000000000061266b565b604080519485526020850187905284015233929081906060820190565b0390a360018055604051908152f35b6106d18280926118fa565b6103c05780610646565b6040513d84823e3d90fd5b8380fd5b6329c1c9e760e21b85526004526024879052604484fd5b632144a5c360e11b8452600484fd5b6044939150632a761add60e21b8352600452602452fd5b6044939150630a0825c160e11b8352600452602452fd5b90506020813d60201161076c575b81610759602093836118fa565b8101031261076857515f610566565b5f80fd5b3d915061074c565b6040513d85823e3d90fd5b90506020813d6020116107aa575b8161079a602093836118fa565b8101031261076857516020610534565b3d915061078d565b632395cb2960e11b8452600484fd5b63125b80a560e31b8452600484fd5b632393526360e21b8452600484fd5b6352ed47f960e01b8452600484fd5b634e487b7160e01b85526021600452602485fd5b636c05cdb160e01b84526004829052602484fd5b50346103c057806003193601126103c0576040517f00000000000000000000000000000000000000000000000000000000000000006001600160a01b03168152602090f35b50346103c05760403660031901126103c057610875611873565b6024359160ff821660ff7f0000000000000000000000000000000000000000000000000000000000000000168110156108ec575082156108dd576108d96108bc84846126a7565b604080519384526020840192909252908201529081906060820190565b0390f35b632395cb2960e11b8152600490fd5b636c05cdb160e01b825260045260249150fd5b50346103c05760403660031901126103c05761094260043561091f611883565b9061093d610938825f525f602052600160405f20015490565b611a4d565b611b07565b5080f35b50346103c057806003193601126103c0576020600454604051908152f35b50346103c057806003193601126103c057602060405160ff7f0000000000000000000000000000000000000000000000000000000000000000168152f35b50346103c057806003193601126103c05760206040517fe1dcbdb91df27212a29bc27177c840cf2f819ecf2187432e1fac86c2dd5dfca98152f35b50346103c057806003193601126103c05760ff60035416604051906003811015610a0957602092508152f35b634e487b7160e01b83526021600452602483fd5b50346103c057806003193601126103c057602060ff60035460101c166040519015158152f35b50346103c05760403660031901126103c057610a5d611873565b602435610a68612600565b60ff82169060ff7f000000000000000000000000000000000000000000000000000000000000000016821015610802576003549260ff8416600381101561039b57600203610d85578115610d765760405163713bb33960e11b81527f00000000000000000000000000000000000000000000000000000000000000006004820181905260ff831660248301526001600160a01b037f0000000000000000000000000000000000000000000000000000000000000000169590916020816044818a5afa908115610d38578891610d43575b50604051627eeac760e11b815233600482015260248101919091526020816044818a5afa8015610d385785918991610d03575b5010610cd25760ff8160101c165f14610ce157506004548015610cd2576005548085029085820403610cbe5790610ba19161193d565b945b8515610caf57610bb161195b565b868110610c985750908187923b15610c945760405163766f3cd360e11b8152336004820152602481019290925260ff93909316604482015260648101849052918290608490829084905af18015610c8957610c74575b5060209350610c3783337f000000000000000000000000000000000000000000000000000000000000000061266b565b60405190815282848201527ff8b564b1b7f5bb9fea632ddf0036474f68d8cec99f4b2e96a29be779871e059a60403392a360018055604051908152f35b610c7f8580926118fa565b6106e65783610c07565b6040513d87823e3d90fd5b8280fd5b6329c1c9e760e21b88526004526024869052604487fd5b632395cb2960e11b8752600487fd5b634e487b7160e01b88526011600452602488fd5b633f8edfd360e01b8752600487fd5b60081c60ff168403610cf4578294610ba3565b631d56808760e21b8652600486fd5b9150506020813d602011610d30575b81610d1f602093836118fa565b81010312610768578490515f610b6b565b3d9150610d12565b6040513d8a823e3d90fd5b90506020813d602011610d6e575b81610d5e602093836118fa565b8101031261076857516020610b38565b3d9150610d51565b632395cb2960e11b8552600485fd5b6364c0652f60e01b8552600485fd5b50346103c05760403660031901126103c0576004356001600160a01b03811690818103610c94577fe1dcbdb91df27212a29bc27177c840cf2f819ecf2187432e1fac86c2dd5dfca9835260208381526040808520335f9081529252902054602435919060ff1615610e94578215610e855781158015610e7a575b6107b25781610e7081602093610e477f78473f3f373f7673597f4f0fa5873cb4d375fea6d4339ad6b56dbd411513cb3f96600754611930565b6007557f000000000000000000000000000000000000000000000000000000000000000061266b565b604051908152a280f35b506007548211610e0e565b63d072110560e01b8452600484fd5b63e2517d3f60e01b8452336004527fe1dcbdb91df27212a29bc27177c840cf2f819ecf2187432e1fac86c2dd5dfca9602452604484fd5b50346103c057806003193601126103c0576040517f00000000000000000000000000000000000000000000000000000000000000006001600160a01b03168152602090f35b50346103c057806003193601126103c057602090604051908152f35b50346103c057806003193601126103c057610f45612600565b60ff60035416600381101561102f576110205767ffffffffffffffff7f0000000000000000000000000000000000000000000000000000000000000000164210611011576003805460ff19166001179055807f00000000000000000000000000000000000000000000000000000000000000006001600160a01b0316803b1561100e5781809160246040518094819363f5ec303b60e01b83523060048401525af180156106db57610ff9575b506001805580f35b81611003916118fa565b6103c057805f610ff1565b50fd5b632393526360e21b8152600490fd5b6352ed47f960e01b8152600490fd5b634e487b7160e01b82526021600452602482fd5b50346103c057806003193601126103c057602060ff60035460081c16604051908152f35b50346103c05760403660031901126103c0576040611083611883565b91600435815280602052209060018060a01b03165f52602052602060ff60405f2054166040519015158152f35b50346103c05760203660031901126103c0576004356110cd6119fe565b801561112e576110ff8130337f0000000000000000000000000000000000000000000000000000000000000000612620565b6040519081527fedaf24f11c26659e1b8b626d6a5e8f72aa1935fa8e9f69fe207d0f7477b1353560203392a280f35b632395cb2960e11b8252600482fd5b50346103c057806003193601126103c0576040517f00000000000000000000000000000000000000000000000000000000000000006001600160a01b03168152602090f35b50346103c057806003193601126103c0576020600754604051908152f35b50346103c057806003193601126103c05760206040517f00000000000000000000000000000000000000000000000000000000000000008152f35b50346103c05760203660031901126103c0576004356111f86119fe565b67016345785d8a000081116112415760407f528d9479e9f9889a87a3c30c7f7ba537e5e59c4c85a37733b16e57c62df6130291600654908060065582519182526020820152a180f35b63a4e4d77160e01b8252600452602490fd5b346107685760403660031901126107685761126c611873565b602435611277612600565b60ff821660ff7f0000000000000000000000000000000000000000000000000000000000000000168110156114d05760ff6003541660038110156114bc576114ad5767ffffffffffffffff7f00000000000000000000000000000000000000000000000000000000000000001642101561149e5760ff6008541661148f57811561148057611305828461253b565b93919081156114715761133a8530337f0000000000000000000000000000000000000000000000000000000000000000612620565b611346816007546118d9565b600755611355856002546118d9565b60025561137d6113748461136889611899565b90549060031b1c6118d9565b6105e188611899565b7f00000000000000000000000000000000000000000000000000000000000000006001600160a01b0316803b15610768576040516328dc770160e01b81523360048201527f0000000000000000000000000000000000000000000000000000000000000000602482015260ff979097166044880152606487018490525f908790608490829084905af1918215611466576020967fe8f58e3faf4cfb9e9f5bb8a5bb97dc5c362e97b4665aec0f218f17c3c44a5b6e93611456575b50604080519485526020850191909152830152339180606081016106b7565b5f611460916118fa565b5f611437565b6040513d5f823e3d90fd5b630e29256760e41b5f5260045ffd5b632395cb2960e11b5f5260045ffd5b63125b80a560e31b5f5260045ffd5b632393526360e21b5f5260045ffd5b6352ed47f960e01b5f5260045ffd5b634e487b7160e01b5f52602160045260245ffd5b636c05cdb160e01b5f5260045260245ffd5b34610768575f3660031901126107685760206115046114ff611b9f565b6125b2565b604051908152f35b34610768575f366003190112610768576020600254604051908152f35b3461076857604036600319011261076857611542611873565b6024359060ff811660ff7f0000000000000000000000000000000000000000000000000000000000000000168110156114d057508115611480576108d9916108bc9161253b565b34610768575f36600319011261076857602060ff600854166040519015158152f35b346107685760203660031901126107685760ff6115c6611873565b1660ff7f0000000000000000000000000000000000000000000000000000000000000000168110156114d05761150460209161161c611616611606611b9f565b9261161084611c03565b936118c5565b51611c3c565b612739565b34610768576020366003190112610768576004358015158091036107685760207f64891834b8201e4fdeda37096a5f1c16360f209047b1e9a93839cc5bbbb763bd9161166b6119fe565b60ff196008541660ff821617600855604051908152a1005b346107685760403660031901126107685761169c611883565b336001600160a01b038216036116ba576116b890600435611b07565b005b63334bd91960e11b5f5260045ffd5b34610768576040366003190112610768576116b86004356116e8611883565b90611701610938825f525f602052600160405f20015490565b611a85565b346107685760203660031901126107685761171f611873565b60ff811660ff7f0000000000000000000000000000000000000000000000000000000000000000168110156114d057602061175983611899565b90549060031b1c604051908152f35b34610768575f366003190112610768576020600654604051908152f35b346107685760203660031901126107685760206115046004355f525f602052600160405f20015490565b34610768575f3660031901126107685760206040517f00000000000000000000000000000000000000000000000000000000000000008152f35b34610768575f36600319011261076857602061150461195b565b34610768575f366003190112610768576020600554604051908152f35b34610768576020366003190112610768576004359063ffffffff60e01b821680920361076857602091637965db0b60e01b8114908115611862575b5015158152f35b6301ffc9a760e01b1490508361185b565b6004359060ff8216820361076857565b602435906001600160a01b038216820361076857565b6009548110156118b15760095f5260205f2001905f90565b634e487b7160e01b5f52603260045260245ffd5b80518210156118b15760209160051b010190565b919082018092116118e657565b634e487b7160e01b5f52601160045260245ffd5b90601f8019910116810190811067ffffffffffffffff82111761191c57604052565b634e487b7160e01b5f52604160045260245ffd5b919082039182116118e657565b8115611947570490565b634e487b7160e01b5f52601260045260245ffd5b6040516370a0823160e01b81523060048201526020816024817f00000000000000000000000000000000000000000000000000000000000000006001600160a01b03165afa908115611466575f916119cc575b50600754808211156119c6576119c391611930565b90565b50505f90565b90506020813d6020116119f6575b816119e7602093836118fa565b8101031261076857515f6119ae565b3d91506119da565b335f9081527fad3228b676f7d3cd4284a5443f17f1962b36e491b30a40b2405849e597ba5fb5602052604090205460ff1615611a3657565b63e2517d3f60e01b5f52336004525f60245260445ffd5b5f8181526020818152604080832033845290915290205460ff1615611a6f5750565b63e2517d3f60e01b5f523360045260245260445ffd5b5f818152602081815260408083206001600160a01b038616845290915290205460ff166119c6575f818152602081815260408083206001600160a01b0395909516808452949091528120805460ff19166001179055339291907f2f8788117e7eff1d82e926ec794901d17c78024a50270940304540a733656f0d9080a4600190565b5f818152602081815260408083206001600160a01b038616845290915290205460ff16156119c6575f818152602081815260408083206001600160a01b0395909516808452949091528120805460ff19169055339291907ff6391f5c32d9c69d2a47ea670b442974b53935d1edc7fd64eb21e047a839171b9080a4600190565b67ffffffffffffffff811161191c5760051b60200190565b60095490611bac82611b87565b91611bba60405193846118fa565b808352601f19611bc982611b87565b01366020850137825f5b828110611bdf57505050565b80611beb600192611899565b90549060031b1c611bfc82856118c5565b5201611bd3565b905f9180515f915b818310611c1757505050565b909193611c33600191611c2d61161688866118c5565b906118d9565b94019190611c0b565b611c67907f000000000000000000000000000000000000000000000000000000000000000090612739565b680736ea4425c11ac630811161252c576714057b7ef767814f670de0b6b3a7640000910204680a688906bd8affffff811161251a57670de0b6b3a76400009060401b04600160bf1b67ff0000000000000082166123f1575b670de0b6b3a76400009066ff00000000000083166122e1575b65ff000000000083166121d9575b64ff0000000083166120d9575b63ff0000008316611fe1575b62ff00008316611ef1575b61ff008316611e09575b60ff8316611d29575b029060401c60bf031c90565b60808316611df6575b60408316611de3575b60208316611dd0575b60108316611dbd575b60088316611daa575b60048316611d97575b60028316611d84575b6001831615611d1d57680100000000000000010260401c611d1d565b680100000000000000010260401c611d68565b680100000000000000030260401c611d5f565b680100000000000000060260401c611d56565b6801000000000000000b0260401c611d4d565b680100000000000000160260401c611d44565b6801000000000000002c0260401c611d3b565b680100000000000000590260401c611d32565b6180008316611ede575b6140008316611ecb575b6120008316611eb8575b6110008316611ea5575b6108008316611e92575b6104008316611e7f575b6102008316611e6c575b610100831615611d1457680100000000000000b10260401c611d14565b680100000000000001630260401c611e4f565b680100000000000002c60260401c611e45565b6801000000000000058c0260401c611e3b565b68010000000000000b170260401c611e31565b6801000000000000162e0260401c611e27565b68010000000000002c5d0260401c611e1d565b680100000000000058b90260401c611e13565b628000008316611fce575b624000008316611fbb575b622000008316611fa8575b621000008316611f95575b620800008316611f82575b620400008316611f6f575b620200008316611f5c575b62010000831615611d0a576801000000000000b1720260401c611d0a565b680100000000000162e40260401c611f3e565b6801000000000002c5c80260401c611f33565b68010000000000058b910260401c611f28565b680100000000000b17210260401c611f1d565b68010000000000162e430260401c611f12565b680100000000002c5c860260401c611f07565b6801000000000058b90c0260401c611efc565b638000000083166120c6575b634000000083166120b3575b632000000083166120a0575b6310000000831661208d575b6308000000831661207a575b63040000008316612067575b63020000008316612054575b6301000000831615611cff5768010000000000b172180260401c611cff565b6801000000000162e4300260401c612035565b68010000000002c5c8600260401c612029565b680100000000058b90c00260401c61201d565b6801000000000b17217f0260401c612011565b680100000000162e42ff0260401c612005565b6801000000002c5c85fe0260401c611ff9565b68010000000058b90bfc0260401c611fed565b64800000000083166121c6575b64400000000083166121b3575b64200000000083166121a0575b641000000000831661218d575b640800000000831661217a575b6404000000008316612167575b6402000000008316612154575b640100000000831615611cf357680100000000b17217f80260401c611cf3565b68010000000162e42ff10260401c612134565b680100000002c5c85fe30260401c612127565b6801000000058b90bfce0260401c61211a565b68010000000b17217fbb0260401c61210d565b6801000000162e42fff00260401c612100565b68010000002c5c8601cc0260401c6120f3565b680100000058b90c0b490260401c6120e6565b6580000000000083166122ce575b6540000000000083166122bb575b6520000000000083166122a8575b651000000000008316612295575b650800000000008316612282575b65040000000000831661226f575b65020000000000831661225c575b65010000000000831615611ce6576801000000b1721835510260401c611ce6565b680100000162e430e5a20260401c61223b565b6801000002c5c863b73f0260401c61222d565b68010000058b90cf1e6e0260401c61221f565b680100000b1721bcfc9a0260401c612211565b68010000162e43f4f8310260401c612203565b680100002c5c89d5ec6d0260401c6121f5565b6801000058b91b5bc9ae0260401c6121e7565b668000000000000083166123de575b664000000000000083166123cb575b662000000000000083166123b8575b661000000000000083166123a5575b66080000000000008316612392575b6604000000000000831661237f575b6602000000000000831661236c575b6601000000000000831615611cd85768010000b17255775c040260401c611cd8565b6801000162e525ee05470260401c61234a565b68010002c5cc37da94920260401c61233b565b680100058ba01fb9f96d0260401c61232c565b6801000b175effdc76ba0260401c61231d565b680100162f3904051fa10260401c61230e565b6801002c605e2e8cec500260401c6122ff565b68010058c86da1c09ea20260401c6122f0565b6780000000000000008216612507575b670de0b6b3a76400009067400000000000000083166124f4575b67200000000000000083166124e1575b67100000000000000083166124ce575b67080000000000000083166124bb575b67040000000000000083166124a8575b6702000000000000008316612495575b6701000000000000008316612482575b9050611cbf565b680100b1afa5abcbed610260401c61247b565b68010163da9fb33356d80260401c61246b565b680102c9a3e778060ee70260401c61245b565b6801059b0d31585743ae0260401c61244b565b68010b5586cf9890f62a0260401c61243b565b6801172b83c7d517adce0260401c61242b565b6801306fe0a31b7152df0260401c61241b565b5068016a09e667f3bcc909607f1b612401565b63b3b6ba1f60e01b5f5260045260245ffd5b630bd2f11160e11b5f5260045ffd5b9061257a90612548611b9f565b9061257461256d60ff61255a856125b2565b96169261256784866118c5565b516118d9565b91836118c5565b526125b2565b908082106125a35761258b91611930565b906125986006548361284f565b906119c382846118d9565b6346c20a6160e01b5f5260045ffd5b6714057b7ef767814f670de0b6b3a76400006125d86125d36119c394611c03565b6128e4565b02047f000000000000000000000000000000000000000000000000000000000000000061284f565b600260015414612611576002600155565b633ee5aeb560e01b5f5260045ffd5b6040516323b872dd60e01b60208201526001600160a01b039283166024820152929091166044830152606480830193909352918152612669916126646084836118fa565b6127f7565b565b60405163a9059cbb60e01b60208201526001600160a01b03929092166024830152604480830193909352918152612669916126646064836118fa565b60ff6126b1611b9f565b91166126bd81836118c5565b518084116127225750906126eb9161257461256d6126da846125b2565b956126e584866118c5565b51611930565b818111612713576126fb91611930565b906127086006548361284f565b906119c38284611930565b634296ead760e01b5f5260045ffd5b8390632a761add60e21b5f5260045260245260445ffd5b5f19670de0b6b3a7640000820991670de0b6b3a76400008202918280851094039380850394146127eb57818410156127ca57670de0b6b3a7640000829109600182190182168092046002816003021880820260020302808202600203028082026002030280820260020302808202600203028091026002030293600183805f03040190848311900302920304170290565b630c740aef60e31b5f52600452670de0b6b3a764000060245260445260645ffd5b50906119c3925061193d565b905f602091828151910182855af115611466575f513d61284657506001600160a01b0381163b155b6128265750565b635274afe760e01b5f9081526001600160a01b0391909116600452602490fd5b6001141561281f565b9091905f19838209838202918280831092039180830392146128d357670de0b6b3a76400008210156128bc577faccb18165bd6fe31ae1cf318dc5b51eee0e1ba569b88cd74c1773b91fac106699394670de0b6b3a7640000910990828211900360ee1b910360121c170290565b8490635173648d60e01b5f5260045260245260445ffd5b5050670de0b6b3a764000090049150565b670de0b6b3a764000081106129d857670de0b6b3a764000081046fffffffffffffffffffffffffffffffff811160071b90811c67ffffffffffffffff811160061b90811c63ffffffff811160051b90811c61ffff811160041b90811c9060ff821160031b91821c92600f841160021b93841c94600160038711811b96871c11961717171717171790670de0b6b3a76400008202911c670de0b6b3a764000081146129d4576706f05b59d3b2000090815b61299d57505090565b80670de0b6b3a764000091020490671bc16d674ec800008210156129c6575b60011c9081612994565b809192019160011c906129bc565b5090565b63036d32ef60e41b5f5260045260245ffdfea2646970667358221220e872048cd46f3b171153bcfc0f3d1950dcfed92612058a9bfec817e8d927e75264736f6c634300081e00332f8788117e7eff1d82e926ec794901d17c78024a50270940304540a733656f0d9e5c930214a7bc8a78d251e617445bcdba028aed2ede5828cc6cd6c8261656f5ad3228b676f7d3cd4284a5443f17f1962b36e491b30a40b2405849e597ba5fb5","linkReferences":{}},"methodIdentifiers":{"DEFAULT_ADMIN_ROLE()":"a217fddf","TREASURY_ROLE()":"d11a57ec","availableCollateral()":"1a63dfe0","availableCollateralAtFinalization()":"06de930e","buy(uint8,uint256)":"62f791c0","collateral()":"d8dfeb45","feeReserve()":"789ff0e1","finalize(uint8,bool)":"fdf21f84","fundMarket(uint256)":"90a4ccf7","getCostFunction()":"5fe054e6","getPrice(uint8)":"37f1e7f2","getRoleAdmin(bytes32)":"248a9ca3","grantRole(bytes32,address)":"2f2ff15d","hasRole(bytes32,address)":"91d14854","invalid()":"bde9e40e","liquidityB()":"24731cff","marketId()":"6ed71ede","oracle()":"7dc0d1d0","outcomeCount()":"d300cb31","outcomeToken()":"a998d6d8","outstandingShares(uint8)":"288b212f","pauseTrading(bool)":"365ec5e5","previewBuy(uint8,uint256)":"5e573804","previewSell(uint8,uint256)":"d72e818d","redeem(uint8,uint256)":"bb482f96","renounceRole(bytes32,address)":"36568abe","requestResolve()":"a0dfb902","revokeRole(bytes32,address)":"d547741f","sell(uint8,uint256)":"d9515e0b","setFee(uint256)":"69fe0e2d","state()":"c19d93fb","supportsInterface(bytes4)":"01ffc9a7","totalSharesAtFinalization()":"d43f8cca","totalVolume()":"5f81a57c","tradeFee()":"24bcdfbd","tradingEndsAt()":"dc4bac20","tradingPaused()":"53e23e2e","winningOutcome()":"9b34ae03","withdrawFees(address,uint256)":"ad3b1b47"},"id":0}