{"abi":[{"type":"constructor","inputs":[],"stateMutability":"nonpayable"},{"type":"function","name":"FAUCET_AMOUNT","inputs":[],"outputs":[{"name":"","type":"uint256","internalType":"uint256"}],"stateMutability":"view"},{"type":"function","name":"FAUCET_COOLDOWN","inputs":[],"outputs":[{"name":"","type":"uint256","internalType":"uint256"}],"stateMutability":"view"},{"type":"function","name":"allowance","inputs":[{"name":"owner","type":"address","internalType":"address"},{"name":"spender","type":"address","internalType":"address"}],"outputs":[{"name":"","type":"uint256","internalType":"uint256"}],"stateMutability":"view"},{"type":"function","name":"approve","inputs":[{"name":"spender","type":"address","internalType":"address"},{"name":"value","type":"uint256","internalType":"uint256"}],"outputs":[{"name":"","type":"bool","internalType":"bool"}],"stateMutability":"nonpayable"},{"type":"function","name":"balanceOf","inputs":[{"name":"account","type":"address","internalType":"address"}],"outputs":[{"name":"","type":"uint256","internalType":"uint256"}],"stateMutability":"view"},{"type":"function","name":"canClaimFaucet","inputs":[{"name":"user","type":"address","internalType":"address"}],"outputs":[{"name":"","type":"bool","internalType":"bool"}],"stateMutability":"view"},{"type":"function","name":"decimals","inputs":[],"outputs":[{"name":"","type":"uint8","internalType":"uint8"}],"stateMutability":"pure"},{"type":"function","name":"faucet","inputs":[],"outputs":[],"stateMutability":"nonpayable"},{"type":"function","name":"faucetCooldownRemaining","inputs":[{"name":"user","type":"address","internalType":"address"}],"outputs":[{"name":"","type":"uint256","internalType":"uint256"}],"stateMutability":"view"},{"type":"function","name":"lastFaucetClaim","inputs":[{"name":"","type":"address","internalType":"address"}],"outputs":[{"name":"","type":"uint256","internalType":"uint256"}],"stateMutability":"view"},{"type":"function","name":"mint","inputs":[{"name":"to","type":"address","internalType":"address"},{"name":"amount","type":"uint256","internalType":"uint256"}],"outputs":[],"stateMutability":"nonpayable"},{"type":"function","name":"name","inputs":[],"outputs":[{"name":"","type":"string","internalType":"string"}],"stateMutability":"view"},{"type":"function","name":"owner","inputs":[],"outputs":[{"name":"","type":"address","internalType":"address"}],"stateMutability":"view"},{"type":"function","name":"renounceOwnership","inputs":[],"outputs":[],"stateMutability":"nonpayable"},{"type":"function","name":"symbol","inputs":[],"outputs":[{"name":"","type":"string","internalType":"string"}],"stateMutability":"view"},{"type":"function","name":"totalSupply","inputs":[],"outputs":[{"name":"","type":"uint256","internalType":"uint256"}],"stateMutability":"view"},{"type":"function","name":"transfer","inputs":[{"name":"to","type":"address","internalType":"address"},{"name":"value","type":"uint256","internalType":"uint256"}],"outputs":[{"name":"","type":"bool","internalType":"bool"}],"stateMutability":"nonpayable"},{"type":"function","name":"transferFrom","inputs":[{"name":"from","type":"address","internalType":"address"},{"name":"to","type":"address","internalType":"address"},{"name":"value","type":"uint256","internalType":"uint256"}],"outputs":[{"name":"","type":"bool","internalType":"bool"}],"stateMutability":"nonpayable"},{"type":"function","name":"transferOwnership","inputs":[{"name":"newOwner","type":"address","internalType":"address"}],"outputs":[],"stateMutability":"nonpayable"},{"type":"event","name":"Approval","inputs":[{"name":"owner","type":"address","indexed":true,"internalType":"address"},{"name":"spender","type":"address","indexed":true,"internalType":"address"},{"name":"value","type":"uint256","indexed":false,"internalType":"uint256"}],"anonymous":false},{"type":"event","name":"FaucetClaimed","inputs":[{"name":"user","type":"address","indexed":true,"internalType":"address"},{"name":"amount","type":"uint256","indexed":false,"internalType":"uint256"}],"anonymous":false},{"type":"event","name":"OwnershipTransferred","inputs":[{"name":"previousOwner","type":"address","indexed":true,"internalType":"address"},{"name":"newOwner","type":"address","indexed":true,"internalType":"address"}],"anonymous":false},{"type":"event","name":"Transfer","inputs":[{"name":"from","type":"address","indexed":true,"internalType":"address"},{"name":"to","type":"address","indexed":true,"internalType":"address"},{"name":"value","type":"uint256","indexed":false,"internalType":"uint256"}],"anonymous":false},{"type":"error","name":"ERC20InsufficientAllowance","inputs":[{"name":"spender","type":"address","internalType":"address"},{"name":"allowance","type":"uint256","internalType":"uint256"},{"name":"needed","type":"uint256","internalType":"uint256"}]},{"type":"error","name":"ERC20InsufficientBalance","inputs":[{"name":"sender","type":"address","internalType":"address"},{"name":"balance","type":"uint256","internalType":"uint256"},{"name":"needed","type":"uint256","internalType":"uint256"}]},{"type":"error","name":"ERC20InvalidApprover","inputs":[{"name":"approver","type":"address","internalType":"address"}]},{"type":"error","name":"ERC20InvalidReceiver","inputs":[{"name":"receiver","type":"address","internalType":"address"}]},{"type":"error","name":"ERC20InvalidSender","inputs":[{"name":"sender","type":"address","internalType":"address"}]},{"type":"error","name":"ERC20InvalidSpender","inputs":[{"name":"spender","type":"address","internalType":"address"}]},{"type":"error","name":"OwnableInvalidOwner","inputs":[{"name":"owner","type":"address","internalType":"address"}]},{"type":"error","name":"OwnableUnauthorizedAccount","inputs":[{"name":"account","type":"address","internalType":"address"}]}],"bytecode":{"object":"0x6080604052346103df57604080519081016001600160401b038111828210176102f25760409081526009825268135bd8dac81554d11560ba1b602083015280519081016001600160401b038111828210176102f25760405260048152631554d11560e21b602082015281516001600160401b0381116102f257600354600181811c911680156103d5575b60208210146102d457601f8111610372575b50602092601f821160011461031157928192935f92610306575b50508160011b915f199060031b1c1916176003555b80516001600160401b0381116102f257600454600181811c911680156102e8575b60208210146102d457601f8111610271575b50602091601f8211600114610211579181925f92610206575b50508160011b915f199060031b1c1916176004555b33156101f35760058054336001600160a01b0319821681179092556001600160a01b03167f8be0079c531659141344cd1fd0a4f28419497f9722a3daafe3b4186f6b6457e05f80a360025464174876e80081018091116101df57600255335f525f60205260405f2064174876e800815401905560405164174876e80081525f7fddf252ad1be2c89b69c2b068fc378daa952ba7f163c4a11628f55a4df523b3ef60203393a3604051610a7190816103e48239f35b634e487b7160e01b5f52601160045260245ffd5b631e4fbdf760e01b5f525f60045260245ffd5b015190505f80610116565b601f1982169260045f52805f20915f5b85811061025957508360019510610241575b505050811b0160045561012b565b01515f1960f88460031b161c191690555f8080610233565b91926020600181928685015181550194019201610221565b60045f527f8a35acfbc15ff81a39ae7d344fd709f28e8600b4aa8c65c6b64bfe7fe36bd19b601f830160051c810191602084106102ca575b601f0160051c01905b8181106102bf57506100fd565b5f81556001016102b2565b90915081906102a9565b634e487b7160e01b5f52602260045260245ffd5b90607f16906100eb565b634e487b7160e01b5f52604160045260245ffd5b015190505f806100b5565b601f1982169360035f52805f20915f5b86811061035a5750836001959610610342575b505050811b016003556100ca565b01515f1960f88460031b161c191690555f8080610334565b91926020600181928685015181550194019201610321565b60035f527fc2575a0e9e593c00f959f8c92f12db2869c3395a3b0502d05e2516446f71f85b601f830160051c810191602084106103cb575b601f0160051c01905b8181106103c0575061009b565b5f81556001016103b3565b90915081906103aa565b90607f1690610089565b5f80fdfe60806040526004361015610011575f80fd5b5f3560e01c806301d8a296146107e257806306fdde0314610710578063095ea7b31461068e57806318160ddd1461067157806323b872dd14610592578063313ce5671461057757806340c10f191461054857806370a0823114610511578063715018a6146104b657806376697640146104965780637d1d5d191461047a5780638a877205146104425780638da5cb5b1461041a57806395d89b41146102ff578063a9059cbb146102ce578063b44bae8e146102a3578063dd62ed3e14610253578063de5f72fd146101745763f2fde38b146100ea575f80fd5b346101705760203660031901126101705761010361080f565b61010b6109b4565b6001600160a01b0316801561015d57600580546001600160a01b0319811683179091556001600160a01b03167f8be0079c531659141344cd1fd0a4f28419497f9722a3daafe3b4186f6b6457e05f80a3005b631e4fbdf760e01b5f525f60045260245ffd5b5f80fd5b34610170575f36600319011261017057335f52600660205260405f2054806101e3575b335f5260066020524260405f20556402540be4006101b581336109db565b6040519081527f5d4f415c63cd8a5874d9d291cdd64cec37e5dc236d90d659c958d109d78074b360203392a2005b610e10810180911161023f5742106101fb5780610197565b606460405162461bcd60e51b815260206004820152602060248201527f4d6f636b555344543a2046617563657420636f6f6c646f776e206163746976656044820152fd5b634e487b7160e01b5f52601160045260245ffd5b346101705760403660031901126101705761026c61080f565b610274610825565b6001600160a01b039182165f908152600160209081526040808320949093168252928352819020549051908152f35b346101705760203660031901126101705760206102c66102c161080f565b61089a565b604051908152f35b34610170576040366003190112610170576102f46102ea61080f565b60243590336108f7565b602060405160018152f35b34610170575f366003190112610170576040515f6004548060011c90600181168015610410575b6020831081146103fc578285529081156103e0575060011461038b575b50819003601f01601f191681019067ffffffffffffffff821181831017610377576103738291826040528261083b565b0390f35b634e487b7160e01b5f52604160045260245ffd5b905060045f527f8a35acfbc15ff81a39ae7d344fd709f28e8600b4aa8c65c6b64bfe7fe36bd19b5f905b8282106103ca57506020915082010182610343565b60018160209254838588010152019101906103b5565b90506020925060ff191682840152151560051b82010182610343565b634e487b7160e01b5f52602260045260245ffd5b91607f1691610326565b34610170575f366003190112610170576005546040516001600160a01b039091168152602090f35b34610170576020366003190112610170576001600160a01b0361046361080f565b165f526006602052602060405f2054604051908152f35b34610170575f366003190112610170576020604051610e108152f35b34610170575f3660031901126101705760206402540be400604051908152f35b34610170575f366003190112610170576104ce6109b4565b600580546001600160a01b031981169091555f906001600160a01b03167f8be0079c531659141344cd1fd0a4f28419497f9722a3daafe3b4186f6b6457e08280a3005b34610170576020366003190112610170576001600160a01b0361053261080f565b165f525f602052602060405f2054604051908152f35b346101705760403660031901126101705761057561056461080f565b61056c6109b4565b602435906109db565b005b34610170575f36600319011261017057602060405160068152f35b34610170576060366003190112610170576105ab61080f565b6105b3610825565b6001600160a01b0382165f818152600160209081526040808320338452909152902054909260443592915f1981106105f1575b506102f493506108f7565b838110610656578415610643573315610630576102f4945f52600160205260405f2060018060a01b0333165f526020528360405f2091039055846105e6565b634a1406b160e11b5f525f60045260245ffd5b63e602df0560e01b5f525f60045260245ffd5b8390637dc7a0d960e11b5f523360045260245260445260645ffd5b34610170575f366003190112610170576020600254604051908152f35b34610170576040366003190112610170576106a761080f565b602435903315610643576001600160a01b031690811561063057335f52600160205260405f20825f526020528060405f20556040519081527f8c5be1e5ebec7d5bd14f71427d1e84f3dd0314c0f7b2291e5b200ac8c7c3b92560203392a3602060405160018152f35b34610170575f366003190112610170576040515f6003548060011c906001811680156107d8575b6020831081146103fc578285529081156103e057506001146107835750819003601f01601f191681019067ffffffffffffffff821181831017610377576103738291826040528261083b565b905060035f527fc2575a0e9e593c00f959f8c92f12db2869c3395a3b0502d05e2516446f71f85b5f905b8282106107c257506020915082010182610343565b60018160209254838588010152019101906107ad565b91607f1691610737565b3461017057602036600319011261017057602061080561080061080f565b610865565b6040519015158152f35b600435906001600160a01b038216820361017057565b602435906001600160a01b038216820361017057565b602060409281835280519182918282860152018484015e5f828201840152601f01601f1916010190565b6001600160a01b03165f90815260066020526040902054801561089457610e10810180911161023f5742101590565b50600190565b6001600160a01b03165f81815260066020526040902054610e1081019182821161023f575f52600660205260405f20541580156108ed575b6108e757429003610e100190811161023f5790565b50505f90565b50814210156108d2565b6001600160a01b03169081156109a1576001600160a01b031691821561098e57815f525f60205260405f205481811061097557817fddf252ad1be2c89b69c2b068fc378daa952ba7f163c4a11628f55a4df523b3ef92602092855f525f84520360405f2055845f525f825260405f20818154019055604051908152a3565b8263391434e360e21b5f5260045260245260445260645ffd5b63ec442f0560e01b5f525f60045260245ffd5b634b637e8f60e11b5f525f60045260245ffd5b6005546001600160a01b031633036109c857565b63118cdaa760e01b5f523360045260245ffd5b6001600160a01b031690811561098e576002549080820180921161023f5760207fddf252ad1be2c89b69c2b068fc378daa952ba7f163c4a11628f55a4df523b3ef915f9360025584845283825260408420818154019055604051908152a356fea26469706673582212206f7da351d64447d5f7ac50e488c1727138c86a1835cbeedcdeb53231970e968e64736f6c634300081e0033","linkReferences":{}},"methodIdentifiers":{"FAUCET_AMOUNT()":"76697640","FAUCET_COOLDOWN()":"7d1d5d19","allowance(address,address)":"dd62ed3e","approve(address,uint256)":"095ea7b3","balanceOf(address)":"70a08231","canClaimFaucet(address)":"01d8a296","decimals()":"313ce567","faucet()":"de5f72fd","faucetCooldownRemaining(address)":"b44bae8e","lastFaucetClaim(address)":"8a877205","mint(address,uint256)":"40c10f19","name()":"06fdde03","owner()":"8da5cb5b","renounceOwnership()":"715018a6","symbol()":"95d89b41","totalSupply()":"18160ddd","transfer(address,uint256)":"a9059cbb","transferFrom(address,address,uint256)":"23b872dd","transferOwnership(address)":"f2fde38b"},"id":2}