{"abi":[{"type":"constructor","inputs":[{"name":"delphAI_","type":"address","internalType":"address"},{"name":"collateral_","type":"address","internalType":"address"},{"name":"treasury_","type":"address","internalType":"address"},{"name":"disputeBondBps_","type":"uint256","internalType":"uint256"}],"stateMutability":"nonpayable"},{"type":"function","name":"DEFAULT_ADMIN_ROLE","inputs":[],"outputs":[{"name":"","type":"bytes32","internalType":"bytes32"}],"stateMutability":"view"},{"type":"function","name":"DISPUTE_WINDOW","inputs":[],"outputs":[{"name":"","type":"uint64","internalType":"uint64"}],"stateMutability":"view"},{"type":"function","name":"MIN_CONFIDENCE_THRESHOLD","inputs":[],"outputs":[{"name":"","type":"uint8","internalType":"uint8"}],"stateMutability":"view"},{"type":"function","name":"calculateDisputeBond","inputs":[{"name":"market","type":"address","internalType":"address"}],"outputs":[{"name":"","type":"uint256","internalType":"uint256"}],"stateMutability":"view"},{"type":"function","name":"canDispute","inputs":[{"name":"market","type":"address","internalType":"address"}],"outputs":[{"name":"","type":"bool","internalType":"bool"}],"stateMutability":"view"},{"type":"function","name":"collateral","inputs":[],"outputs":[{"name":"","type":"address","internalType":"contract IERC20"}],"stateMutability":"view"},{"type":"function","name":"delphAI","inputs":[],"outputs":[{"name":"","type":"address","internalType":"contract IDelphAI"}],"stateMutability":"view"},{"type":"function","name":"delphAIToMarket","inputs":[{"name":"","type":"uint256","internalType":"uint256"}],"outputs":[{"name":"","type":"address","internalType":"address"}],"stateMutability":"view"},{"type":"function","name":"dispute","inputs":[{"name":"market","type":"address","internalType":"address"},{"name":"altOutcome","type":"uint8","internalType":"uint8"}],"outputs":[],"stateMutability":"payable"},{"type":"function","name":"disputeBondBps","inputs":[],"outputs":[{"name":"","type":"uint256","internalType":"uint256"}],"stateMutability":"view"},{"type":"function","name":"finalize","inputs":[{"name":"market","type":"address","internalType":"address"}],"outputs":[],"stateMutability":"nonpayable"},{"type":"function","name":"getResolution","inputs":[{"name":"market","type":"address","internalType":"address"}],"outputs":[{"name":"","type":"tuple","internalType":"struct Oracle.Resolution","components":[{"name":"delphAIMarketId","type":"uint256","internalType":"uint256"},{"name":"proposedOutcome","type":"uint8","internalType":"uint8"},{"name":"confidence","type":"uint8","internalType":"uint8"},{"name":"proposedAt","type":"uint64","internalType":"uint64"},{"name":"status","type":"uint8","internalType":"enum Oracle.ResolutionStatus"},{"name":"disputeBond","type":"uint256","internalType":"uint256"},{"name":"challenger","type":"address","internalType":"address"},{"name":"disputedOutcome","type":"uint8","internalType":"uint8"},{"name":"invalid","type":"bool","internalType":"bool"}]}],"stateMutability":"view"},{"type":"function","name":"getRoleAdmin","inputs":[{"name":"role","type":"bytes32","internalType":"bytes32"}],"outputs":[{"name":"","type":"bytes32","internalType":"bytes32"}],"stateMutability":"view"},{"type":"function","name":"grantRole","inputs":[{"name":"role","type":"bytes32","internalType":"bytes32"},{"name":"account","type":"address","internalType":"address"}],"outputs":[],"stateMutability":"nonpayable"},{"type":"function","name":"hasRole","inputs":[{"name":"role","type":"bytes32","internalType":"bytes32"},{"name":"account","type":"address","internalType":"address"}],"outputs":[{"name":"","type":"bool","internalType":"bool"}],"stateMutability":"view"},{"type":"function","name":"marketToDelphAI","inputs":[{"name":"","type":"address","internalType":"address"}],"outputs":[{"name":"","type":"uint256","internalType":"uint256"}],"stateMutability":"view"},{"type":"function","name":"registerMarket","inputs":[{"name":"market","type":"address","internalType":"address"},{"name":"delphAIMarketId","type":"uint256","internalType":"uint256"}],"outputs":[],"stateMutability":"nonpayable"},{"type":"function","name":"renounceRole","inputs":[{"name":"role","type":"bytes32","internalType":"bytes32"},{"name":"callerConfirmation","type":"address","internalType":"address"}],"outputs":[],"stateMutability":"nonpayable"},{"type":"function","name":"requestResolve","inputs":[{"name":"market","type":"address","internalType":"address"}],"outputs":[],"stateMutability":"nonpayable"},{"type":"function","name":"resolutions","inputs":[{"name":"","type":"address","internalType":"address"}],"outputs":[{"name":"delphAIMarketId","type":"uint256","internalType":"uint256"},{"name":"proposedOutcome","type":"uint8","internalType":"uint8"},{"name":"confidence","type":"uint8","internalType":"uint8"},{"name":"proposedAt","type":"uint64","internalType":"uint64"},{"name":"status","type":"uint8","internalType":"enum Oracle.ResolutionStatus"},{"name":"disputeBond","type":"uint256","internalType":"uint256"},{"name":"challenger","type":"address","internalType":"address"},{"name":"disputedOutcome","type":"uint8","internalType":"uint8"},{"name":"invalid","type":"bool","internalType":"bool"}],"stateMutability":"view"},{"type":"function","name":"resolveDispute","inputs":[{"name":"market","type":"address","internalType":"address"},{"name":"finalOutcome","type":"uint8","internalType":"uint8"},{"name":"invalid","type":"bool","internalType":"bool"}],"outputs":[],"stateMutability":"nonpayable"},{"type":"function","name":"revokeRole","inputs":[{"name":"role","type":"bytes32","internalType":"bytes32"},{"name":"account","type":"address","internalType":"address"}],"outputs":[],"stateMutability":"nonpayable"},{"type":"function","name":"setDisputeBondBps","inputs":[{"name":"newBps","type":"uint256","internalType":"uint256"}],"outputs":[],"stateMutability":"nonpayable"},{"type":"function","name":"setTreasury","inputs":[{"name":"newTreasury","type":"address","internalType":"address"}],"outputs":[],"stateMutability":"nonpayable"},{"type":"function","name":"supportsInterface","inputs":[{"name":"interfaceId","type":"bytes4","internalType":"bytes4"}],"outputs":[{"name":"","type":"bool","internalType":"bool"}],"stateMutability":"view"},{"type":"function","name":"treasury","inputs":[],"outputs":[{"name":"","type":"address","internalType":"address"}],"stateMutability":"view"},{"type":"event","name":"DisputeBondBpsUpdated","inputs":[{"name":"previousBps","type":"uint256","indexed":false,"internalType":"uint256"},{"name":"newBps","type":"uint256","indexed":false,"internalType":"uint256"}],"anonymous":false},{"type":"event","name":"DisputeBondReturned","inputs":[{"name":"market","type":"address","indexed":true,"internalType":"address"},{"name":"winner","type":"address","indexed":true,"internalType":"address"},{"name":"amount","type":"uint256","indexed":false,"internalType":"uint256"}],"anonymous":false},{"type":"event","name":"DisputeBondSlashed","inputs":[{"name":"market","type":"address","indexed":true,"internalType":"address"},{"name":"loser","type":"address","indexed":true,"internalType":"address"},{"name":"amount","type":"uint256","indexed":false,"internalType":"uint256"}],"anonymous":false},{"type":"event","name":"MarketRegistered","inputs":[{"name":"market","type":"address","indexed":true,"internalType":"address"},{"name":"delphAIMarketId","type":"uint256","indexed":true,"internalType":"uint256"}],"anonymous":false},{"type":"event","name":"ResolutionDisputed","inputs":[{"name":"market","type":"address","indexed":true,"internalType":"address"},{"name":"challenger","type":"address","indexed":true,"internalType":"address"},{"name":"altOutcome","type":"uint8","indexed":false,"internalType":"uint8"},{"name":"bond","type":"uint256","indexed":false,"internalType":"uint256"}],"anonymous":false},{"type":"event","name":"ResolutionFinalized","inputs":[{"name":"market","type":"address","indexed":true,"internalType":"address"},{"name":"finalOutcome","type":"uint8","indexed":false,"internalType":"uint8"},{"name":"invalid","type":"bool","indexed":false,"internalType":"bool"}],"anonymous":false},{"type":"event","name":"ResolutionProposed","inputs":[{"name":"market","type":"address","indexed":true,"internalType":"address"},{"name":"delphAIMarketId","type":"uint256","indexed":true,"internalType":"uint256"},{"name":"outcome","type":"uint8","indexed":false,"internalType":"uint8"},{"name":"confidence","type":"uint8","indexed":false,"internalType":"uint8"},{"name":"resolutionData","type":"string","indexed":false,"internalType":"string"}],"anonymous":false},{"type":"event","name":"RoleAdminChanged","inputs":[{"name":"role","type":"bytes32","indexed":true,"internalType":"bytes32"},{"name":"previousAdminRole","type":"bytes32","indexed":true,"internalType":"bytes32"},{"name":"newAdminRole","type":"bytes32","indexed":true,"internalType":"bytes32"}],"anonymous":false},{"type":"event","name":"RoleGranted","inputs":[{"name":"role","type":"bytes32","indexed":true,"internalType":"bytes32"},{"name":"account","type":"address","indexed":true,"internalType":"address"},{"name":"sender","type":"address","indexed":true,"internalType":"address"}],"anonymous":false},{"type":"event","name":"RoleRevoked","inputs":[{"name":"role","type":"bytes32","indexed":true,"internalType":"bytes32"},{"name":"account","type":"address","indexed":true,"internalType":"address"},{"name":"sender","type":"address","indexed":true,"internalType":"address"}],"anonymous":false},{"type":"event","name":"TreasuryUpdated","inputs":[{"name":"previousTreasury","type":"address","indexed":true,"internalType":"address"},{"name":"newTreasury","type":"address","indexed":true,"internalType":"address"}],"anonymous":false},{"type":"error","name":"AccessControlBadConfirmation","inputs":[]},{"type":"error","name":"AccessControlUnauthorizedAccount","inputs":[{"name":"account","type":"address","internalType":"address"},{"name":"neededRole","type":"bytes32","internalType":"bytes32"}]},{"type":"error","name":"Oracle_AlreadyFinalized","inputs":[{"name":"market","type":"address","internalType":"address"}]},{"type":"error","name":"Oracle_DelphAIMarketCancelled","inputs":[{"name":"delphAIMarketId","type":"uint256","internalType":"uint256"}]},{"type":"error","name":"Oracle_DelphAIMarketNotResolved","inputs":[{"name":"delphAIMarketId","type":"uint256","internalType":"uint256"}]},{"type":"error","name":"Oracle_DisputeNotAllowed","inputs":[{"name":"confidence","type":"uint8","internalType":"uint8"}]},{"type":"error","name":"Oracle_DisputeWindowActive","inputs":[{"name":"market","type":"address","internalType":"address"},{"name":"endsAt","type":"uint64","internalType":"uint64"}]},{"type":"error","name":"Oracle_DisputeWindowClosed","inputs":[{"name":"market","type":"address","internalType":"address"}]},{"type":"error","name":"Oracle_InsufficientDisputeBond","inputs":[{"name":"required","type":"uint256","internalType":"uint256"},{"name":"provided","type":"uint256","internalType":"uint256"}]},{"type":"error","name":"Oracle_InvalidAddress","inputs":[]},{"type":"error","name":"Oracle_InvalidBps","inputs":[{"name":"bps","type":"uint256","internalType":"uint256"}]},{"type":"error","name":"Oracle_InvalidOutcome","inputs":[{"name":"outcome","type":"uint8","internalType":"uint8"}]},{"type":"error","name":"Oracle_MarketAlreadyRegistered","inputs":[{"name":"market","type":"address","internalType":"address"}]},{"type":"error","name":"Oracle_MarketNotRegistered","inputs":[{"name":"market","type":"address","internalType":"address"}]},{"type":"error","name":"Oracle_ResolutionAlreadyProposed","inputs":[{"name":"market","type":"address","internalType":"address"}]},{"type":"error","name":"Oracle_ResolutionNotProposed","inputs":[{"name":"market","type":"address","internalType":"address"}]},{"type":"error","name":"ReentrancyGuardReentrantCall","inputs":[]}],"bytecode":{"object":"0x60c03461013257601f611a8038819003918201601f19168301916001600160401b0383118484101761013657808492608094604052833981010312610132576100478161014a565b906100546020820161014a565b60606100626040840161014a565b92015160018055926001600160a01b031680158015610121575b8015610110575b6101015761271084116100ee576080526001600160a01b0390811660a052600380546001600160a01b031916929091169190911790556002556100c53361015e565b5060405161187890816101e8823960805181818161028f0152611261015260a051816109f10152f35b83630650f9a160e11b5f5260045260245ffd5b6395d833f960e01b5f5260045ffd5b506001600160a01b03831615610083565b506001600160a01b0382161561007c565b5f80fd5b634e487b7160e01b5f52604160045260245ffd5b51906001600160a01b038216820361013257565b6001600160a01b0381165f9081525f516020611a605f395f51905f52602052604090205460ff166101e2576001600160a01b03165f8181525f516020611a605f395f51905f5260205260408120805460ff191660011790553391907f2f8788117e7eff1d82e926ec794901d17c78024a50270940304540a733656f0d8180a4600190565b505f9056fe6080806040526004361015610012575f80fd5b5f905f3560e01c90816301ffc9a7146112e75750806307af4fb9146112ba578063248a9ca3146112905780632620c7c91461124c5780632f2ff15d1461120f57806336568abe146111c9578063443696941461119e5780634a522b49146110315780634ef39b7514610e4457806361d027b314610e1b57806369bfe1f514610d6a57806390afa44814610cf857806391d1485414610caf5780639dc6f07814610b29578063a217fddf14610b0d578063b80c572f14610ada578063c1c7be2814610aa1578063ce06a35514610a83578063d0246dcd14610a67578063d547741f14610a20578063d8dfeb45146109db578063f0f4426014610957578063f213eab614610672578063f585dc5714610654578063f5ec303b146102105763fe3513351461013c575f80fd5b3461020d57604036600319011261020d5761015561133a565b60243590610161611619565b6001600160a01b0316808352600560205260408320546101fb578083526005602052816040842055818352600660205260408320816bffffffffffffffffffffffff60a01b825416179055808352600460205281604084205580835260046020526001604084200160ff60501b1981541690557ff556d69c3ef6a93734133c1bd6d80e99c70fbbe87d5ea8f1e5e0137c86b57e1a8380a380f35b63de51852d60e01b8352600452602482fd5b80fd5b503461020d57602036600319011261020d5761022a61133a565b610232611822565b6001600160a01b0316808252600560205260408220549081156106425780835260046020526001604084200160ff815460501c16600481101561062e5761061a5760405163eb44fdd360e01b8152600481018490529084826024817f00000000000000000000000000000000000000000000000000000000000000006001600160a01b03165afa91821561060f578592610422575b5060e082018051600381101561040e576002146103fa575160038110156103e6575f19016103d2576101008201805160ff81116103bd57505181546101608401516affffffffffffffffffffff1990911660ff92831617600891821b61ff0016174260101b69ffffffffffffffff00001617600160501b1792839055610120909301516040805184841681529390941c909116602083810191909152606093830184905281519383018490527f482a1d777dca6a359f8c134e820741c893d831554dbdbf2fab9e64a1002bb0a29360809284928291018385015e8181018301889052601f01601f19168101030190a36001805580f35b63b5c7d66d60e01b875260ff16600452602486fd5b6308d1c63360e21b85526004849052602485fd5b634e487b7160e01b86526021600452602486fd5b634f76b24f60e01b86526004859052602486fd5b634e487b7160e01b87526021600452602487fd5b9091503d8086833e61043481836113b3565b810190602081830312610607578051906001600160401b03821161060b57016101e08183031261060757604051916101e083018381106001600160401b038211176105f3576040528151835261048c6020830161152a565b602084015260408201516001600160401b0381116105ef57816104b0918401611574565b604084015260608201516001600160401b0381116105ef57816104d4918401611574565b606084015260808201516001600160401b0381116105ef57816104f8918401611591565b608084015260a082015160a084015260c082015160c084015260e082015160038110156105ef5760e08401526101008201516101008401526101208201516001600160401b0381116105ef5781610550918401611574565b6101208401526101408201516001600160401b0381116105ef5781610576918401611591565b61014084015261016082015160ff811681036105ef576101608401526101808201516001600160401b0381116105ef5782019181601f840112156105ef576105ca6101c0928460206105e29651910161153e565b6101808501526101a08101516101a08501520161152a565b6101c0820152905f6102c7565b8780fd5b634e487b7160e01b88526041600452602488fd5b8580fd5b8680fd5b6040513d87823e3d90fd5b6337d923d760e01b84526004829052602484fd5b634e487b7160e01b85526021600452602485fd5b6358cdcd7960e11b8352600452602482fd5b503461020d578060031936011261020d576020604051620151808152f35b503461020d57606036600319011261020d5761068c61133a565b610694611373565b60443580151592838203610953576106aa611619565b6106b2611822565b60018060a01b031692838552600460205260408520906001820191825460ff8160501c16600481101561093f5760020361092b5760ff1660ff8616145f1461087d5760018060a01b0360035416908780808060028501958654905af16107166114fb565b501561083957600391877f15d7afaa07a08883c7c2c59249b44f31033a5d9ff25b95001918434a056d466a602060018060a01b0386860154169354604051908152a35b835460ff191660ff871617845501805460ff60a81b191660a89290921b60ff60a81b16919091179055805460ff60501b1916600360501b179055823b1561082a57604051633f7c87e160e21b815260ff8316600482015281151560248201528490818160448183895af1801561082e57610815575b50506040805160ff909316835290151560208301527fde87200b19b456821552afd4300ad28aed6a2ef7d0816a2c7bf7051507a0783b9190819081015b0390a26001805580f35b8161081f916113b3565b61082a57835f6107ce565b8380fd5b6040513d84823e3d90fd5b606460405162461bcd60e51b815260206004820152602060248201527f4f7261636c653a207472656173757279207472616e73666572206661696c65646044820152fd5b600381019060018060a01b038254168880808060028601948554905af16108a26114fb565b50156108e757877f82fd2ea3b263ab00ee0448b6d82eb13be535d8e4b004d58d48bc8ea44a92cf4a602060039560018060a01b039054169354604051908152a3610759565b606460405162461bcd60e51b815260206004820152602060248201527f4f7261636c653a206368616c6c656e67657220726566756e64206661696c65646044820152fd5b63a2097f3d60e01b88526004879052602488fd5b634e487b7160e01b89526021600452602489fd5b8480fd5b503461020d57602036600319011261020d5761097161133a565b610979611619565b6001600160a01b031680156109cc57600380546001600160a01b0319811683179091556001600160a01b03167f4ab5be82436d353e61ca18726e984e561f5c1cc7c6d38b29d2553c790434705a8380a380f35b6395d833f960e01b8252600482fd5b503461020d578060031936011261020d576040517f00000000000000000000000000000000000000000000000000000000000000006001600160a01b03168152602090f35b503461020d57604036600319011261020d57610a63600435610a40611350565b90610a5e610a59825f525f602052600160405f20015490565b611668565b611722565b5080f35b503461020d578060031936011261020d57602060405160508152f35b503461020d578060031936011261020d576020600254604051908152f35b503461020d57602036600319011261020d576020906040906001600160a01b03610ac961133a565b168152600583522054604051908152f35b503461020d57602036600319011261020d57602090600435815260068252604060018060a01b0391205416604051908152f35b503461020d578060031936011261020d57602090604051908152f35b50604036600319011261020d57610b3e61133a565b610b46611373565b90610b4f611822565b60018060a01b03811690818452600460205260408420906001820190815460ff8160501c166004811015610c9b57600103610c87576001600160401b03610b9a818360101c166113d4565b164211610c735760081c60ff166050811015610c615750610bba906117a2565b803410610c4b5750805460ff60501b1916600160511b17905560038101805460ff60a01b19339081166001600160a81b03199092169190911760a086901b60ff60a01b16179091553460029092018290556040805160ff9590951685526020850192909252927f2244e3b132f9270bd4acf80eb3cad289f54313c6910c8c136d4cf3dea4af0ca19190a36001805580f35b630a2af04960e01b865260045234602452604485fd5b639d20a33360e01b8752600452602486fd5b63c97cc0d760e01b87526004859052602487fd5b63a2097f3d60e01b87526004859052602487fd5b634e487b7160e01b88526021600452602488fd5b503461020d57604036600319011261020d576040610ccb611350565b91600435815280602052209060018060a01b03165f52602052602060ff60405f2054166040519015158152f35b503461020d57602036600319011261020d57600435610d15611619565b6127108111610d585760407f6a3058c75b637f5b8b201d8aa0ca9cd4c5d2ab4a62e3c9513830e7e7fb2f032191600254908060025582519182526020820152a180f35b630650f9a160e11b8252600452602490fd5b503461020d57602036600319011261020d57610120906040906001600160a01b03610d9361133a565b16815260046020522060ff815491600181015490610def60036002830154920154926040519586528481166020870152848160081c1660408701526001600160401b038160101c16606087015284608087019160501c16611366565b60a084015260018060a01b03811660c0840152818160a01c1660e084015260a81c161515610100820152f35b503461020d578060031936011261020d576003546040516001600160a01b039091168152602090f35b5034610fbd576020366003190112610fbd57610e5e61133a565b610e66611822565b60018060a01b0316805f52600460205260405f2060018101805460ff8160501c1690600482101561101d57811561100a5760038214610ff757610eb66001600160401b0360029260101c166113d4565b9114610fd7576001600160401b031680421115610fc15750600360501b60ff60501b19825416178155600360ff82541692019160ff835460a81c1690843b15610fbd57604051633f7c87e160e21b815260ff91909116600482015290151560248201525f8160448183885af18015610fb257610f77575b505490546040805160ff938416815260a89290921c909216151560208201527fde87200b19b456821552afd4300ad28aed6a2ef7d0816a2c7bf7051507a0783b918190810161080b565b7fde87200b19b456821552afd4300ad28aed6a2ef7d0816a2c7bf7051507a0783b929194505f610fa6916113b3565b5f9390915060ff610f2d565b6040513d5f823e3d90fd5b5f80fd5b83632e68609160e21b5f5260045260245260445ffd5b6001600160401b039084632e68609160e21b5f526004521660245260445ffd5b84634ff2d84960e11b5f5260045260245ffd5b8463a2097f3d60e01b5f5260045260245ffd5b634e487b7160e01b5f52602160045260245ffd5b34610fbd576020366003190112610fbd5761104a61133a565b5f61010060405161105a81611383565b8281528260208201528260408201528260608201528260808201528260a08201528260c08201528260e0820152015260018060a01b03165f52600460205260405f206040516110a881611383565b815481526001820154916020820160ff84168152604083019360ff8160081c16855260ff60608501916001600160401b038160101c16835260501c16916080850193600484101561101d57611177856001600160401b0360ff9695876101209b818c98819a6101009d5281600360028b01549a60a08d019b8c5201549d8b8f9c60c0019c8d60018060a01b038216905260e082019e8f9160a01c169052019d60a81c1615158d52604051809e519052511660208d0152511660408b015251166060890152516080880190611366565b5160a0860152516001600160a01b031660c0850152511660e0830152511515610100820152f35b34610fbd576020366003190112610fbd5760206111c16111bc61133a565b6117a2565b604051908152f35b34610fbd576040366003190112610fbd576111e2611350565b336001600160a01b03821603611200576111fe90600435611722565b005b63334bd91960e11b5f5260045ffd5b34610fbd576040366003190112610fbd576111fe60043561122e611350565b90611247610a59825f525f602052600160405f20015490565b6116a0565b34610fbd575f366003190112610fbd576040517f00000000000000000000000000000000000000000000000000000000000000006001600160a01b03168152602090f35b34610fbd576020366003190112610fbd5760206111c16004355f525f602052600160405f20015490565b34610fbd576020366003190112610fbd5760206112dd6112d861133a565b611408565b6040519015158152f35b34610fbd576020366003190112610fbd576004359063ffffffff60e01b8216809203610fbd57602091637965db0b60e01b8114908115611329575b5015158152f35b6301ffc9a760e01b14905083611322565b600435906001600160a01b0382168203610fbd57565b602435906001600160a01b0382168203610fbd57565b90600482101561101d5752565b6024359060ff82168203610fbd57565b61012081019081106001600160401b0382111761139f57604052565b634e487b7160e01b5f52604160045260245ffd5b90601f801991011681019081106001600160401b0382111761139f57604052565b6001600160401b0362015180911601906001600160401b0382116113f457565b634e487b7160e01b5f52601160045260245ffd5b60018060a01b03165f52600460205260405f206040519061142882611383565b8054825260018101549060ff82166020840152604083019260ff8360081c16845260ff60608201936001600160401b038160101c16855260501c1690600482101561101d5761010060ff6003600195856080860152600281015460a08601520154858060a01b03811660c0850152818160a01c1660e085015260a81c161515910152036114da576114c36001600160401b03809251166113d4565b1642116114d55760ff60509151161090565b505f90565b50505f90565b6001600160401b03811161139f57601f01601f191660200190565b3d15611525573d9061150c826114e0565b9161151a60405193846113b3565b82523d5f602084013e565b606090565b51906001600160a01b0382168203610fbd57565b92919261154a826114e0565b9161155860405193846113b3565b829481845281830111610fbd578281602093845f96015e010152565b9080601f83011215610fbd57815161158e9260200161153e565b90565b9080601f83011215610fbd578151916001600160401b03831161139f578260051b90604051936115c460208401866113b3565b845260208085019282010191838311610fbd5760208201905b8382106115ec57505050505090565b81516001600160401b038111610fbd5760209161160e87848094880101611574565b8152019101906115dd565b335f9081527fad3228b676f7d3cd4284a5443f17f1962b36e491b30a40b2405849e597ba5fb5602052604090205460ff161561165157565b63e2517d3f60e01b5f52336004525f60245260445ffd5b5f8181526020818152604080832033845290915290205460ff161561168a5750565b63e2517d3f60e01b5f523360045260245260445ffd5b5f818152602081815260408083206001600160a01b038616845290915290205460ff166114da575f818152602081815260408083206001600160a01b0395909516808452949091528120805460ff19166001179055339291907f2f8788117e7eff1d82e926ec794901d17c78024a50270940304540a733656f0d9080a4600190565b5f818152602081815260408083206001600160a01b038616845290915290205460ff16156114da575f818152602081815260408083206001600160a01b0395909516808452949091528120805460ff19169055339291907ff6391f5c32d9c69d2a47ea670b442974b53935d1edc7fd64eb21e047a839171b9080a4600190565b604051630b9d98e960e01b815290602090829060049082906001600160a01b03165afa908115610fb2575f916117f0575b50600254908181029181830414901517156113f457612710900490565b90506020813d60201161181a575b8161180b602093836113b3565b81010312610fbd57515f6117d3565b3d91506117fe565b600260015414611833576002600155565b633ee5aeb560e01b5f5260045ffdfea2646970667358221220b7fee0e50dc9bfdd38576140e269d97c5e0fb42bc71e5ae097186ef0e3baef8564736f6c634300081e0033ad3228b676f7d3cd4284a5443f17f1962b36e491b30a40b2405849e597ba5fb5","linkReferences":{}},"methodIdentifiers":{"DEFAULT_ADMIN_ROLE()":"a217fddf","DISPUTE_WINDOW()":"f585dc57","MIN_CONFIDENCE_THRESHOLD()":"d0246dcd","calculateDisputeBond(address)":"44369694","canDispute(address)":"07af4fb9","collateral()":"d8dfeb45","delphAI()":"2620c7c9","delphAIToMarket(uint256)":"b80c572f","dispute(address,uint8)":"9dc6f078","disputeBondBps()":"ce06a355","finalize(address)":"4ef39b75","getResolution(address)":"4a522b49","getRoleAdmin(bytes32)":"248a9ca3","grantRole(bytes32,address)":"2f2ff15d","hasRole(bytes32,address)":"91d14854","marketToDelphAI(address)":"c1c7be28","registerMarket(address,uint256)":"fe351335","renounceRole(bytes32,address)":"36568abe","requestResolve(address)":"f5ec303b","resolutions(address)":"69bfe1f5","resolveDispute(address,uint8,bool)":"f213eab6","revokeRole(bytes32,address)":"d547741f","setDisputeBondBps(uint256)":"90afa448","setTreasury(address)":"f0f44260","supportsInterface(bytes4)":"01ffc9a7","treasury()":"61d027b3"},"id":2}