{"abi":[{"type":"constructor","inputs":[{"name":"delphAI_","type":"address","internalType":"address"},{"name":"collateral_","type":"address","internalType":"address"},{"name":"treasury_","type":"address","internalType":"address"},{"name":"disputeBondBps_","type":"uint256","internalType":"uint256"}],"stateMutability":"nonpayable"},{"type":"function","name":"DEFAULT_ADMIN_ROLE","inputs":[],"outputs":[{"name":"","type":"bytes32","internalType":"bytes32"}],"stateMutability":"view"},{"type":"function","name":"DISPUTE_WINDOW","inputs":[],"outputs":[{"name":"","type":"uint64","internalType":"uint64"}],"stateMutability":"view"},{"type":"function","name":"MIN_CONFIDENCE_THRESHOLD","inputs":[],"outputs":[{"name":"","type":"uint8","internalType":"uint8"}],"stateMutability":"view"},{"type":"function","name":"calculateDisputeBond","inputs":[{"name":"market","type":"address","internalType":"address"}],"outputs":[{"name":"","type":"uint256","internalType":"uint256"}],"stateMutability":"view"},{"type":"function","name":"canDispute","inputs":[{"name":"market","type":"address","internalType":"address"}],"outputs":[{"name":"","type":"bool","internalType":"bool"}],"stateMutability":"view"},{"type":"function","name":"collateral","inputs":[],"outputs":[{"name":"","type":"address","internalType":"contract IERC20"}],"stateMutability":"view"},{"type":"function","name":"delphAI","inputs":[],"outputs":[{"name":"","type":"address","internalType":"contract IDelphAI"}],"stateMutability":"view"},{"type":"function","name":"delphAIToMarket","inputs":[{"name":"","type":"uint256","internalType":"uint256"}],"outputs":[{"name":"","type":"address","internalType":"address"}],"stateMutability":"view"},{"type":"function","name":"dispute","inputs":[{"name":"market","type":"address","internalType":"address"},{"name":"altOutcome","type":"uint8","internalType":"uint8"}],"outputs":[],"stateMutability":"nonpayable"},{"type":"function","name":"disputeBondBps","inputs":[],"outputs":[{"name":"","type":"uint256","internalType":"uint256"}],"stateMutability":"view"},{"type":"function","name":"finalize","inputs":[{"name":"market","type":"address","internalType":"address"}],"outputs":[],"stateMutability":"nonpayable"},{"type":"function","name":"getResolution","inputs":[{"name":"market","type":"address","internalType":"address"}],"outputs":[{"name":"","type":"tuple","internalType":"struct Oracle.Resolution","components":[{"name":"delphAIMarketId","type":"uint256","internalType":"uint256"},{"name":"proposedOutcome","type":"uint8","internalType":"uint8"},{"name":"confidence","type":"uint8","internalType":"uint8"},{"name":"proposedAt","type":"uint64","internalType":"uint64"},{"name":"status","type":"uint8","internalType":"enum Oracle.ResolutionStatus"},{"name":"disputeBond","type":"uint256","internalType":"uint256"},{"name":"challenger","type":"address","internalType":"address"},{"name":"disputedOutcome","type":"uint8","internalType":"uint8"},{"name":"invalid","type":"bool","internalType":"bool"}]}],"stateMutability":"view"},{"type":"function","name":"getRoleAdmin","inputs":[{"name":"role","type":"bytes32","internalType":"bytes32"}],"outputs":[{"name":"","type":"bytes32","internalType":"bytes32"}],"stateMutability":"view"},{"type":"function","name":"grantRole","inputs":[{"name":"role","type":"bytes32","internalType":"bytes32"},{"name":"account","type":"address","internalType":"address"}],"outputs":[],"stateMutability":"nonpayable"},{"type":"function","name":"hasRole","inputs":[{"name":"role","type":"bytes32","internalType":"bytes32"},{"name":"account","type":"address","internalType":"address"}],"outputs":[{"name":"","type":"bool","internalType":"bool"}],"stateMutability":"view"},{"type":"function","name":"marketToDelphAI","inputs":[{"name":"","type":"address","internalType":"address"}],"outputs":[{"name":"","type":"uint256","internalType":"uint256"}],"stateMutability":"view"},{"type":"function","name":"registerMarket","inputs":[{"name":"market","type":"address","internalType":"address"},{"name":"delphAIMarketId","type":"uint256","internalType":"uint256"}],"outputs":[],"stateMutability":"nonpayable"},{"type":"function","name":"renounceRole","inputs":[{"name":"role","type":"bytes32","internalType":"bytes32"},{"name":"callerConfirmation","type":"address","internalType":"address"}],"outputs":[],"stateMutability":"nonpayable"},{"type":"function","name":"requestResolve","inputs":[{"name":"market","type":"address","internalType":"address"}],"outputs":[],"stateMutability":"nonpayable"},{"type":"function","name":"resolutions","inputs":[{"name":"","type":"address","internalType":"address"}],"outputs":[{"name":"delphAIMarketId","type":"uint256","internalType":"uint256"},{"name":"proposedOutcome","type":"uint8","internalType":"uint8"},{"name":"confidence","type":"uint8","internalType":"uint8"},{"name":"proposedAt","type":"uint64","internalType":"uint64"},{"name":"status","type":"uint8","internalType":"enum Oracle.ResolutionStatus"},{"name":"disputeBond","type":"uint256","internalType":"uint256"},{"name":"challenger","type":"address","internalType":"address"},{"name":"disputedOutcome","type":"uint8","internalType":"uint8"},{"name":"invalid","type":"bool","internalType":"bool"}],"stateMutability":"view"},{"type":"function","name":"resolveDispute","inputs":[{"name":"market","type":"address","internalType":"address"},{"name":"finalOutcome","type":"uint8","internalType":"uint8"},{"name":"invalid","type":"bool","internalType":"bool"}],"outputs":[],"stateMutability":"nonpayable"},{"type":"function","name":"revokeRole","inputs":[{"name":"role","type":"bytes32","internalType":"bytes32"},{"name":"account","type":"address","internalType":"address"}],"outputs":[],"stateMutability":"nonpayable"},{"type":"function","name":"setDisputeBondBps","inputs":[{"name":"newBps","type":"uint256","internalType":"uint256"}],"outputs":[],"stateMutability":"nonpayable"},{"type":"function","name":"setTreasury","inputs":[{"name":"newTreasury","type":"address","internalType":"address"}],"outputs":[],"stateMutability":"nonpayable"},{"type":"function","name":"supportsInterface","inputs":[{"name":"interfaceId","type":"bytes4","internalType":"bytes4"}],"outputs":[{"name":"","type":"bool","internalType":"bool"}],"stateMutability":"view"},{"type":"function","name":"treasury","inputs":[],"outputs":[{"name":"","type":"address","internalType":"address"}],"stateMutability":"view"},{"type":"event","name":"DisputeBondBpsUpdated","inputs":[{"name":"previousBps","type":"uint256","indexed":false,"internalType":"uint256"},{"name":"newBps","type":"uint256","indexed":false,"internalType":"uint256"}],"anonymous":false},{"type":"event","name":"DisputeBondReturned","inputs":[{"name":"market","type":"address","indexed":true,"internalType":"address"},{"name":"winner","type":"address","indexed":true,"internalType":"address"},{"name":"amount","type":"uint256","indexed":false,"internalType":"uint256"}],"anonymous":false},{"type":"event","name":"DisputeBondSlashed","inputs":[{"name":"market","type":"address","indexed":true,"internalType":"address"},{"name":"loser","type":"address","indexed":true,"internalType":"address"},{"name":"amount","type":"uint256","indexed":false,"internalType":"uint256"}],"anonymous":false},{"type":"event","name":"MarketRegistered","inputs":[{"name":"market","type":"address","indexed":true,"internalType":"address"},{"name":"delphAIMarketId","type":"uint256","indexed":true,"internalType":"uint256"}],"anonymous":false},{"type":"event","name":"ResolutionDisputed","inputs":[{"name":"market","type":"address","indexed":true,"internalType":"address"},{"name":"challenger","type":"address","indexed":true,"internalType":"address"},{"name":"altOutcome","type":"uint8","indexed":false,"internalType":"uint8"},{"name":"bond","type":"uint256","indexed":false,"internalType":"uint256"}],"anonymous":false},{"type":"event","name":"ResolutionFinalized","inputs":[{"name":"market","type":"address","indexed":true,"internalType":"address"},{"name":"finalOutcome","type":"uint8","indexed":false,"internalType":"uint8"},{"name":"invalid","type":"bool","indexed":false,"internalType":"bool"}],"anonymous":false},{"type":"event","name":"ResolutionProposed","inputs":[{"name":"market","type":"address","indexed":true,"internalType":"address"},{"name":"delphAIMarketId","type":"uint256","indexed":true,"internalType":"uint256"},{"name":"outcome","type":"uint8","indexed":false,"internalType":"uint8"},{"name":"confidence","type":"uint8","indexed":false,"internalType":"uint8"},{"name":"resolutionData","type":"string","indexed":false,"internalType":"string"}],"anonymous":false},{"type":"event","name":"RoleAdminChanged","inputs":[{"name":"role","type":"bytes32","indexed":true,"internalType":"bytes32"},{"name":"previousAdminRole","type":"bytes32","indexed":true,"internalType":"bytes32"},{"name":"newAdminRole","type":"bytes32","indexed":true,"internalType":"bytes32"}],"anonymous":false},{"type":"event","name":"RoleGranted","inputs":[{"name":"role","type":"bytes32","indexed":true,"internalType":"bytes32"},{"name":"account","type":"address","indexed":true,"internalType":"address"},{"name":"sender","type":"address","indexed":true,"internalType":"address"}],"anonymous":false},{"type":"event","name":"RoleRevoked","inputs":[{"name":"role","type":"bytes32","indexed":true,"internalType":"bytes32"},{"name":"account","type":"address","indexed":true,"internalType":"address"},{"name":"sender","type":"address","indexed":true,"internalType":"address"}],"anonymous":false},{"type":"event","name":"TreasuryUpdated","inputs":[{"name":"previousTreasury","type":"address","indexed":true,"internalType":"address"},{"name":"newTreasury","type":"address","indexed":true,"internalType":"address"}],"anonymous":false},{"type":"error","name":"AccessControlBadConfirmation","inputs":[]},{"type":"error","name":"AccessControlUnauthorizedAccount","inputs":[{"name":"account","type":"address","internalType":"address"},{"name":"neededRole","type":"bytes32","internalType":"bytes32"}]},{"type":"error","name":"Oracle_AlreadyFinalized","inputs":[{"name":"market","type":"address","internalType":"address"}]},{"type":"error","name":"Oracle_DelphAIMarketCancelled","inputs":[{"name":"delphAIMarketId","type":"uint256","internalType":"uint256"}]},{"type":"error","name":"Oracle_DelphAIMarketNotResolved","inputs":[{"name":"delphAIMarketId","type":"uint256","internalType":"uint256"}]},{"type":"error","name":"Oracle_DisputeNotAllowed","inputs":[{"name":"confidence","type":"uint8","internalType":"uint8"}]},{"type":"error","name":"Oracle_DisputeWindowActive","inputs":[{"name":"market","type":"address","internalType":"address"},{"name":"endsAt","type":"uint64","internalType":"uint64"}]},{"type":"error","name":"Oracle_DisputeWindowClosed","inputs":[{"name":"market","type":"address","internalType":"address"}]},{"type":"error","name":"Oracle_InsufficientDisputeBond","inputs":[{"name":"required","type":"uint256","internalType":"uint256"},{"name":"provided","type":"uint256","internalType":"uint256"}]},{"type":"error","name":"Oracle_InvalidAddress","inputs":[]},{"type":"error","name":"Oracle_InvalidBps","inputs":[{"name":"bps","type":"uint256","internalType":"uint256"}]},{"type":"error","name":"Oracle_InvalidOutcome","inputs":[{"name":"outcome","type":"uint8","internalType":"uint8"}]},{"type":"error","name":"Oracle_MarketAlreadyRegistered","inputs":[{"name":"market","type":"address","internalType":"address"}]},{"type":"error","name":"Oracle_MarketNotRegistered","inputs":[{"name":"market","type":"address","internalType":"address"}]},{"type":"error","name":"Oracle_ResolutionAlreadyProposed","inputs":[{"name":"market","type":"address","internalType":"address"}]},{"type":"error","name":"Oracle_ResolutionNotProposed","inputs":[{"name":"market","type":"address","internalType":"address"}]},{"type":"error","name":"ReentrancyGuardReentrantCall","inputs":[]},{"type":"error","name":"SafeERC20FailedOperation","inputs":[{"name":"token","type":"address","internalType":"address"}]}],"bytecode":{"object":"0x60c03461014757601f611c7438819003918201601f19168301916001600160401b0383118484101761014b57808492608094604052833981010312610147576100478161015f565b906100546020820161015f565b60606100626040840161015f565b92015160018055926001600160a01b031680158015610136575b8015610125575b610116576127108411610103576080526001600160a01b0390811660a052600380546001600160a01b031916929091169190911790556002556100c533610173565b50604051611a5790816101fd823960805181818161028f01526113d3015260a05181818161078d0152818161090a01528181610a9f0152610cdb0152f35b83630650f9a160e11b5f5260045260245ffd5b6395d833f960e01b5f5260045ffd5b506001600160a01b03831615610083565b506001600160a01b0382161561007c565b5f80fd5b634e487b7160e01b5f52604160045260245ffd5b51906001600160a01b038216820361014757565b6001600160a01b0381165f9081525f516020611c545f395f51905f52602052604090205460ff166101f7576001600160a01b03165f8181525f516020611c545f395f51905f5260205260408120805460ff191660011790553391907f2f8788117e7eff1d82e926ec794901d17c78024a50270940304540a733656f0d8180a4600190565b505f9056fe6080806040526004361015610012575f80fd5b5f905f3560e01c90816301ffc9a7146114595750806307af4fb91461142c578063248a9ca3146114025780632620c7c9146113be5780632f2ff15d1461138157806336568abe1461133b57806344369694146113105780634a522b49146111a35780634ef39b7514610fb657806361d027b314610f8d57806369bfe1f514610edc57806390afa44814610e6a57806391d1485414610e215780639dc6f07814610bd7578063a217fddf14610bbb578063b80c572f14610b88578063c1c7be2814610b4f578063ce06a35514610b31578063d0246dcd14610b15578063d547741f14610ace578063d8dfeb4514610a89578063f0f4426014610a05578063f213eab6146106e7578063f585dc57146106c9578063f5ec303b146102105763fe3513351461013c575f80fd5b3461020d57604036600319011261020d576101556114ac565b6024359061016161175e565b6001600160a01b0316808352600560205260408320546101fb578083526005602052816040842055818352600660205260408320816bffffffffffffffffffffffff60a01b825416179055808352600460205281604084205580835260046020526001604084200160ff60501b1981541690557ff556d69c3ef6a93734133c1bd6d80e99c70fbbe87d5ea8f1e5e0137c86b57e1a8380a380f35b63de51852d60e01b8352600452602482fd5b80fd5b503461020d57602036600319011261020d5761022a6114ac565b610232611967565b6001600160a01b0316808252600560205260408220549081156106b75780835260046020526001604084200160ff815460501c1660048110156106a35761068f5760405163eb44fdd360e01b8152600481018490529084826024817f00000000000000000000000000000000000000000000000000000000000000006001600160a01b03165afa91821561068457859261049e575b5060e082018051600381101561048a5760021461047657516003811015610462575f190161044e576101008201805160ff81116103f0575060405163d300cb3160e01b8152602081600481885afa908115610443578791610405575b5060ff825191168110156103f057505181546101608401516affffffffffffffffffffff1990911660ff92831617600891821b61ff0016174260101b69ffffffffffffffff00001617600160501b1792839055610120909301516040805184841681529390941c909116602083810191909152606093830184905281519383018490527f482a1d777dca6a359f8c134e820741c893d831554dbdbf2fab9e64a1002bb0a29360809284928291018385015e8181018301889052601f01601f19168101030190a36001805580f35b63b5c7d66d60e01b875260ff16600452602486fd5b90506020813d60201161043b575b8161042060209383611525565b810103126104375761043190611652565b5f610323565b8680fd5b3d9150610413565b6040513d89823e3d90fd5b6308d1c63360e21b85526004849052602485fd5b634e487b7160e01b86526021600452602486fd5b634f76b24f60e01b86526004859052602486fd5b634e487b7160e01b87526021600452602487fd5b9091503d8086833e6104b08183611525565b810190602081830312610680578051906001600160401b03821161043757016101e08183031261068057604051916101e083018381106001600160401b0382111761066c576040528151835261050860208301611660565b602084015260408201516001600160401b038111610668578161052c9184016116b9565b604084015260608201516001600160401b03811161066857816105509184016116b9565b606084015260808201516001600160401b03811161066857816105749184016116d6565b608084015260a082015160a084015260c082015160c084015260e082015160038110156106685760e08401526101008201516101008401526101208201516001600160401b03811161066857816105cc9184016116b9565b6101208401526101408201516001600160401b03811161066857816105f29184016116d6565b6101408401526106056101608301611652565b6101608401526101808201516001600160401b0381116106685782019181601f84011215610668576106436101c09284602061065b96519101611674565b6101808501526101a08101516101a085015201611660565b6101c0820152905f6102c7565b8780fd5b634e487b7160e01b88526041600452602488fd5b8580fd5b6040513d87823e3d90fd5b6337d923d760e01b84526004829052602484fd5b634e487b7160e01b85526021600452602485fd5b6358cdcd7960e11b8352600452602482fd5b503461020d578060031936011261020d576020604051620151808152f35b503461020d57606036600319011261020d576107016114ac565b6107096114e5565b60443580158015938483036106805761072061175e565b610728611967565b60018060a01b031693848652600460205260408620600181019283549060ff8260501c1660048110156109f1576002036109dd57610949575b9060ff6003921660ff8716145f146108cb57815460028201805490916107b191906001600160a01b03167f0000000000000000000000000000000000000000000000000000000000000000611987565b877f15d7afaa07a08883c7c2c59249b44f31033a5d9ff25b95001918434a056d466a602060018060a01b0386860154169354604051908152a35b835460ff191660ff871617845501805460ff60a81b191660a89290921b60ff60a81b16919091179055805460ff60501b1916600360501b179055823b156108bc57604051633f7c87e160e21b815260ff8316600482015281151560248201528490818160448183895af180156108c0576108a7575b50506040805160ff909316835290151560208301527fde87200b19b456821552afd4300ad28aed6a2ef7d0816a2c7bf7051507a0783b9190819081015b0390a26001805580f35b816108b191611525565b6108bc57835f610860565b8380fd5b6040513d84823e3d90fd5b818101877f82fd2ea3b263ab00ee0448b6d82eb13be535d8e4b004d58d48bc8ea44a92cf4a602060018060a01b038454169361092e60028701958654907f0000000000000000000000000000000000000000000000000000000000000000611987565b5493546040519081526001600160a01b0390941693a36107eb565b60405163d300cb3160e01b81526020816004818b5afa9081156109d2578991610994575b5060ff80881691168110156109825750610761565b63b5c7d66d60e01b8952600452602488fd5b90506020813d6020116109ca575b816109af60209383611525565b810103126109c6576109c090611652565b5f61096d565b8880fd5b3d91506109a2565b6040513d8b823e3d90fd5b63a2097f3d60e01b89526004889052602489fd5b634e487b7160e01b8a52602160045260248afd5b503461020d57602036600319011261020d57610a1f6114ac565b610a2761175e565b6001600160a01b03168015610a7a57600380546001600160a01b0319811683179091556001600160a01b03167f4ab5be82436d353e61ca18726e984e561f5c1cc7c6d38b29d2553c790434705a8380a380f35b6395d833f960e01b8252600482fd5b503461020d578060031936011261020d576040517f00000000000000000000000000000000000000000000000000000000000000006001600160a01b03168152602090f35b503461020d57604036600319011261020d57610b11600435610aee6114c2565b90610b0c610b07825f525f602052600160405f20015490565b6117ad565b611867565b5080f35b503461020d578060031936011261020d57602060405160508152f35b503461020d578060031936011261020d576020600254604051908152f35b503461020d57602036600319011261020d576020906040906001600160a01b03610b776114ac565b168152600583522054604051908152f35b503461020d57602036600319011261020d57602090600435815260068252604060018060a01b0391205416604051908152f35b503461020d578060031936011261020d57602090604051908152f35b503461020d57604036600319011261020d57610bf16114ac565b610bf96114e5565b610c01611967565b60018060a01b038216908184526004602052604084206001810190815460ff8160501c166004811015610e0d57600103610df9576001600160401b03610c4b818360101c16611546565b164211610de55760081c60ff166050811015610dd3575060405163d300cb3160e01b815294602086600481885afa958615610443578796610d97575b5060ff8085169616861015610d835790610ca26002926118e7565b938493610cff6040516323b872dd60e01b602082015233602482015230604482015286606482015260648152610cd9608482611525565b7f00000000000000000000000000000000000000000000000000000000000000006119c9565b805460ff60501b1916600160511b17905560038201805460ff60a01b19339081166001600160a81b03199092169190911760a09390931b60ff60a01b16929092179055910191909155604080519485526020850192909252927f2244e3b132f9270bd4acf80eb3cad289f54313c6910c8c136d4cf3dea4af0ca19190a36001805580f35b63b5c7d66d60e01b87526004869052602487fd5b9095506020813d602011610dcb575b81610db360209383611525565b8101031261043757610dc490611652565b945f610c87565b3d9150610da6565b639d20a33360e01b8752600452602486fd5b63c97cc0d760e01b87526004859052602487fd5b63a2097f3d60e01b87526004859052602487fd5b634e487b7160e01b88526021600452602488fd5b503461020d57604036600319011261020d576040610e3d6114c2565b91600435815280602052209060018060a01b03165f52602052602060ff60405f2054166040519015158152f35b503461020d57602036600319011261020d57600435610e8761175e565b6127108111610eca5760407f6a3058c75b637f5b8b201d8aa0ca9cd4c5d2ab4a62e3c9513830e7e7fb2f032191600254908060025582519182526020820152a180f35b630650f9a160e11b8252600452602490fd5b503461020d57602036600319011261020d57610120906040906001600160a01b03610f056114ac565b16815260046020522060ff815491600181015490610f6160036002830154920154926040519586528481166020870152848160081c1660408701526001600160401b038160101c16606087015284608087019160501c166114d8565b60a084015260018060a01b03811660c0840152818160a01c1660e084015260a81c161515610100820152f35b503461020d578060031936011261020d576003546040516001600160a01b039091168152602090f35b503461112f57602036600319011261112f57610fd06114ac565b610fd8611967565b60018060a01b0316805f52600460205260405f2060018101805460ff8160501c1690600482101561118f57811561117c5760038214611169576110286001600160401b0360029260101c16611546565b9114611149576001600160401b0316804211156111335750600360501b60ff60501b19825416178155600360ff82541692019160ff835460a81c1690843b1561112f57604051633f7c87e160e21b815260ff91909116600482015290151560248201525f8160448183885af18015611124576110e9575b505490546040805160ff938416815260a89290921c909216151560208201527fde87200b19b456821552afd4300ad28aed6a2ef7d0816a2c7bf7051507a0783b918190810161089d565b7fde87200b19b456821552afd4300ad28aed6a2ef7d0816a2c7bf7051507a0783b929194505f61111891611525565b5f9390915060ff61109f565b6040513d5f823e3d90fd5b5f80fd5b83632e68609160e21b5f5260045260245260445ffd5b6001600160401b039084632e68609160e21b5f526004521660245260445ffd5b84634ff2d84960e11b5f5260045260245ffd5b8463a2097f3d60e01b5f5260045260245ffd5b634e487b7160e01b5f52602160045260245ffd5b3461112f57602036600319011261112f576111bc6114ac565b5f6101006040516111cc816114f5565b8281528260208201528260408201528260608201528260808201528260a08201528260c08201528260e0820152015260018060a01b03165f52600460205260405f2060405161121a816114f5565b815481526001820154916020820160ff84168152604083019360ff8160081c16855260ff60608501916001600160401b038160101c16835260501c16916080850193600484101561118f576112e9856001600160401b0360ff9695876101209b818c98819a6101009d5281600360028b01549a60a08d019b8c5201549d8b8f9c60c0019c8d60018060a01b038216905260e082019e8f9160a01c169052019d60a81c1615158d52604051809e519052511660208d0152511660408b0152511660608901525160808801906114d8565b5160a0860152516001600160a01b031660c0850152511660e0830152511515610100820152f35b3461112f57602036600319011261112f57602061133361132e6114ac565b6118e7565b604051908152f35b3461112f57604036600319011261112f576113546114c2565b336001600160a01b038216036113725761137090600435611867565b005b63334bd91960e11b5f5260045ffd5b3461112f57604036600319011261112f576113706004356113a06114c2565b906113b9610b07825f525f602052600160405f20015490565b6117e5565b3461112f575f36600319011261112f576040517f00000000000000000000000000000000000000000000000000000000000000006001600160a01b03168152602090f35b3461112f57602036600319011261112f5760206113336004355f525f602052600160405f20015490565b3461112f57602036600319011261112f57602061144f61144a6114ac565b61157a565b6040519015158152f35b3461112f57602036600319011261112f576004359063ffffffff60e01b821680920361112f57602091637965db0b60e01b811490811561149b575b5015158152f35b6301ffc9a760e01b14905083611494565b600435906001600160a01b038216820361112f57565b602435906001600160a01b038216820361112f57565b90600482101561118f5752565b6024359060ff8216820361112f57565b61012081019081106001600160401b0382111761151157604052565b634e487b7160e01b5f52604160045260245ffd5b90601f801991011681019081106001600160401b0382111761151157604052565b6001600160401b0362015180911601906001600160401b03821161156657565b634e487b7160e01b5f52601160045260245ffd5b60018060a01b03165f52600460205260405f206040519061159a826114f5565b8054825260018101549060ff82166020840152604083019260ff8360081c16845260ff60608201936001600160401b038160101c16855260501c1690600482101561118f5761010060ff6003600195856080860152600281015460a08601520154858060a01b03811660c0850152818160a01c1660e085015260a81c1615159101520361164c576116356001600160401b0380925116611546565b1642116116475760ff60509151161090565b505f90565b50505f90565b519060ff8216820361112f57565b51906001600160a01b038216820361112f57565b9291926001600160401b038211611511576040519161169d601f8201601f191660200184611525565b82948184528183011161112f578281602093845f96015e010152565b9080601f8301121561112f5781516116d392602001611674565b90565b9080601f8301121561112f578151916001600160401b038311611511578260051b90604051936117096020840186611525565b84526020808501928201019183831161112f5760208201905b83821061173157505050505090565b81516001600160401b03811161112f57602091611753878480948801016116b9565b815201910190611722565b335f9081527fad3228b676f7d3cd4284a5443f17f1962b36e491b30a40b2405849e597ba5fb5602052604090205460ff161561179657565b63e2517d3f60e01b5f52336004525f60245260445ffd5b5f8181526020818152604080832033845290915290205460ff16156117cf5750565b63e2517d3f60e01b5f523360045260245260445ffd5b5f818152602081815260408083206001600160a01b038616845290915290205460ff1661164c575f818152602081815260408083206001600160a01b0395909516808452949091528120805460ff19166001179055339291907f2f8788117e7eff1d82e926ec794901d17c78024a50270940304540a733656f0d9080a4600190565b5f818152602081815260408083206001600160a01b038616845290915290205460ff161561164c575f818152602081815260408083206001600160a01b0395909516808452949091528120805460ff19169055339291907ff6391f5c32d9c69d2a47ea670b442974b53935d1edc7fd64eb21e047a839171b9080a4600190565b604051630b9d98e960e01b815290602090829060049082906001600160a01b03165afa908115611124575f91611935575b506002549081810291818304149015171561156657612710900490565b90506020813d60201161195f575b8161195060209383611525565b8101031261112f57515f611918565b3d9150611943565b600260015414611978576002600155565b633ee5aeb560e01b5f5260045ffd5b60405163a9059cbb60e01b60208201526001600160a01b0390921660248301526044808301939093529181526119c7916119c2606483611525565b6119c9565b565b905f602091828151910182855af115611124575f513d611a1857506001600160a01b0381163b155b6119f85750565b635274afe760e01b5f9081526001600160a01b0391909116600452602490fd5b600114156119f156fea2646970667358221220df24d43e65bdb4ea8c0053257b4c611a75873d9a5cd79ed7e2583c0085538a7d64736f6c634300081e0033ad3228b676f7d3cd4284a5443f17f1962b36e491b30a40b2405849e597ba5fb5","linkReferences":{}},"methodIdentifiers":{"DEFAULT_ADMIN_ROLE()":"a217fddf","DISPUTE_WINDOW()":"f585dc57","MIN_CONFIDENCE_THRESHOLD()":"d0246dcd","calculateDisputeBond(address)":"44369694","canDispute(address)":"07af4fb9","collateral()":"d8dfeb45","delphAI()":"2620c7c9","delphAIToMarket(uint256)":"b80c572f","dispute(address,uint8)":"9dc6f078","disputeBondBps()":"ce06a355","finalize(address)":"4ef39b75","getResolution(address)":"4a522b49","getRoleAdmin(bytes32)":"248a9ca3","grantRole(bytes32,address)":"2f2ff15d","hasRole(bytes32,address)":"91d14854","marketToDelphAI(address)":"c1c7be28","registerMarket(address,uint256)":"fe351335","renounceRole(bytes32,address)":"36568abe","requestResolve(address)":"f5ec303b","resolutions(address)":"69bfe1f5","resolveDispute(address,uint8,bool)":"f213eab6","revokeRole(bytes32,address)":"d547741f","setDisputeBondBps(uint256)":"90afa448","setTreasury(address)":"f0f44260","supportsInterface(bytes4)":"01ffc9a7","treasury()":"61d027b3"},"id":3}