{"abi":[{"type":"constructor","inputs":[{"name":"_outcomeToken","type":"address","internalType":"address"}],"stateMutability":"nonpayable"},{"type":"function","name":"DEFAULT_ADMIN_ROLE","inputs":[],"outputs":[{"name":"","type":"bytes32","internalType":"bytes32"}],"stateMutability":"view"},{"type":"function","name":"PAUSER_ROLE","inputs":[],"outputs":[{"name":"","type":"bytes32","internalType":"bytes32"}],"stateMutability":"view"},{"type":"function","name":"buyWithPermit","inputs":[{"name":"marketId","type":"uint256","internalType":"uint256"},{"name":"outcome","type":"uint8","internalType":"uint8"},{"name":"shareDelta","type":"uint256","internalType":"uint256"},{"name":"maxCost","type":"uint256","internalType":"uint256"},{"name":"permitDeadline","type":"uint256","internalType":"uint256"},{"name":"permitV","type":"uint8","internalType":"uint8"},{"name":"permitR","type":"bytes32","internalType":"bytes32"},{"name":"permitS","type":"bytes32","internalType":"bytes32"}],"outputs":[{"name":"totalCost","type":"uint256","internalType":"uint256"}],"stateMutability":"nonpayable"},{"type":"function","name":"getMarket","inputs":[{"name":"marketId","type":"uint256","internalType":"uint256"}],"outputs":[{"name":"","type":"address","internalType":"address"}],"stateMutability":"view"},{"type":"function","name":"getRoleAdmin","inputs":[{"name":"role","type":"bytes32","internalType":"bytes32"}],"outputs":[{"name":"","type":"bytes32","internalType":"bytes32"}],"stateMutability":"view"},{"type":"function","name":"grantRole","inputs":[{"name":"role","type":"bytes32","internalType":"bytes32"},{"name":"account","type":"address","internalType":"address"}],"outputs":[],"stateMutability":"nonpayable"},{"type":"function","name":"hasRole","inputs":[{"name":"role","type":"bytes32","internalType":"bytes32"},{"name":"account","type":"address","internalType":"address"}],"outputs":[{"name":"","type":"bool","internalType":"bool"}],"stateMutability":"view"},{"type":"function","name":"isMarketRegistered","inputs":[{"name":"marketId","type":"uint256","internalType":"uint256"}],"outputs":[{"name":"","type":"bool","internalType":"bool"}],"stateMutability":"view"},{"type":"function","name":"markets","inputs":[{"name":"","type":"uint256","internalType":"uint256"}],"outputs":[{"name":"","type":"address","internalType":"address"}],"stateMutability":"view"},{"type":"function","name":"multicall","inputs":[{"name":"calls","type":"bytes[]","internalType":"bytes[]"}],"outputs":[{"name":"results","type":"bytes[]","internalType":"bytes[]"}],"stateMutability":"nonpayable"},{"type":"function","name":"onERC1155BatchReceived","inputs":[{"name":"","type":"address","internalType":"address"},{"name":"","type":"address","internalType":"address"},{"name":"","type":"uint256[]","internalType":"uint256[]"},{"name":"","type":"uint256[]","internalType":"uint256[]"},{"name":"","type":"bytes","internalType":"bytes"}],"outputs":[{"name":"","type":"bytes4","internalType":"bytes4"}],"stateMutability":"pure"},{"type":"function","name":"onERC1155Received","inputs":[{"name":"","type":"address","internalType":"address"},{"name":"","type":"address","internalType":"address"},{"name":"","type":"uint256","internalType":"uint256"},{"name":"","type":"uint256","internalType":"uint256"},{"name":"","type":"bytes","internalType":"bytes"}],"outputs":[{"name":"","type":"bytes4","internalType":"bytes4"}],"stateMutability":"pure"},{"type":"function","name":"outcomeToken","inputs":[],"outputs":[{"name":"","type":"address","internalType":"contract Outcome1155"}],"stateMutability":"view"},{"type":"function","name":"paused","inputs":[],"outputs":[{"name":"","type":"bool","internalType":"bool"}],"stateMutability":"view"},{"type":"function","name":"registerMarket","inputs":[{"name":"marketId","type":"uint256","internalType":"uint256"},{"name":"marketAddress","type":"address","internalType":"address"}],"outputs":[],"stateMutability":"nonpayable"},{"type":"function","name":"renounceRole","inputs":[{"name":"role","type":"bytes32","internalType":"bytes32"},{"name":"callerConfirmation","type":"address","internalType":"address"}],"outputs":[],"stateMutability":"nonpayable"},{"type":"function","name":"revokeRole","inputs":[{"name":"role","type":"bytes32","internalType":"bytes32"},{"name":"account","type":"address","internalType":"address"}],"outputs":[],"stateMutability":"nonpayable"},{"type":"function","name":"sellAndTransfer","inputs":[{"name":"marketId","type":"uint256","internalType":"uint256"},{"name":"outcome","type":"uint8","internalType":"uint8"},{"name":"shareDelta","type":"uint256","internalType":"uint256"},{"name":"minPayout","type":"uint256","internalType":"uint256"},{"name":"recipient","type":"address","internalType":"address"}],"outputs":[{"name":"netPayout","type":"uint256","internalType":"uint256"}],"stateMutability":"nonpayable"},{"type":"function","name":"setPaused","inputs":[{"name":"_paused","type":"bool","internalType":"bool"}],"outputs":[],"stateMutability":"nonpayable"},{"type":"function","name":"supportsInterface","inputs":[{"name":"interfaceId","type":"bytes4","internalType":"bytes4"}],"outputs":[{"name":"","type":"bool","internalType":"bool"}],"stateMutability":"view"},{"type":"event","name":"MarketRegistered","inputs":[{"name":"marketId","type":"uint256","indexed":true,"internalType":"uint256"},{"name":"marketAddress","type":"address","indexed":true,"internalType":"address"}],"anonymous":false},{"type":"event","name":"RoleAdminChanged","inputs":[{"name":"role","type":"bytes32","indexed":true,"internalType":"bytes32"},{"name":"previousAdminRole","type":"bytes32","indexed":true,"internalType":"bytes32"},{"name":"newAdminRole","type":"bytes32","indexed":true,"internalType":"bytes32"}],"anonymous":false},{"type":"event","name":"RoleGranted","inputs":[{"name":"role","type":"bytes32","indexed":true,"internalType":"bytes32"},{"name":"account","type":"address","indexed":true,"internalType":"address"},{"name":"sender","type":"address","indexed":true,"internalType":"address"}],"anonymous":false},{"type":"event","name":"RoleRevoked","inputs":[{"name":"role","type":"bytes32","indexed":true,"internalType":"bytes32"},{"name":"account","type":"address","indexed":true,"internalType":"address"},{"name":"sender","type":"address","indexed":true,"internalType":"address"}],"anonymous":false},{"type":"event","name":"RouterPaused","inputs":[{"name":"paused","type":"bool","indexed":false,"internalType":"bool"}],"anonymous":false},{"type":"event","name":"TradeExecuted","inputs":[{"name":"trader","type":"address","indexed":true,"internalType":"address"},{"name":"marketId","type":"uint256","indexed":true,"internalType":"uint256"},{"name":"outcome","type":"uint8","indexed":true,"internalType":"uint8"},{"name":"shares","type":"uint256","indexed":false,"internalType":"uint256"},{"name":"cost","type":"uint256","indexed":false,"internalType":"uint256"},{"name":"isBuy","type":"bool","indexed":false,"internalType":"bool"}],"anonymous":false},{"type":"error","name":"AccessControlBadConfirmation","inputs":[]},{"type":"error","name":"AccessControlUnauthorizedAccount","inputs":[{"name":"account","type":"address","internalType":"address"},{"name":"neededRole","type":"bytes32","internalType":"bytes32"}]},{"type":"error","name":"ReentrancyGuardReentrantCall","inputs":[]},{"type":"error","name":"Router_InvalidMarket","inputs":[{"name":"marketId","type":"uint256","internalType":"uint256"}]},{"type":"error","name":"Router_MarketNotRegistered","inputs":[{"name":"marketId","type":"uint256","internalType":"uint256"}]},{"type":"error","name":"Router_Paused","inputs":[]},{"type":"error","name":"Router_SlippageExceeded","inputs":[{"name":"expected","type":"uint256","internalType":"uint256"},{"name":"actual","type":"uint256","internalType":"uint256"}]},{"type":"error","name":"SafeERC20FailedOperation","inputs":[{"name":"token","type":"address","internalType":"address"}]}],"bytecode":{"object":"0x60a0346100dd57601f6116b538819003918201601f19168301916001600160401b038311848410176100e1578084926020946040528339810103126100dd57516001600160a01b038116908190036100dd5760015f55801561009857608052610067336100f5565b506100713361016b565b5060405161145690816101ff82396080518181816104f90152818161075b0152610c210152f35b60405162461bcd60e51b815260206004820152601e60248201527f526f757465723a206f7574636f6d6520746f6b656e20726571756972656400006044820152606490fd5b5f80fd5b634e487b7160e01b5f52604160045260245ffd5b6001600160a01b0381165f9081525f5160206116755f395f51905f52602052604090205460ff16610166576001600160a01b03165f8181525f5160206116755f395f51905f5260205260408120805460ff191660011790553391905f5160206116555f395f51905f528180a4600190565b505f90565b6001600160a01b0381165f9081525f5160206116955f395f51905f52602052604090205460ff16610166576001600160a01b03165f8181525f5160206116955f395f51905f5260205260408120805460ff191660011790553391907f65d7a28e3265b37a6474929f336521b332c1681b933f6cb9f3376673440d862a905f5160206116555f395f51905f529080a460019056fe6080806040526004361015610012575f80fd5b5f905f3560e01c90816301ffc9a7146110a85750806315d8b4b114610fa757806316c38b3c14610ee0578063248a9ca314610ead57806329dfa8da14610b535780632f2ff15d14610b1457806336568abe14610acf57806346d881a714610a9a5780635c975abb14610a775780636a1a43ca1461058e57806391d1485414610544578063a217fddf14610528578063a998d6d8146104e3578063ac9650d8146102a8578063b1283e7714610156578063bc197c811461020c578063d547741f146101c4578063e63ab1e914610189578063eb44fdd3146101565763f23a6e61146100fa575f80fd5b346101535760a03660031901126101535761011361112b565b5061011c611115565b5060843567ffffffffffffffff81116101515761013d903690600401611182565b505060405163f23a6e6160e01b8152602090f35b505b80fd5b503461015357602036600319011261015357602090600435815260038252604060018060a01b0391205416604051908152f35b503461015357806003193601126101535760206040517f65d7a28e3265b37a6474929f336521b332c1681b933f6cb9f3376673440d862a8152f35b5034610153576040366003190112610153576102086004356101e4611115565b906102036101fe825f526001602052600160405f20015490565b611260565b611344565b5080f35b50346101535760a03660031901126101535761022661112b565b5061022f611115565b5060443567ffffffffffffffff811161015157610250903690600401611151565b505060643567ffffffffffffffff811161015157610272903690600401611151565b505060843567ffffffffffffffff811161015157610294903690600401611182565b505060405163bc197c8160e01b8152602090f35b50346101535760203660031901126101535760043567ffffffffffffffff8111610151576102da903690600401611151565b6102e261129a565b60ff600254166104d457906102f682611220565b9061030460405192836111b0565b828252601f1961031384611220565b01845b8181106104c15750508390601e1981360301905b8483101561043e57858360051b8201358381121561015157820180359067ffffffffffffffff821161043a5760200190803603821361043a57829181604051928392833781018381520390305af43d15610432573d9067ffffffffffffffff821161041e57604051916103a7601f8201601f1916602001846111b0565b82523d88602084013e5b156103d957836001916103c5899688611238565b526103d08187611238565b5001925061032a565b60405162461bcd60e51b815260206004820152601860248201527f526f757465723a206d756c746963616c6c206661696c656400000000000000006044820152606490fd5b634e487b7160e01b88526041600452602488fd5b6060906103b1565b8280fd5b838660018155604051918291602083016020845282518091526040840191602060408360051b870101940192815b8383106104795786860387f35b91939550919360208080600193603f198b8203018752818a518051918291828552018484015e86838284010152601f801991011601019701930193019092869594929361046c565b6060602082860181019190915201610316565b638a48f37f60e01b8352600483fd5b50346101535780600319360112610153576040517f00000000000000000000000000000000000000000000000000000000000000006001600160a01b03168152602090f35b5034610153578060031936011261015357602090604051908152f35b5034610153576040366003190112610153576040610560611115565b9160043581526001602052209060018060a01b03165f52602052602060ff60405f2054166040519015158152f35b503461015357610100366003190112610153576004356105ac611141565b90604435906064359260843560a4359460ff8616809603610a10576105cf61129a565b60ff60025416610a6857838752600360205260408720546001600160a01b0316958615610a545760405163d8dfeb4560e01b8152928891906020856004818c5afa948515610a49578395610a18575b508061099a575b5050604051631795ce0160e21b815260ff85166004820152602481018790529190506060826044818a5afa91821561098f57889261095b575b5080821161094657506106a16040516323b872dd60e01b60208201523360248201523060448201528260648201526064815261069b6084826111b0565b836113c8565b60405163095ea7b360e01b60208083019182526001600160a01b038916602484015260448084019490945292825290919088906106df6064856111b0565b83519082865af187513d82610921575b5050156108dd575b505060405163018bde4760e61b815260ff8216600482015260248101849052936020908590604490829089905af19384156108d257859461089e575b5060405163713bb33960e11b81526004810183905260ff821660248201526001600160a01b037f000000000000000000000000000000000000000000000000000000000000000016908690602081604481865afa90811561089357829161085a575b50823b1561015157604051637921219560e11b815230600482015233602482015260448101919091526064810186905260a060848201525f60a482015291829060c490829084905af1801561084f57610836575b50916020949160ff600194604051938452868885015285604085015216917f2fd8c76ad690f1e93d80edf0c6eebf8b5710bdfd7d0d0fe0cdd4065a6d00183860603392a455604051908152f35b6108418680926111b0565b61084b575f6107e9565b8480fd5b6040513d88823e3d90fd5b9150506020813d60201161088b575b81610876602093836111b0565b81010312610887578690515f610795565b5f80fd5b3d9150610869565b6040513d84823e3d90fd5b9093506020813d6020116108ca575b816108ba602093836111b0565b810103126108875751925f610733565b3d91506108ad565b6040513d87823e3d90fd5b61091a9161091560405163095ea7b360e01b60208201528860248201528960448201526044815261090f6064826111b0565b826113c8565b6113c8565b5f806106f7565b90915061093e57506001600160a01b0382163b15155b5f806106ef565b600114610937565b634723340160e11b8852600452602452604486fd5b61097e91925060603d606011610988575b61097681836111b0565b8101906111e6565b915050905f61065e565b503d61096c565b6040513d8a823e3d90fd5b6001600160a01b03851691823b15610a145760e4849283604051958694859363d505accf60e01b85523360048601523060248601528a60448601526064850152608484015260c43560a4840152833560c48401525af16109fb575b80610625565b81610a05916111b0565b610a1057865f6109f5565b8680fd5b8380fd5b610a3b91955060203d602011610a42575b610a3381836111b0565b810190611201565b935f61061e565b503d610a29565b6040513d85823e3d90fd5b63ccf8c5f360e01b88526004859052602488fd5b638a48f37f60e01b8752600487fd5b5034610153578060031936011261015357602060ff600254166040519015158152f35b503461015357602036600319011261015357602090600435815260038252604060018060a01b03912054161515604051908152f35b503461015357604036600319011261015357610ae9611115565b336001600160a01b03821603610b055761020890600435611344565b63334bd91960e11b8252600482fd5b503461015357604036600319011261015357610208600435610b34611115565b90610b4e6101fe825f526001602052600160405f20015490565b6112b8565b50346108875760a036600319011261088757600435610b70611141565b60643591604435916084356001600160a01b038116810361088757610b9361129a565b60ff60025416610e9e575f838152600360205260409020546001600160a01b0316948515610e8b5760405163d72e818d60e01b815260ff8416600482015260248101869052906060826044818a5afa918215610e13575f92610e67575b50808210610e5257505060405163713bb33960e11b81526004810184905260ff831660248201526001600160a01b037f000000000000000000000000000000000000000000000000000000000000000016602082604481845afa918215610e13575f92610e1e575b50803b1561088757604051637921219560e11b815233600482015230602482015260448101929092526064820186905260a060848301525f60a4830181905290829060c490829084905af18015610e1357610dfe575b5060405163d9515e0b60e01b815260ff8316600482015260248101859052946020866044818a855af1958615610dbc578796610dc7575b509060206004926040519384809263d8dfeb4560e01b82525afa918215610dbc5792610d578789969460ff946001999760209c92610d99575b5060405163a9059cbb60e01b60208201526001600160a01b039190911660248201526044808201939093529182526109156064836111b0565b604051938452868885015284604085015216917f2fd8c76ad690f1e93d80edf0c6eebf8b5710bdfd7d0d0fe0cdd4065a6d00183860603392a455604051908152f35b610915919250610db5908d3d8f11610a4257610a3381836111b0565b9190610d1e565b6040513d89823e3d90fd5b919095506020823d602011610df6575b81610de4602093836111b0565b81010312610887579051946020610ce5565b3d9150610dd7565b610e0b9196505f906111b0565b5f945f610cae565b6040513d5f823e3d90fd5b9091506020813d602011610e4a575b81610e3a602093836111b0565b810103126108875751905f610c58565b3d9150610e2d565b634723340160e11b5f5260045260245260445ffd5b610e8191925060603d6060116109885761097681836111b0565b915050905f610bf0565b8363ccf8c5f360e01b5f5260045260245ffd5b638a48f37f60e01b5f5260045ffd5b34610887576020366003190112610887576020610ed86004355f526001602052600160405f20015490565b604051908152f35b346108875760203660031901126108875760043580151580910361088757335f9081527fb9cbbae02fe941283ec0eefd7b121e3bc7f89fae077b27bdd75a7fd4cf1543a8602052604090205460ff1615610f705760207f813a96dd8899014cfb03844981ecae875122423482199678702de99354daf0cb9160ff196002541660ff821617600255604051908152a1005b63e2517d3f60e01b5f52336004527f65d7a28e3265b37a6474929f336521b332c1681b933f6cb9f3376673440d862a60245260445ffd5b3461088757604036600319011261088757600435610fc3611115565b335f9081527fa6eef7e35abe7026729641147f7915573c7e97b47efa546f5f6e3230263bcb49602052604090205460ff1615611091576001600160a01b031690811561104c575f81815260036020526040812080546001600160a01b031916841790557f07796b317344e6f18fa32ed89b6074ad66549cee7fb7b8c3e9f1c42c496f1c5c9080a3005b60405162461bcd60e51b815260206004820152601e60248201527f526f757465723a20696e76616c6964206d61726b6574206164647265737300006044820152606490fd5b63e2517d3f60e01b5f52336004525f60245260445ffd5b34610887576020366003190112610887576004359063ffffffff60e01b821680920361088757602091630271189760e51b81149081156110ea575b5015158152f35b637965db0b60e01b811491508115611104575b50836110e3565b6301ffc9a760e01b149050836110fd565b602435906001600160a01b038216820361088757565b600435906001600160a01b038216820361088757565b6024359060ff8216820361088757565b9181601f840112156108875782359167ffffffffffffffff8311610887576020808501948460051b01011161088757565b9181601f840112156108875782359167ffffffffffffffff8311610887576020838186019501011161088757565b90601f8019910116810190811067ffffffffffffffff8211176111d257604052565b634e487b7160e01b5f52604160045260245ffd5b90816060910312610887578051916040602083015192015190565b9081602091031261088757516001600160a01b03811681036108875790565b67ffffffffffffffff81116111d25760051b60200190565b805182101561124c5760209160051b010190565b634e487b7160e01b5f52603260045260245ffd5b5f81815260016020908152604080832033845290915290205460ff16156112845750565b63e2517d3f60e01b5f523360045260245260445ffd5b60025f54146112a95760025f55565b633ee5aeb560e01b5f5260045ffd5b5f8181526001602090815260408083206001600160a01b038616845290915290205460ff1661133e575f8181526001602081815260408084206001600160a01b0396909616808552959091528220805460ff19169091179055339291907f2f8788117e7eff1d82e926ec794901d17c78024a50270940304540a733656f0d9080a4600190565b50505f90565b5f8181526001602090815260408083206001600160a01b038616845290915290205460ff161561133e575f8181526001602090815260408083206001600160a01b0395909516808452949091528120805460ff19169055339291907ff6391f5c32d9c69d2a47ea670b442974b53935d1edc7fd64eb21e047a839171b9080a4600190565b905f602091828151910182855af115610e13575f513d61141757506001600160a01b0381163b155b6113f75750565b635274afe760e01b5f9081526001600160a01b0391909116600452602490fd5b600114156113f056fea2646970667358221220d248870f748c97547af6b97a82e98a93be2be1ac527f03383bd0b1e89a65c03664736f6c634300081e00332f8788117e7eff1d82e926ec794901d17c78024a50270940304540a733656f0da6eef7e35abe7026729641147f7915573c7e97b47efa546f5f6e3230263bcb49b9cbbae02fe941283ec0eefd7b121e3bc7f89fae077b27bdd75a7fd4cf1543a8","linkReferences":{}},"methodIdentifiers":{"DEFAULT_ADMIN_ROLE()":"a217fddf","PAUSER_ROLE()":"e63ab1e9","buyWithPermit(uint256,uint8,uint256,uint256,uint256,uint8,bytes32,bytes32)":"6a1a43ca","getMarket(uint256)":"eb44fdd3","getRoleAdmin(bytes32)":"248a9ca3","grantRole(bytes32,address)":"2f2ff15d","hasRole(bytes32,address)":"91d14854","isMarketRegistered(uint256)":"46d881a7","markets(uint256)":"b1283e77","multicall(bytes[])":"ac9650d8","onERC1155BatchReceived(address,address,uint256[],uint256[],bytes)":"bc197c81","onERC1155Received(address,address,uint256,uint256,bytes)":"f23a6e61","outcomeToken()":"a998d6d8","paused()":"5c975abb","registerMarket(uint256,address)":"15d8b4b1","renounceRole(bytes32,address)":"36568abe","revokeRole(bytes32,address)":"d547741f","sellAndTransfer(uint256,uint8,uint256,uint256,address)":"29dfa8da","setPaused(bool)":"16c38b3c","supportsInterface(bytes4)":"01ffc9a7"},"id":3}