{"abi":[{"type":"constructor","inputs":[{"name":"_outcomeToken","type":"address","internalType":"address"}],"stateMutability":"nonpayable"},{"type":"function","name":"DEFAULT_ADMIN_ROLE","inputs":[],"outputs":[{"name":"","type":"bytes32","internalType":"bytes32"}],"stateMutability":"view"},{"type":"function","name":"PAUSER_ROLE","inputs":[],"outputs":[{"name":"","type":"bytes32","internalType":"bytes32"}],"stateMutability":"view"},{"type":"function","name":"buyWithPermit","inputs":[{"name":"marketId","type":"uint256","internalType":"uint256"},{"name":"outcome","type":"uint8","internalType":"uint8"},{"name":"shareDelta","type":"uint256","internalType":"uint256"},{"name":"maxCost","type":"uint256","internalType":"uint256"},{"name":"permitDeadline","type":"uint256","internalType":"uint256"},{"name":"permitV","type":"uint8","internalType":"uint8"},{"name":"permitR","type":"bytes32","internalType":"bytes32"},{"name":"permitS","type":"bytes32","internalType":"bytes32"}],"outputs":[{"name":"totalCost","type":"uint256","internalType":"uint256"}],"stateMutability":"nonpayable"},{"type":"function","name":"getMarket","inputs":[{"name":"marketId","type":"uint256","internalType":"uint256"}],"outputs":[{"name":"","type":"address","internalType":"address"}],"stateMutability":"view"},{"type":"function","name":"getRoleAdmin","inputs":[{"name":"role","type":"bytes32","internalType":"bytes32"}],"outputs":[{"name":"","type":"bytes32","internalType":"bytes32"}],"stateMutability":"view"},{"type":"function","name":"grantRole","inputs":[{"name":"role","type":"bytes32","internalType":"bytes32"},{"name":"account","type":"address","internalType":"address"}],"outputs":[],"stateMutability":"nonpayable"},{"type":"function","name":"hasRole","inputs":[{"name":"role","type":"bytes32","internalType":"bytes32"},{"name":"account","type":"address","internalType":"address"}],"outputs":[{"name":"","type":"bool","internalType":"bool"}],"stateMutability":"view"},{"type":"function","name":"isMarketRegistered","inputs":[{"name":"marketId","type":"uint256","internalType":"uint256"}],"outputs":[{"name":"","type":"bool","internalType":"bool"}],"stateMutability":"view"},{"type":"function","name":"markets","inputs":[{"name":"","type":"uint256","internalType":"uint256"}],"outputs":[{"name":"","type":"address","internalType":"address"}],"stateMutability":"view"},{"type":"function","name":"onERC1155BatchReceived","inputs":[{"name":"","type":"address","internalType":"address"},{"name":"","type":"address","internalType":"address"},{"name":"","type":"uint256[]","internalType":"uint256[]"},{"name":"","type":"uint256[]","internalType":"uint256[]"},{"name":"","type":"bytes","internalType":"bytes"}],"outputs":[{"name":"","type":"bytes4","internalType":"bytes4"}],"stateMutability":"pure"},{"type":"function","name":"onERC1155Received","inputs":[{"name":"","type":"address","internalType":"address"},{"name":"","type":"address","internalType":"address"},{"name":"","type":"uint256","internalType":"uint256"},{"name":"","type":"uint256","internalType":"uint256"},{"name":"","type":"bytes","internalType":"bytes"}],"outputs":[{"name":"","type":"bytes4","internalType":"bytes4"}],"stateMutability":"pure"},{"type":"function","name":"outcomeToken","inputs":[],"outputs":[{"name":"","type":"address","internalType":"contract Outcome1155"}],"stateMutability":"view"},{"type":"function","name":"paused","inputs":[],"outputs":[{"name":"","type":"bool","internalType":"bool"}],"stateMutability":"view"},{"type":"function","name":"registerMarket","inputs":[{"name":"marketId","type":"uint256","internalType":"uint256"},{"name":"marketAddress","type":"address","internalType":"address"}],"outputs":[],"stateMutability":"nonpayable"},{"type":"function","name":"renounceRole","inputs":[{"name":"role","type":"bytes32","internalType":"bytes32"},{"name":"callerConfirmation","type":"address","internalType":"address"}],"outputs":[],"stateMutability":"nonpayable"},{"type":"function","name":"revokeRole","inputs":[{"name":"role","type":"bytes32","internalType":"bytes32"},{"name":"account","type":"address","internalType":"address"}],"outputs":[],"stateMutability":"nonpayable"},{"type":"function","name":"sellAndTransfer","inputs":[{"name":"marketId","type":"uint256","internalType":"uint256"},{"name":"outcome","type":"uint8","internalType":"uint8"},{"name":"shareDelta","type":"uint256","internalType":"uint256"},{"name":"minPayout","type":"uint256","internalType":"uint256"},{"name":"recipient","type":"address","internalType":"address"}],"outputs":[{"name":"netPayout","type":"uint256","internalType":"uint256"}],"stateMutability":"nonpayable"},{"type":"function","name":"setPaused","inputs":[{"name":"_paused","type":"bool","internalType":"bool"}],"outputs":[],"stateMutability":"nonpayable"},{"type":"function","name":"supportsInterface","inputs":[{"name":"interfaceId","type":"bytes4","internalType":"bytes4"}],"outputs":[{"name":"","type":"bool","internalType":"bool"}],"stateMutability":"view"},{"type":"event","name":"MarketRegistered","inputs":[{"name":"marketId","type":"uint256","indexed":true,"internalType":"uint256"},{"name":"marketAddress","type":"address","indexed":true,"internalType":"address"}],"anonymous":false},{"type":"event","name":"RoleAdminChanged","inputs":[{"name":"role","type":"bytes32","indexed":true,"internalType":"bytes32"},{"name":"previousAdminRole","type":"bytes32","indexed":true,"internalType":"bytes32"},{"name":"newAdminRole","type":"bytes32","indexed":true,"internalType":"bytes32"}],"anonymous":false},{"type":"event","name":"RoleGranted","inputs":[{"name":"role","type":"bytes32","indexed":true,"internalType":"bytes32"},{"name":"account","type":"address","indexed":true,"internalType":"address"},{"name":"sender","type":"address","indexed":true,"internalType":"address"}],"anonymous":false},{"type":"event","name":"RoleRevoked","inputs":[{"name":"role","type":"bytes32","indexed":true,"internalType":"bytes32"},{"name":"account","type":"address","indexed":true,"internalType":"address"},{"name":"sender","type":"address","indexed":true,"internalType":"address"}],"anonymous":false},{"type":"event","name":"RouterPaused","inputs":[{"name":"paused","type":"bool","indexed":false,"internalType":"bool"}],"anonymous":false},{"type":"event","name":"TradeExecuted","inputs":[{"name":"trader","type":"address","indexed":true,"internalType":"address"},{"name":"marketId","type":"uint256","indexed":true,"internalType":"uint256"},{"name":"outcome","type":"uint8","indexed":true,"internalType":"uint8"},{"name":"shares","type":"uint256","indexed":false,"internalType":"uint256"},{"name":"cost","type":"uint256","indexed":false,"internalType":"uint256"},{"name":"isBuy","type":"bool","indexed":false,"internalType":"bool"}],"anonymous":false},{"type":"error","name":"AccessControlBadConfirmation","inputs":[]},{"type":"error","name":"AccessControlUnauthorizedAccount","inputs":[{"name":"account","type":"address","internalType":"address"},{"name":"neededRole","type":"bytes32","internalType":"bytes32"}]},{"type":"error","name":"ReentrancyGuardReentrantCall","inputs":[]},{"type":"error","name":"Router_InvalidMarket","inputs":[{"name":"marketId","type":"uint256","internalType":"uint256"}]},{"type":"error","name":"Router_MarketNotRegistered","inputs":[{"name":"marketId","type":"uint256","internalType":"uint256"}]},{"type":"error","name":"Router_Paused","inputs":[]},{"type":"error","name":"Router_SlippageExceeded","inputs":[{"name":"expected","type":"uint256","internalType":"uint256"},{"name":"actual","type":"uint256","internalType":"uint256"}]},{"type":"error","name":"SafeERC20FailedOperation","inputs":[{"name":"token","type":"address","internalType":"address"}]}],"bytecode":{"object":"0x60a0346100dd57601f61142f38819003918201601f19168301916001600160401b038311848410176100e1578084926020946040528339810103126100dd57516001600160a01b038116908190036100dd5760015f55801561009857608052610067336100f5565b506100713361016b565b506040516111d090816101ff82396080518181816102b30152818161051501526109db0152f35b60405162461bcd60e51b815260206004820152601e60248201527f526f757465723a206f7574636f6d6520746f6b656e20726571756972656400006044820152606490fd5b5f80fd5b634e487b7160e01b5f52604160045260245ffd5b6001600160a01b0381165f9081525f5160206113ef5f395f51905f52602052604090205460ff16610166576001600160a01b03165f8181525f5160206113ef5f395f51905f5260205260408120805460ff191660011790553391905f5160206113cf5f395f51905f528180a4600190565b505f90565b6001600160a01b0381165f9081525f51602061140f5f395f51905f52602052604090205460ff16610166576001600160a01b03165f8181525f51602061140f5f395f51905f5260205260408120805460ff191660011790553391907f65d7a28e3265b37a6474929f336521b332c1681b933f6cb9f3376673440d862a905f5160206113cf5f395f51905f529080a460019056fe6080806040526004361015610012575f80fd5b5f905f3560e01c90816301ffc9a714610e625750806315d8b4b114610d6157806316c38b3c14610c9a578063248a9ca314610c6757806329dfa8da1461090d5780632f2ff15d146108ce57806336568abe1461088957806346d881a7146108545780635c975abb146108315780636a1a43ca1461034857806391d14854146102fe578063a217fddf146102e2578063a998d6d81461029d578063b1283e771461014b578063bc197c8114610201578063d547741f146101b9578063e63ab1e91461017e578063eb44fdd31461014b5763f23a6e61146100ef575f80fd5b346101485760a036600319011261014857610108610ee5565b50610111610ecf565b5060843567ffffffffffffffff811161014657610132903690600401610f3c565b505060405163f23a6e6160e01b8152602090f35b505b80fd5b503461014857602036600319011261014857602090600435815260038252604060018060a01b0391205416604051908152f35b503461014857806003193601126101485760206040517f65d7a28e3265b37a6474929f336521b332c1681b933f6cb9f3376673440d862a8152f35b5034610148576040366003190112610148576101fd6004356101d9610ecf565b906101f86101f3825f526001602052600160405f20015490565b610fda565b6110be565b5080f35b50346101485760a03660031901126101485761021b610ee5565b50610224610ecf565b5060443567ffffffffffffffff811161014657610245903690600401610f0b565b505060643567ffffffffffffffff811161014657610267903690600401610f0b565b505060843567ffffffffffffffff811161014657610289903690600401610f3c565b505060405163bc197c8160e01b8152602090f35b50346101485780600319360112610148576040517f00000000000000000000000000000000000000000000000000000000000000006001600160a01b03168152602090f35b5034610148578060031936011261014857602090604051908152f35b503461014857604036600319011261014857604061031a610ecf565b9160043581526001602052209060018060a01b03165f52602052602060ff60405f2054166040519015158152f35b50346101485761010036600319011261014857600435610366610efb565b90604435906064359260843560a4359460ff86168096036107ca57610389611014565b60ff6002541661082257838752600360205260408720546001600160a01b031695861561080e5760405163d8dfeb4560e01b8152928891906020856004818c5afa9485156108035783956107d2575b5080610754575b5050604051631795ce0160e21b815260ff85166004820152602481018790529190506060826044818a5afa918215610749578892610715575b50808211610700575061045b6040516323b872dd60e01b602082015233602482015230604482015282606482015260648152610455608482610f6a565b83611142565b60405163095ea7b360e01b60208083019182526001600160a01b03891660248401526044808401949094529282529091908890610499606485610f6a565b83519082865af187513d826106db575b505015610697575b505060405163018bde4760e61b815260ff8216600482015260248101849052936020908590604490829089905af193841561068c578594610658575b5060405163713bb33960e11b81526004810183905260ff821660248201526001600160a01b037f000000000000000000000000000000000000000000000000000000000000000016908690602081604481865afa90811561064d578291610614575b50823b1561014657604051637921219560e11b815230600482015233602482015260448101919091526064810186905260a060848201525f60a482015291829060c490829084905af18015610609576105f0575b50916020949160ff600194604051938452868885015285604085015216917f2fd8c76ad690f1e93d80edf0c6eebf8b5710bdfd7d0d0fe0cdd4065a6d00183860603392a455604051908152f35b6105fb868092610f6a565b610605575f6105a3565b8480fd5b6040513d88823e3d90fd5b9150506020813d602011610645575b8161063060209383610f6a565b81010312610641578690515f61054f565b5f80fd5b3d9150610623565b6040513d84823e3d90fd5b9093506020813d602011610684575b8161067460209383610f6a565b810103126106415751925f6104ed565b3d9150610667565b6040513d87823e3d90fd5b6106d4916106cf60405163095ea7b360e01b6020820152886024820152896044820152604481526106c9606482610f6a565b82611142565b611142565b5f806104b1565b9091506106f857506001600160a01b0382163b15155b5f806104a9565b6001146106f1565b634723340160e11b8852600452602452604486fd5b61073891925060603d606011610742575b6107308183610f6a565b810190610fa0565b915050905f610418565b503d610726565b6040513d8a823e3d90fd5b6001600160a01b03851691823b156107ce5760e4849283604051958694859363d505accf60e01b85523360048601523060248601528a60448601526064850152608484015260c43560a4840152833560c48401525af16107b5575b806103df565b816107bf91610f6a565b6107ca57865f6107af565b8680fd5b8380fd5b6107f591955060203d6020116107fc575b6107ed8183610f6a565b810190610fbb565b935f6103d8565b503d6107e3565b6040513d85823e3d90fd5b63ccf8c5f360e01b88526004859052602488fd5b638a48f37f60e01b8752600487fd5b5034610148578060031936011261014857602060ff600254166040519015158152f35b503461014857602036600319011261014857602090600435815260038252604060018060a01b03912054161515604051908152f35b5034610148576040366003190112610148576108a3610ecf565b336001600160a01b038216036108bf576101fd906004356110be565b63334bd91960e11b8252600482fd5b5034610148576040366003190112610148576101fd6004356108ee610ecf565b906109086101f3825f526001602052600160405f20015490565b611032565b50346106415760a03660031901126106415760043561092a610efb565b60643591604435916084356001600160a01b03811681036106415761094d611014565b60ff60025416610c58575f838152600360205260409020546001600160a01b0316948515610c455760405163d72e818d60e01b815260ff8416600482015260248101869052906060826044818a5afa918215610bcd575f92610c21575b50808210610c0c57505060405163713bb33960e11b81526004810184905260ff831660248201526001600160a01b037f000000000000000000000000000000000000000000000000000000000000000016602082604481845afa918215610bcd575f92610bd8575b50803b1561064157604051637921219560e11b815233600482015230602482015260448101929092526064820186905260a060848301525f60a4830181905290829060c490829084905af18015610bcd57610bb8575b5060405163d9515e0b60e01b815260ff8316600482015260248101859052946020866044818a855af1958615610b76578796610b81575b509060206004926040519384809263d8dfeb4560e01b82525afa918215610b765792610b118789969460ff946001999760209c92610b53575b5060405163a9059cbb60e01b60208201526001600160a01b039190911660248201526044808201939093529182526106cf606483610f6a565b604051938452868885015284604085015216917f2fd8c76ad690f1e93d80edf0c6eebf8b5710bdfd7d0d0fe0cdd4065a6d00183860603392a455604051908152f35b6106cf919250610b6f908d3d8f116107fc576107ed8183610f6a565b9190610ad8565b6040513d89823e3d90fd5b919095506020823d602011610bb0575b81610b9e60209383610f6a565b81010312610641579051946020610a9f565b3d9150610b91565b610bc59196505f90610f6a565b5f945f610a68565b6040513d5f823e3d90fd5b9091506020813d602011610c04575b81610bf460209383610f6a565b810103126106415751905f610a12565b3d9150610be7565b634723340160e11b5f5260045260245260445ffd5b610c3b91925060603d606011610742576107308183610f6a565b915050905f6109aa565b8363ccf8c5f360e01b5f5260045260245ffd5b638a48f37f60e01b5f5260045ffd5b34610641576020366003190112610641576020610c926004355f526001602052600160405f20015490565b604051908152f35b346106415760203660031901126106415760043580151580910361064157335f9081527fb9cbbae02fe941283ec0eefd7b121e3bc7f89fae077b27bdd75a7fd4cf1543a8602052604090205460ff1615610d2a5760207f813a96dd8899014cfb03844981ecae875122423482199678702de99354daf0cb9160ff196002541660ff821617600255604051908152a1005b63e2517d3f60e01b5f52336004527f65d7a28e3265b37a6474929f336521b332c1681b933f6cb9f3376673440d862a60245260445ffd5b3461064157604036600319011261064157600435610d7d610ecf565b335f9081527fa6eef7e35abe7026729641147f7915573c7e97b47efa546f5f6e3230263bcb49602052604090205460ff1615610e4b576001600160a01b0316908115610e06575f81815260036020526040812080546001600160a01b031916841790557f07796b317344e6f18fa32ed89b6074ad66549cee7fb7b8c3e9f1c42c496f1c5c9080a3005b60405162461bcd60e51b815260206004820152601e60248201527f526f757465723a20696e76616c6964206d61726b6574206164647265737300006044820152606490fd5b63e2517d3f60e01b5f52336004525f60245260445ffd5b34610641576020366003190112610641576004359063ffffffff60e01b821680920361064157602091630271189760e51b8114908115610ea4575b5015158152f35b637965db0b60e01b811491508115610ebe575b5083610e9d565b6301ffc9a760e01b14905083610eb7565b602435906001600160a01b038216820361064157565b600435906001600160a01b038216820361064157565b6024359060ff8216820361064157565b9181601f840112156106415782359167ffffffffffffffff8311610641576020808501948460051b01011161064157565b9181601f840112156106415782359167ffffffffffffffff8311610641576020838186019501011161064157565b90601f8019910116810190811067ffffffffffffffff821117610f8c57604052565b634e487b7160e01b5f52604160045260245ffd5b90816060910312610641578051916040602083015192015190565b9081602091031261064157516001600160a01b03811681036106415790565b5f81815260016020908152604080832033845290915290205460ff1615610ffe5750565b63e2517d3f60e01b5f523360045260245260445ffd5b60025f54146110235760025f55565b633ee5aeb560e01b5f5260045ffd5b5f8181526001602090815260408083206001600160a01b038616845290915290205460ff166110b8575f8181526001602081815260408084206001600160a01b0396909616808552959091528220805460ff19169091179055339291907f2f8788117e7eff1d82e926ec794901d17c78024a50270940304540a733656f0d9080a4600190565b50505f90565b5f8181526001602090815260408083206001600160a01b038616845290915290205460ff16156110b8575f8181526001602090815260408083206001600160a01b0395909516808452949091528120805460ff19169055339291907ff6391f5c32d9c69d2a47ea670b442974b53935d1edc7fd64eb21e047a839171b9080a4600190565b905f602091828151910182855af115610bcd575f513d61119157506001600160a01b0381163b155b6111715750565b635274afe760e01b5f9081526001600160a01b0391909116600452602490fd5b6001141561116a56fea26469706673582212203cd913de9015d76ef8fea37db0745fd81598a8da61c30989cdd1fc9e67d43c3364736f6c634300081e00332f8788117e7eff1d82e926ec794901d17c78024a50270940304540a733656f0da6eef7e35abe7026729641147f7915573c7e97b47efa546f5f6e3230263bcb49b9cbbae02fe941283ec0eefd7b121e3bc7f89fae077b27bdd75a7fd4cf1543a8","linkReferences":{}},"methodIdentifiers":{"DEFAULT_ADMIN_ROLE()":"a217fddf","PAUSER_ROLE()":"e63ab1e9","buyWithPermit(uint256,uint8,uint256,uint256,uint256,uint8,bytes32,bytes32)":"6a1a43ca","getMarket(uint256)":"eb44fdd3","getRoleAdmin(bytes32)":"248a9ca3","grantRole(bytes32,address)":"2f2ff15d","hasRole(bytes32,address)":"91d14854","isMarketRegistered(uint256)":"46d881a7","markets(uint256)":"b1283e77","onERC1155BatchReceived(address,address,uint256[],uint256[],bytes)":"bc197c81","onERC1155Received(address,address,uint256,uint256,bytes)":"f23a6e61","outcomeToken()":"a998d6d8","paused()":"5c975abb","registerMarket(uint256,address)":"15d8b4b1","renounceRole(bytes32,address)":"36568abe","revokeRole(bytes32,address)":"d547741f","sellAndTransfer(uint256,uint8,uint256,uint256,address)":"29dfa8da","setPaused(bool)":"16c38b3c","supportsInterface(bytes4)":"01ffc9a7"},"id":5}