{"abi":[{"type":"constructor","inputs":[{"name":"initialBaseUri","type":"string","internalType":"string"},{"name":"initialRouter","type":"address","internalType":"address"}],"stateMutability":"nonpayable"},{"type":"function","name":"DEFAULT_ADMIN_ROLE","inputs":[],"outputs":[{"name":"","type":"bytes32","internalType":"bytes32"}],"stateMutability":"view"},{"type":"function","name":"MINTER_BURNER_ROLE","inputs":[],"outputs":[{"name":"","type":"bytes32","internalType":"bytes32"}],"stateMutability":"view"},{"type":"function","name":"balanceOf","inputs":[{"name":"account","type":"address","internalType":"address"},{"name":"id","type":"uint256","internalType":"uint256"}],"outputs":[{"name":"","type":"uint256","internalType":"uint256"}],"stateMutability":"view"},{"type":"function","name":"balanceOfBatch","inputs":[{"name":"accounts","type":"address[]","internalType":"address[]"},{"name":"ids","type":"uint256[]","internalType":"uint256[]"}],"outputs":[{"name":"","type":"uint256[]","internalType":"uint256[]"}],"stateMutability":"view"},{"type":"function","name":"burnOutcome","inputs":[{"name":"from","type":"address","internalType":"address"},{"name":"marketId","type":"uint256","internalType":"uint256"},{"name":"outcomeId","type":"uint8","internalType":"uint8"},{"name":"amount","type":"uint256","internalType":"uint256"}],"outputs":[],"stateMutability":"nonpayable"},{"type":"function","name":"burnOutcomeBatch","inputs":[{"name":"from","type":"address","internalType":"address"},{"name":"marketId","type":"uint256","internalType":"uint256"},{"name":"outcomeIds","type":"uint8[]","internalType":"uint8[]"},{"name":"amounts","type":"uint256[]","internalType":"uint256[]"}],"outputs":[],"stateMutability":"nonpayable"},{"type":"function","name":"decodeMarketId","inputs":[{"name":"tokenId","type":"uint256","internalType":"uint256"}],"outputs":[{"name":"","type":"uint256","internalType":"uint256"}],"stateMutability":"pure"},{"type":"function","name":"decodeOutcomeId","inputs":[{"name":"tokenId","type":"uint256","internalType":"uint256"}],"outputs":[{"name":"","type":"uint8","internalType":"uint8"}],"stateMutability":"pure"},{"type":"function","name":"encodeTokenId","inputs":[{"name":"marketId","type":"uint256","internalType":"uint256"},{"name":"outcomeId","type":"uint8","internalType":"uint8"}],"outputs":[{"name":"","type":"uint256","internalType":"uint256"}],"stateMutability":"pure"},{"type":"function","name":"getRoleAdmin","inputs":[{"name":"role","type":"bytes32","internalType":"bytes32"}],"outputs":[{"name":"","type":"bytes32","internalType":"bytes32"}],"stateMutability":"view"},{"type":"function","name":"grantRole","inputs":[{"name":"role","type":"bytes32","internalType":"bytes32"},{"name":"account","type":"address","internalType":"address"}],"outputs":[],"stateMutability":"nonpayable"},{"type":"function","name":"hasRole","inputs":[{"name":"role","type":"bytes32","internalType":"bytes32"},{"name":"account","type":"address","internalType":"address"}],"outputs":[{"name":"","type":"bool","internalType":"bool"}],"stateMutability":"view"},{"type":"function","name":"isApprovedForAll","inputs":[{"name":"account","type":"address","internalType":"address"},{"name":"operator","type":"address","internalType":"address"}],"outputs":[{"name":"","type":"bool","internalType":"bool"}],"stateMutability":"view"},{"type":"function","name":"mintOutcome","inputs":[{"name":"to","type":"address","internalType":"address"},{"name":"marketId","type":"uint256","internalType":"uint256"},{"name":"outcomeId","type":"uint8","internalType":"uint8"},{"name":"amount","type":"uint256","internalType":"uint256"}],"outputs":[],"stateMutability":"nonpayable"},{"type":"function","name":"mintOutcomeBatch","inputs":[{"name":"to","type":"address","internalType":"address"},{"name":"marketId","type":"uint256","internalType":"uint256"},{"name":"outcomeIds","type":"uint8[]","internalType":"uint8[]"},{"name":"amounts","type":"uint256[]","internalType":"uint256[]"}],"outputs":[],"stateMutability":"nonpayable"},{"type":"function","name":"renounceRole","inputs":[{"name":"role","type":"bytes32","internalType":"bytes32"},{"name":"callerConfirmation","type":"address","internalType":"address"}],"outputs":[],"stateMutability":"nonpayable"},{"type":"function","name":"revokeRole","inputs":[{"name":"role","type":"bytes32","internalType":"bytes32"},{"name":"account","type":"address","internalType":"address"}],"outputs":[],"stateMutability":"nonpayable"},{"type":"function","name":"router","inputs":[],"outputs":[{"name":"","type":"address","internalType":"address"}],"stateMutability":"view"},{"type":"function","name":"safeBatchTransferFrom","inputs":[{"name":"from","type":"address","internalType":"address"},{"name":"to","type":"address","internalType":"address"},{"name":"ids","type":"uint256[]","internalType":"uint256[]"},{"name":"values","type":"uint256[]","internalType":"uint256[]"},{"name":"data","type":"bytes","internalType":"bytes"}],"outputs":[],"stateMutability":"nonpayable"},{"type":"function","name":"safeTransferFrom","inputs":[{"name":"from","type":"address","internalType":"address"},{"name":"to","type":"address","internalType":"address"},{"name":"id","type":"uint256","internalType":"uint256"},{"name":"value","type":"uint256","internalType":"uint256"},{"name":"data","type":"bytes","internalType":"bytes"}],"outputs":[],"stateMutability":"nonpayable"},{"type":"function","name":"setApprovalForAll","inputs":[{"name":"operator","type":"address","internalType":"address"},{"name":"approved","type":"bool","internalType":"bool"}],"outputs":[],"stateMutability":"nonpayable"},{"type":"function","name":"setBaseUri","inputs":[{"name":"newBaseUri","type":"string","internalType":"string"}],"outputs":[],"stateMutability":"nonpayable"},{"type":"function","name":"setRouter","inputs":[{"name":"newRouter","type":"address","internalType":"address"}],"outputs":[],"stateMutability":"nonpayable"},{"type":"function","name":"supportsInterface","inputs":[{"name":"interfaceId","type":"bytes4","internalType":"bytes4"}],"outputs":[{"name":"","type":"bool","internalType":"bool"}],"stateMutability":"view"},{"type":"function","name":"uri","inputs":[{"name":"id","type":"uint256","internalType":"uint256"}],"outputs":[{"name":"","type":"string","internalType":"string"}],"stateMutability":"view"},{"type":"event","name":"ApprovalForAll","inputs":[{"name":"account","type":"address","indexed":true,"internalType":"address"},{"name":"operator","type":"address","indexed":true,"internalType":"address"},{"name":"approved","type":"bool","indexed":false,"internalType":"bool"}],"anonymous":false},{"type":"event","name":"BaseUriUpdated","inputs":[{"name":"newBaseUri","type":"string","indexed":false,"internalType":"string"}],"anonymous":false},{"type":"event","name":"RoleAdminChanged","inputs":[{"name":"role","type":"bytes32","indexed":true,"internalType":"bytes32"},{"name":"previousAdminRole","type":"bytes32","indexed":true,"internalType":"bytes32"},{"name":"newAdminRole","type":"bytes32","indexed":true,"internalType":"bytes32"}],"anonymous":false},{"type":"event","name":"RoleGranted","inputs":[{"name":"role","type":"bytes32","indexed":true,"internalType":"bytes32"},{"name":"account","type":"address","indexed":true,"internalType":"address"},{"name":"sender","type":"address","indexed":true,"internalType":"address"}],"anonymous":false},{"type":"event","name":"RoleRevoked","inputs":[{"name":"role","type":"bytes32","indexed":true,"internalType":"bytes32"},{"name":"account","type":"address","indexed":true,"internalType":"address"},{"name":"sender","type":"address","indexed":true,"internalType":"address"}],"anonymous":false},{"type":"event","name":"RouterUpdated","inputs":[{"name":"newRouter","type":"address","indexed":true,"internalType":"address"}],"anonymous":false},{"type":"event","name":"TransferBatch","inputs":[{"name":"operator","type":"address","indexed":true,"internalType":"address"},{"name":"from","type":"address","indexed":true,"internalType":"address"},{"name":"to","type":"address","indexed":true,"internalType":"address"},{"name":"ids","type":"uint256[]","indexed":false,"internalType":"uint256[]"},{"name":"values","type":"uint256[]","indexed":false,"internalType":"uint256[]"}],"anonymous":false},{"type":"event","name":"TransferSingle","inputs":[{"name":"operator","type":"address","indexed":true,"internalType":"address"},{"name":"from","type":"address","indexed":true,"internalType":"address"},{"name":"to","type":"address","indexed":true,"internalType":"address"},{"name":"id","type":"uint256","indexed":false,"internalType":"uint256"},{"name":"value","type":"uint256","indexed":false,"internalType":"uint256"}],"anonymous":false},{"type":"event","name":"URI","inputs":[{"name":"value","type":"string","indexed":false,"internalType":"string"},{"name":"id","type":"uint256","indexed":true,"internalType":"uint256"}],"anonymous":false},{"type":"error","name":"AccessControlBadConfirmation","inputs":[]},{"type":"error","name":"AccessControlUnauthorizedAccount","inputs":[{"name":"account","type":"address","internalType":"address"},{"name":"neededRole","type":"bytes32","internalType":"bytes32"}]},{"type":"error","name":"ERC1155InsufficientBalance","inputs":[{"name":"sender","type":"address","internalType":"address"},{"name":"balance","type":"uint256","internalType":"uint256"},{"name":"needed","type":"uint256","internalType":"uint256"},{"name":"tokenId","type":"uint256","internalType":"uint256"}]},{"type":"error","name":"ERC1155InvalidApprover","inputs":[{"name":"approver","type":"address","internalType":"address"}]},{"type":"error","name":"ERC1155InvalidArrayLength","inputs":[{"name":"idsLength","type":"uint256","internalType":"uint256"},{"name":"valuesLength","type":"uint256","internalType":"uint256"}]},{"type":"error","name":"ERC1155InvalidOperator","inputs":[{"name":"operator","type":"address","internalType":"address"}]},{"type":"error","name":"ERC1155InvalidReceiver","inputs":[{"name":"receiver","type":"address","internalType":"address"}]},{"type":"error","name":"ERC1155InvalidSender","inputs":[{"name":"sender","type":"address","internalType":"address"}]},{"type":"error","name":"ERC1155MissingApprovalForAll","inputs":[{"name":"operator","type":"address","internalType":"address"},{"name":"owner","type":"address","internalType":"address"}]}],"bytecode":{"object":"0x608060405234610402576128a88038038061001981610406565b9283398101906040818303126104025780516001600160401b0381116104025781019082601f830112156104025781516001600160401b0381116102cd5761006a601f8201601f1916602001610406565b9381855260208285010111610402576020815f92828096018388015e8501015201516001600160a01b038116908190036104025781516001600160401b0381116102cd57600254600181811c911680156103f8575b60208210146102af57601f8111610395575b50806020601f8211600114610331575f91610326575b508160011b915f199060031b1c1916176002555b80156102e15781516001600160401b0381116102cd57600554600181811c911680156102c3575b60208210146102af57601f8111610269575b50602092601f821160011461020857928192935f926101fd575b50508160011b915f199060031b1c1916176005555b600480546001600160a01b0319169190911790556101803361042b565b5061018a336104a1565b505f5160206128485f395f51905f525f81815260036020527fa8c527ab7d7a1d8ada18d7f466220ac1f8b966aa1d888a163a8a6ff9e91340a0805490829055604051927fbd79b86ffe0ab8e8776151514217cd7cacd52c909f66475c3af44e129f0b00ff8380a461230690816105228239f35b015190505f8061014e565b601f1982169360055f52805f20915f5b8681106102515750836001959610610239575b505050811b01600555610163565b01515f1960f88460031b161c191690555f808061022b565b91926020600181928685015181550194019201610218565b60055f5260205f20601f830160051c810191602084106102a5575b601f0160051c01905b81811061029a5750610134565b5f815560010161028d565b9091508190610284565b634e487b7160e01b5f52602260045260245ffd5b90607f1690610122565b634e487b7160e01b5f52604160045260245ffd5b60405162461bcd60e51b815260206004820152601c60248201527f4f7574636f6d65313135353a20726f75746572207265717569726564000000006044820152606490fd5b90508301515f6100e7565b60025f9081528181209250601f198416905b81811061037d57509083600194939210610365575b5050811b016002556100fb565b8501515f1960f88460031b161c191690555f80610358565b9192602060018192868a015181550194019201610343565b60025f527f405787fa12a823e0f2b7631cc41b3ba8828b3321ca811111fa75cd3aa3bb5ace601f830160051c810191602084106103ee575b601f0160051c01905b8181106103e357506100d1565b5f81556001016103d6565b90915081906103cd565b90607f16906100bf565b5f80fd5b6040519190601f01601f191682016001600160401b038111838210176102cd57604052565b6001600160a01b0381165f9081525f5160206128885f395f51905f52602052604090205460ff1661049c576001600160a01b03165f8181525f5160206128885f395f51905f5260205260408120805460ff191660011790553391905f5160206128285f395f51905f528180a4600190565b505f90565b6001600160a01b0381165f9081525f5160206128685f395f51905f52602052604090205460ff1661049c576001600160a01b03165f8181525f5160206128685f395f51905f5260205260408120805460ff191660011790553391905f5160206128485f395f51905f52905f5160206128285f395f51905f529080a460019056fe60806040526004361015610011575f80fd5b5f3560e01c8062fdd58e146101a357806301ffc9a71461019e5780630e89341c14610199578063248a9ca31461019457806328dc77011461018f5780632eb2c2d61461018a5780632f2ff15d1461018557806336568abe1461018057806347ddcc191461017b5780634e1273f41461017657806372c32860146101715780638a34977e1461016c57806391d1485414610167578063a0bcfc7f14610162578063a217fddf1461015d578063a22cb46514610158578063a4e96e9614610153578063c0d786551461014e578063d547741f14610149578063e2218aab14610144578063e27766721461013f578063e985e9c51461013a578063ecde79a614610135578063f242432a146101305763f887ea401461012b575f80fd5b610f37565b610e68565b610dfc565b610dc6565b610d94565b610d02565b610cc4565b610c17565b610b5b565b610a11565b6109f7565b610858565b610809565b6107e8565b6107ae565b6106ef565b61068a565b610646565b610603565b610579565b6103ca565b610355565b6102f3565b610246565b6101ec565b600435906001600160a01b03821682036101be57565b5f80fd5b602435906001600160a01b03821682036101be57565b35906001600160a01b03821682036101be57565b346101be5760403660031901126101be57602061022b61020a6101a8565b6024355f525f835260405f209060018060a01b03165f5260205260405f2090565b54604051908152f35b6001600160e01b03198116036101be57565b346101be5760203660031901126101be5760043561026381610234565b63ffffffff60e01b16637965db0b60e01b811490811561028c575b506040519015158152602090f35b636cdb3d1360e11b8114915081156102be575b81156102ad575b505f61027e565b6301ffc9a760e01b1490505f6102a6565b6303a24d0760e21b8114915061029f565b805180835260209291819084018484015e5f828201840152601f01601f1916010190565b346101be5760203660031901126101be57600435610312600554610f5f565b6103445750610340604051610328602082610466565b5f81525b6040519182916020835260208301906102cf565b0390f35b610350610340916113eb565b61032c565b346101be5760203660031901126101be5760206103806004355f526003602052600160405f20015490565b604051908152f35b60ff8116036101be57565b60809060031901126101be576004356001600160a01b03811681036101be5790602435906044356103c381610388565b9060643590565b346101be5760ff6103da36610393565b93906103e4611515565b169060081b1790604051916103fa602084610466565b5f83526001600160a01b0382161561043f5761043d9361043760405192600184526020840152604083019160018352606084015260808301604052565b91611bb0565b005b632bfa23e760e11b5f525f60045260245ffd5b634e487b7160e01b5f52604160045260245ffd5b90601f801991011681019081106001600160401b0382111761048757604052565b610452565b6001600160401b0381116104875760051b60200190565b9291906104af8161048c565b936104bd6040519586610466565b602085838152019160051b81019283116101be57905b8282106104df57505050565b81358152602091820191016104d3565b9080601f830112156101be5781602061050a933591016104a3565b90565b6001600160401b03811161048757601f01601f191660200190565b9291926105348261050d565b916105426040519384610466565b8294818452818301116101be578281602093845f960137010152565b9080601f830112156101be5781602061050a93359101610528565b346101be5760a03660031901126101be576105926101a8565b61059a6101c2565b906044356001600160401b0381116101be576105ba9036906004016104ef565b6064356001600160401b0381116101be576105d99036906004016104ef565b90608435936001600160401b0385116101be576105fd61043d95369060040161055e565b93610f97565b346101be5760403660031901126101be5761043d6004356106226101c2565b9061064161063c825f526003602052600160405f20015490565b6115d3565b61160d565b346101be5760403660031901126101be576004356106626101c2565b336001600160a01b0382160361067b5761043d9161169d565b63334bd91960e11b5f5260045ffd5b346101be5760203660031901126101be57602060043560ff60405191168152f35b90602080835192838152019201905f5b8181106106c85750505090565b82518452602093840193909201916001016106bb565b90602061050a9281815201906106ab565b346101be5760403660031901126101be576004356001600160401b0381116101be57366023820112156101be5780600401359061072b8261048c565b916107396040519384610466565b8083526024602084019160051b830101913683116101be57602401905b82821061079657836024356001600160401b0381116101be576103409161078461078a9236906004016104ef565b90611084565b604051918291826106de565b602080916107a3846101d8565b815201910190610756565b346101be575f3660031901126101be5760206040517fcfd53186d792f1ec9d0679afc2dc3ffc86fc31fe1e0f342b838eb6c3eade62b38152f35b346101be5760203660031901126101be5760206004356040519060081c8152f35b346101be5760403660031901126101be57602060ff61084c60043561082c6101c2565b905f526003845260405f209060018060a01b03165f5260205260405f2090565b54166040519015158152f35b346101be5760203660031901126101be576004356001600160401b0381116101be57366023820112156101be578060040135906001600160401b0382116101be5736602483830101116101be57602401906108b1611584565b6001600160401b038111610487576108d3816108ce600554610f5f565b61110e565b5f91601f82116001146109575761092182807f24a9152dc695ecc801ad580886331ee12d7aac0fa2ae341a5ae3c2ccae36cb4f955f9161094c575b508160011b915f199060031b1c19161790565b6005555b610938610933368484610528565b611725565b610947604051928392836111ae565b0390a1005b90508301355f61090e565b60055f52601f1982167f036b6384b5eca791c62761152d0c79bb0604c104a5fb6f4eb0703f3154bb3db0905f5b8181106109df575093837f24a9152dc695ecc801ad580886331ee12d7aac0fa2ae341a5ae3c2ccae36cb4f95106109c6575b5050600182811b01600555610925565b8201355f19600385901b60f8161c191690555f806109b6565b83860135835560209586019560019093019201610984565b346101be575f3660031901126101be5760206040515f8152f35b346101be5760403660031901126101be57610a2a6101a8565b60243590811515908183036101be576001600160a01b038116928315610ab157610a72610a8392335f52600160205260405f209060018060a01b03165f5260205260405f2090565b9060ff801983541691151516179055565b6040519081527f17307eab39ab6107e8899845ad3d59bd9653f200f220920489ca2b5937696c3160203392a3005b62ced3e160e81b5f525f60045260245ffd5b9181601f840112156101be578235916001600160401b0383116101be576020808501948460051b0101116101be57565b60806003198201126101be576004356001600160a01b03811681036101be5791602435916044356001600160401b0381116101be5781610b3591600401610ac3565b92909291606435906001600160401b0382116101be57610b5791600401610ac3565b9091565b346101be57610b6936610af3565b919493610b77939193611515565b610b828387146111d5565b610b8b86611025565b955f5b818110610bde578787610ba236888a6104a3565b6001600160a01b03821615610bcc5761043d9260405192610bc4602085610466565b5f8452611d21565b626a0d4560e21b5f525f60045260245ffd5b80610c06610bef6001938588611221565b35610bf981610388565b859060ff169060081b1790565b610c10828b61106b565b5201610b8e565b346101be5760203660031901126101be57610c306101a8565b610c38611584565b6001600160a01b03168015610c7f57600480546001600160a01b031916821790557f7aed1d3e8155a07ccf395e44ea3109a0e2d6c9b29bbbe9f142d9790596f4dc805f80a2005b60405162461bcd60e51b815260206004820152601c60248201527f4f7574636f6d65313135353a20726f75746572207265717569726564000000006044820152606490fd5b346101be5760403660031901126101be5761043d600435610ce36101c2565b90610cfd61063c825f526003602052600160405f20015490565b61169d565b346101be57610d1036610af3565b9193610d1d939193611515565b610d288386146111d5565b610d3185611025565b945f5b818110610d72578787610d4836888a6104a3565b60405191610d57602084610466565b5f83526001600160a01b0384161561043f5761043d93611bb0565b80610d83610bef6001938588611221565b610d8d828a61106b565b5201610d34565b346101be5760403660031901126101be57602060043560ff602435610db881610388565b169060081b17604051908152f35b346101be5760403660031901126101be576020610df2610de46101a8565b610dec6101c2565b90611231565b6040519015158152f35b346101be5760ff610e0c36610393565b9390610e16611515565b1660089190911b176001600160a01b03821615610bcc5761043d92610e5860405192600184526020840152604083019160018352606084015260808301604052565b9060405192610bc4602085610466565b346101be5760a03660031901126101be57610e816101a8565b610e896101c2565b60443590606435926084356001600160401b0381116101be57610eb090369060040161055e565b926001600160a01b0382163381141580610f26575b610f10576001600160a01b0384161561043f5715610bcc5761043d94610f0860405192600184526020840152604083019160018352606084015260808301604052565b929091611e71565b63711bec9160e11b5f523360045260245260445ffd5b50610f313384611231565b15610ec5565b346101be575f3660031901126101be576004546040516001600160a01b039091168152602090f35b90600182811c92168015610f8d575b6020831014610f7957565b634e487b7160e01b5f52602260045260245ffd5b91607f1691610f6e565b939291906001600160a01b0385163381141580610fd2575b610f10576001600160a01b0382161561043f5715610bcc57610fd094611e71565b565b50610fdd3387611231565b15610faf565b634e487b7160e01b5f52601160045260245ffd5b604103906041821161100557565b610fe3565b5f1981019190821161100557565b9190820391821161100557565b9061102f8261048c565b61103c6040519182610466565b828152809261104d601f199161048c565b0190602036910137565b634e487b7160e01b5f52603260045260245ffd5b805182101561107f5760209160051b010190565b611057565b919091805183518082036110f957505061109e8151611025565b905f5b81518110156110f257806110e060019260051b602080828701015191890101515f525f60205260405f209060018060a01b03165f5260205260405f2090565b546110eb828661106b565b52016110a1565b5090925050565b635b05999160e01b5f5260045260245260445ffd5b601f811161111a575050565b60055f5260205f20906020601f840160051c83019310611154575b601f0160051c01905b818110611149575050565b5f815560010161113e565b9091508190611135565b601f811161116a575050565b60025f5260205f20906020601f840160051c830193106111a4575b601f0160051c01905b818110611199575050565b5f815560010161118e565b9091508190611185565b90918060409360208452816020850152848401375f828201840152601f01601f1916010190565b156111dc57565b60405162461bcd60e51b815260206004820152601c60248201527f4f7574636f6d65313135353a206c656e677468206d69736d61746368000000006044820152606490fd5b919081101561107f5760051b0190565b6004546001600160a01b03838116911614611274576001600160a01b039081165f908152600160209081526040808320939094168252919091522060ff90541690565b5050600190565b604051905f826005549161128e83610f5f565b808352926001811690811561131157506001146112b2575b610fd092500383610466565b5060055f90815290917f036b6384b5eca791c62761152d0c79bb0604c104a5fb6f4eb0703f3154bb3db05b8183106112f5575050906020610fd0928201016112a6565b60209193508060019154838589010152019101909184926112dd565b60209250610fd094915060ff191682840152151560051b8201016112a6565b6040519061133f604083610466565b60048252637b69647d60e01b6020830152565b6005545f929161136182610f5f565b91600181169081156113c75750600114611379575050565b60055f90815292935090917f036b6384b5eca791c62761152d0c79bb0604c104a5fb6f4eb0703f3154bb3db05b8382106113b35750500190565b6001816020925484860152019101906113a6565b60ff1916825250811515909102019150565b805191908290602001825e015f815290565b906113f4611806565b9182511561107f5760306020840153607861140e8461188d565b535f905b604082106114ca575050611424611828565b5f5b60408110611491575090915061143a61127b565b90611443611330565b61145461145082856118bc565b1590565b6114615761050a9261198e565b50611483915061050a9060405192839161147d60208401611352565b906113d9565b03601f198101835282610466565b806114b76114a96114a3600194611872565b8761189d565b516001600160f81b03191690565b5f1a6114c3828561189d565b5301611426565b600f8116601081101561107f5760019161150d916f181899199a1a9b1b9c1cb0b131b232b360811b901a61150661150086610ff7565b8861189d565b5360041c90565b910190611412565b335f9081527fa8c527ab7d7a1d8ada18d7f466220ac1f8b966aa1d888a163a8a6ff9e913409f602052604090205460ff161561154d57565b63e2517d3f60e01b5f52336004527fcfd53186d792f1ec9d0679afc2dc3ffc86fc31fe1e0f342b838eb6c3eade62b360245260445ffd5b335f9081527f3617319a054d772f909f7c479a2cebe5066e836a939412e32403c99029b92eff602052604090205460ff16156115bc57565b63e2517d3f60e01b5f52336004525f60245260445ffd5b5f81815260036020908152604080832033845290915290205460ff16156115f75750565b63e2517d3f60e01b5f523360045260245260445ffd5b5f8181526003602090815260408083206001600160a01b038616845290915290205460ff16611697575f8181526003602090815260408083206001600160a01b03861684529091529020805460ff1916600117905533916001600160a01b0316907f2f8788117e7eff1d82e926ec794901d17c78024a50270940304540a733656f0d5f80a4600190565b50505f90565b5f8181526003602090815260408083206001600160a01b038616845290915290205460ff1615611697575f8181526003602090815260408083206001600160a01b03861684529091529020805460ff1916905533916001600160a01b0316907ff6391f5c32d9c69d2a47ea670b442974b53935d1edc7fd64eb21e047a839171b5f80a4600190565b9081516001600160401b0381116104875761174a81611745600254610f5f565b61115e565b602092601f821160011461178a5761177a929382915f9261177f575b50508160011b915f199060031b1c19161790565b600255565b015190505f80611766565b60025f52601f198216937f405787fa12a823e0f2b7631cc41b3ba8828b3321ca811111fa75cd3aa3bb5ace915f5b8681106117ee57508360019596106117d6575b505050811b01600255565b01515f1960f88460031b161c191690555f80806117cb565b919260206001819286850151815501940192016117b8565b604051608091906118178382610466565b6042815291601f1901366020840137565b604051606091906118398382610466565b6040815291601f1901366020840137565b906118548261050d565b6118616040519182610466565b828152809261104d601f199161050d565b906002820180921161100557565b9190820180921161100557565b80516001101561107f5760210190565b90815181101561107f570160200190565b5f1981146110055760010190565b9080518015908115611970575b50611697575f905b6118de8351825190611018565b8211611969576001925f5b825181101561195f576119086114a96119028387611880565b8461189d565b6119256119186114a9848761189d565b6001600160f81b03191690565b6001600160f81b03199091160361193e576001016118e9565b509250905f5b61195757611951906118ae565b906118d1565b505050600190565b5092919091611944565b5050505f90565b90508251105f6118c9565b8181029291811591840414171561100557565b92815115611bab5791925f905f935b6119aa8251855190611018565b8511611a4d576001955f5b8551811015611a43576119d46114a96119ce838a611880565b8661189d565b6119e46119186114a9848a61189d565b6001600160f81b0319909116036119fd576001016119b5565b5094909195505f5b611a1b575b611a13906118ae565b93949061199d565b91611a3c611a2b611a13926118ae565b93611a36865161100a565b90611880565b9050611a0a565b5094909195611a05565b94919093508015611ba557611a7a611a7f91611a368697965191611a748651885190611018565b9061197b565b61184a565b905f945f905b8051821015611b9c57600195611a9c865184611880565b825110611b90575f5b8651811015611b8557611ac46114a9611abe8387611880565b8561189d565b611ad46119186114a9848b61189d565b6001600160f81b031990911603611aed57600101611aa5565b509192939495505f5b15611b4d575f5b8451811015611b345780611b166114a96001938861189d565b98611b2d611b23826118ae565b9a5f1a918961189d565b5301611afd565b5094939291611b4590855190611880565b905b94611a85565b9493929190611b686114a9611b61846118ae565b938861189d565b96611b7f611b75826118ae565b985f1a918661189d565b53611b47565b509192939495611af6565b9192939495505f611af6565b50919450505050565b50505090565b915050565b939291908051825190818103611d0c5750506001600160a01b03851693841515935f5b8351811015611c405780868960019360051b602080828a010151918a01015192611c01575b50505001611bd3565b611c3691611c19611c2e925f525f60205260405f2090565b9060018060a01b03165f5260205260405f2090565b918254611880565b90555f8981611bf8565b509390959460018351145f14611cd1576020838101518582015160408051928352928201525f9133917fc3d58168c5ae7397731d063d5bbf3d657854427343f4c083240f7aacaa2d0f629190a45b611c99575b50505050565b8051600103611cc15790602080611cb895930151910151915f33612232565b5f808080611c93565b611ccc935f33612103565b611cb8565b5f6040517f4a39dc06d4c0dbc64b70af90fd698a233a518aa5d07e595d983b8c0526c8f7fb339180611d04898983612047565b0390a4611c8e565b635b05999160e01b5f5260045260245260445ffd5b9092508251825190818103611d0c5750506001600160a01b038116801515949093905f5b8251811015611de8578060051b876020808387010151928801015190611d70575b5050600101611d45565b611d8586611c19845f525f60205260405f2090565b54818110611db15786611c196001959493611da99303935f525f60205260405f2090565b55905f611d66565b6040516303dee4c560e01b81526001600160a01b038816600482015260248101919091526044810182905260648101839052608490fd5b5094505f9392915060018151148414611e3e5760209081015191810151604080519384529183015233917fc3d58168c5ae7397731d063d5bbf3d657854427343f4c083240f7aacaa2d0f6291819081015b0390a4565b60405133927f4a39dc06d4c0dbc64b70af90fd698a233a518aa5d07e595d983b8c0526c8f7fb928291611e399183612047565b9493929091938451825190818103611d0c5750506001600160a01b038681169586151595918516801515939192905f5b8451811015611f7a578060051b90898988602080868b010151958c01015192611ef9575b93600194611ed7575b50505001611ea1565b611eef91611c19611c2e925f525f60205260405f2090565b90555f8981611ece565b50509091611f128d611c19835f525f60205260405f2090565b54828110611f43578291898f611f3a600197968f950391611c19855f525f60205260405f2090565b55909450611ec5565b6040516303dee4c560e01b81526001600160a01b038f16600482015260248101919091526044810183905260648101829052608490fd5b5091989593929790965060018851145f1461200d5760208881015186820151604080519283529282015233917fc3d58168c5ae7397731d063d5bbf3d657854427343f4c083240f7aacaa2d0f6291a45b611fd6575b5050505050565b8451600103611ffc57602080611ff29601519201519233612232565b5f80808080611fcf565b61200894919233612103565b611ff2565b6040517f4a39dc06d4c0dbc64b70af90fd698a233a518aa5d07e595d983b8c0526c8f7fb33918061203f898d83612047565b0390a4611fca565b909161205e61050a936040845260408401906106ab565b9160208184039101526106ab565b908160209103126101be575161050a81610234565b6001600160a01b0391821681529116602082015260a06040820181905261050a94919391926120c692916120b891908601906106ab565b9084820360608601526106ab565b9160808184039101526102cf565b3d156120fe573d906120e58261050d565b916120f36040519384610466565b82523d5f602084013e565b606090565b9091949293853b612117575b505050505050565b60209361213991604051968795869563bc197c8160e01b875260048701612081565b03815f6001600160a01b0387165af15f91816121c8575b5061218a575061215e6120d4565b805191908261218357632bfa23e760e11b5f526001600160a01b03821660045260245ffd5b6020915001fd5b6001600160e01b0319166343e6837f60e01b016121ad57505f808080808061210f565b632bfa23e760e11b5f526001600160a01b031660045260245ffd5b6121eb91925060203d6020116121f2575b6121e38183610466565b81019061206c565b905f612150565b503d6121d9565b6001600160a01b039182168152911660208201526040810191909152606081019190915260a06080820181905261050a929101906102cf565b9091949293853b61224557505050505050565b60209361226791604051968795869563f23a6e6160e01b8752600487016121f9565b03815f6001600160a01b0387165af15f91816122af575b5061228c575061215e6120d4565b6001600160e01b031916630dc5919f60e01b016121ad57505f808080808061210f565b6122c991925060203d6020116121f2576121e38183610466565b905f61227e56fea26469706673582212202cd5621b4c50e922433e3e01c04c5d50452c643c5409923f6b9ad2194b2eb42a64736f6c634300081e00332f8788117e7eff1d82e926ec794901d17c78024a50270940304540a733656f0dcfd53186d792f1ec9d0679afc2dc3ffc86fc31fe1e0f342b838eb6c3eade62b3a8c527ab7d7a1d8ada18d7f466220ac1f8b966aa1d888a163a8a6ff9e913409f3617319a054d772f909f7c479a2cebe5066e836a939412e32403c99029b92eff","linkReferences":{}},"methodIdentifiers":{"DEFAULT_ADMIN_ROLE()":"a217fddf","MINTER_BURNER_ROLE()":"72c32860","balanceOf(address,uint256)":"00fdd58e","balanceOfBatch(address[],uint256[])":"4e1273f4","burnOutcome(address,uint256,uint8,uint256)":"ecde79a6","burnOutcomeBatch(address,uint256,uint8[],uint256[])":"a4e96e96","decodeMarketId(uint256)":"8a34977e","decodeOutcomeId(uint256)":"47ddcc19","encodeTokenId(uint256,uint8)":"e2776672","getRoleAdmin(bytes32)":"248a9ca3","grantRole(bytes32,address)":"2f2ff15d","hasRole(bytes32,address)":"91d14854","isApprovedForAll(address,address)":"e985e9c5","mintOutcome(address,uint256,uint8,uint256)":"28dc7701","mintOutcomeBatch(address,uint256,uint8[],uint256[])":"e2218aab","renounceRole(bytes32,address)":"36568abe","revokeRole(bytes32,address)":"d547741f","router()":"f887ea40","safeBatchTransferFrom(address,address,uint256[],uint256[],bytes)":"2eb2c2d6","safeTransferFrom(address,address,uint256,uint256,bytes)":"f242432a","setApprovalForAll(address,bool)":"a22cb465","setBaseUri(string)":"a0bcfc7f","setRouter(address)":"c0d78655","supportsInterface(bytes4)":"01ffc9a7","uri(uint256)":"0e89341c"},"id":4}